{
  "address": "0x728f307Fd43327bE2fB9Ef61A9f00D956402A35c",
  "abi": [
    {
      "inputs": [
        {
          "internalType": "address",
          "name": "_accessControlRegistry",
          "type": "address"
        },
        {
          "internalType": "string",
          "name": "_adminRoleDescription",
          "type": "string"
        }
      ],
      "stateMutability": "nonpayable",
      "type": "constructor"
    },
    {
      "anonymous": false,
      "inputs": [
        {
          "indexed": true,
          "internalType": "address",
          "name": "airnode",
          "type": "address"
        },
        {
          "indexed": false,
          "internalType": "bytes32",
          "name": "endpointId",
          "type": "bytes32"
        },
        {
          "indexed": true,
          "internalType": "address",
          "name": "requester",
          "type": "address"
        },
        {
          "indexed": true,
          "internalType": "address",
          "name": "sender",
          "type": "address"
        },
        {
          "indexed": false,
          "internalType": "uint256",
          "name": "expiration",
          "type": "uint256"
        }
      ],
      "name": "ExtendedWhitelistExpiration",
      "type": "event"
    },
    {
      "anonymous": false,
      "inputs": [
        {
          "indexed": true,
          "internalType": "address",
          "name": "airnode",
          "type": "address"
        },
        {
          "indexed": false,
          "internalType": "bytes32",
          "name": "endpointId",
          "type": "bytes32"
        },
        {
          "indexed": true,
          "internalType": "address",
          "name": "requester",
          "type": "address"
        },
        {
          "indexed": true,
          "internalType": "address",
          "name": "setter",
          "type": "address"
        },
        {
          "indexed": false,
          "internalType": "address",
          "name": "sender",
          "type": "address"
        },
        {
          "indexed": false,
          "internalType": "uint192",
          "name": "indefiniteWhitelistCount",
          "type": "uint192"
        }
      ],
      "name": "RevokedIndefiniteWhitelistStatus",
      "type": "event"
    },
    {
      "anonymous": false,
      "inputs": [
        {
          "indexed": true,
          "internalType": "address",
          "name": "airnode",
          "type": "address"
        },
        {
          "indexed": false,
          "internalType": "bytes32",
          "name": "endpointId",
          "type": "bytes32"
        },
        {
          "indexed": true,
          "internalType": "address",
          "name": "requester",
          "type": "address"
        },
        {
          "indexed": true,
          "internalType": "address",
          "name": "sender",
          "type": "address"
        },
        {
          "indexed": false,
          "internalType": "bool",
          "name": "status",
          "type": "bool"
        },
        {
          "indexed": false,
          "internalType": "uint192",
          "name": "indefiniteWhitelistCount",
          "type": "uint192"
        }
      ],
      "name": "SetIndefiniteWhitelistStatus",
      "type": "event"
    },
    {
      "anonymous": false,
      "inputs": [
        {
          "indexed": true,
          "internalType": "address",
          "name": "airnode",
          "type": "address"
        },
        {
          "indexed": false,
          "internalType": "bytes32",
          "name": "endpointId",
          "type": "bytes32"
        },
        {
          "indexed": true,
          "internalType": "address",
          "name": "requester",
          "type": "address"
        },
        {
          "indexed": true,
          "internalType": "address",
          "name": "sender",
          "type": "address"
        },
        {
          "indexed": false,
          "internalType": "uint256",
          "name": "expiration",
          "type": "uint256"
        }
      ],
      "name": "SetWhitelistExpiration",
      "type": "event"
    },
    {
      "inputs": [],
      "name": "INDEFINITE_WHITELISTER_ROLE_DESCRIPTION",
      "outputs": [
        {
          "internalType": "string",
          "name": "",
          "type": "string"
        }
      ],
      "stateMutability": "view",
      "type": "function"
    },
    {
      "inputs": [],
      "name": "WHITELIST_EXPIRATION_EXTENDER_ROLE_DESCRIPTION",
      "outputs": [
        {
          "internalType": "string",
          "name": "",
          "type": "string"
        }
      ],
      "stateMutability": "view",
      "type": "function"
    },
    {
      "inputs": [],
      "name": "WHITELIST_EXPIRATION_SETTER_ROLE_DESCRIPTION",
      "outputs": [
        {
          "internalType": "string",
          "name": "",
          "type": "string"
        }
      ],
      "stateMutability": "view",
      "type": "function"
    },
    {
      "inputs": [],
      "name": "accessControlRegistry",
      "outputs": [
        {
          "internalType": "address",
          "name": "",
          "type": "address"
        }
      ],
      "stateMutability": "view",
      "type": "function"
    },
    {
      "inputs": [],
      "name": "adminRoleDescription",
      "outputs": [
        {
          "internalType": "string",
          "name": "",
          "type": "string"
        }
      ],
      "stateMutability": "view",
      "type": "function"
    },
    {
      "inputs": [
        {
          "internalType": "address",
          "name": "airnode",
          "type": "address"
        },
        {
          "internalType": "bytes32",
          "name": "endpointId",
          "type": "bytes32"
        },
        {
          "internalType": "address",
          "name": "requester",
          "type": "address"
        },
        {
          "internalType": "address",
          "name": "setter",
          "type": "address"
        }
      ],
      "name": "airnodeToEndpointIdToRequesterToSetterToIndefiniteWhitelistStatus",
      "outputs": [
        {
          "internalType": "bool",
          "name": "indefiniteWhitelistStatus",
          "type": "bool"
        }
      ],
      "stateMutability": "view",
      "type": "function"
    },
    {
      "inputs": [
        {
          "internalType": "address",
          "name": "airnode",
          "type": "address"
        },
        {
          "internalType": "bytes32",
          "name": "endpointId",
          "type": "bytes32"
        },
        {
          "internalType": "address",
          "name": "requester",
          "type": "address"
        }
      ],
      "name": "airnodeToEndpointIdToRequesterToWhitelistStatus",
      "outputs": [
        {
          "internalType": "uint64",
          "name": "expirationTimestamp",
          "type": "uint64"
        },
        {
          "internalType": "uint192",
          "name": "indefiniteWhitelistCount",
          "type": "uint192"
        }
      ],
      "stateMutability": "view",
      "type": "function"
    },
    {
      "inputs": [
        {
          "internalType": "address",
          "name": "airnode",
          "type": "address"
        }
      ],
      "name": "deriveAdminRole",
      "outputs": [
        {
          "internalType": "bytes32",
          "name": "adminRole",
          "type": "bytes32"
        }
      ],
      "stateMutability": "view",
      "type": "function"
    },
    {
      "inputs": [
        {
          "internalType": "address",
          "name": "airnode",
          "type": "address"
        }
      ],
      "name": "deriveIndefiniteWhitelisterRole",
      "outputs": [
        {
          "internalType": "bytes32",
          "name": "indefiniteWhitelisterRole",
          "type": "bytes32"
        }
      ],
      "stateMutability": "view",
      "type": "function"
    },
    {
      "inputs": [
        {
          "internalType": "address",
          "name": "airnode",
          "type": "address"
        }
      ],
      "name": "deriveWhitelistExpirationExtenderRole",
      "outputs": [
        {
          "internalType": "bytes32",
          "name": "whitelistExpirationExtenderRole",
          "type": "bytes32"
        }
      ],
      "stateMutability": "view",
      "type": "function"
    },
    {
      "inputs": [
        {
          "internalType": "address",
          "name": "airnode",
          "type": "address"
        }
      ],
      "name": "deriveWhitelistExpirationSetterRole",
      "outputs": [
        {
          "internalType": "bytes32",
          "name": "whitelistExpirationSetterRole",
          "type": "bytes32"
        }
      ],
      "stateMutability": "view",
      "type": "function"
    },
    {
      "inputs": [
        {
          "internalType": "address",
          "name": "airnode",
          "type": "address"
        },
        {
          "internalType": "bytes32",
          "name": "endpointId",
          "type": "bytes32"
        },
        {
          "internalType": "address",
          "name": "requester",
          "type": "address"
        },
        {
          "internalType": "uint64",
          "name": "expirationTimestamp",
          "type": "uint64"
        }
      ],
      "name": "extendWhitelistExpiration",
      "outputs": [],
      "stateMutability": "nonpayable",
      "type": "function"
    },
    {
      "inputs": [
        {
          "internalType": "bytes32",
          "name": "requestId",
          "type": "bytes32"
        },
        {
          "internalType": "address",
          "name": "airnode",
          "type": "address"
        },
        {
          "internalType": "bytes32",
          "name": "endpointId",
          "type": "bytes32"
        },
        {
          "internalType": "address",
          "name": "sponsor",
          "type": "address"
        },
        {
          "internalType": "address",
          "name": "requester",
          "type": "address"
        }
      ],
      "name": "isAuthorized",
      "outputs": [
        {
          "internalType": "bool",
          "name": "",
          "type": "bool"
        }
      ],
      "stateMutability": "view",
      "type": "function"
    },
    {
      "inputs": [
        {
          "internalType": "address",
          "name": "airnode",
          "type": "address"
        },
        {
          "internalType": "bytes32",
          "name": "endpointId",
          "type": "bytes32"
        },
        {
          "internalType": "address",
          "name": "requester",
          "type": "address"
        }
      ],
      "name": "requesterIsWhitelisted",
      "outputs": [
        {
          "internalType": "bool",
          "name": "isWhitelisted",
          "type": "bool"
        }
      ],
      "stateMutability": "view",
      "type": "function"
    },
    {
      "inputs": [
        {
          "internalType": "address",
          "name": "airnode",
          "type": "address"
        },
        {
          "internalType": "bytes32",
          "name": "endpointId",
          "type": "bytes32"
        },
        {
          "internalType": "address",
          "name": "requester",
          "type": "address"
        },
        {
          "internalType": "address",
          "name": "setter",
          "type": "address"
        }
      ],
      "name": "revokeIndefiniteWhitelistStatus",
      "outputs": [],
      "stateMutability": "nonpayable",
      "type": "function"
    },
    {
      "inputs": [
        {
          "internalType": "address",
          "name": "airnode",
          "type": "address"
        },
        {
          "internalType": "bytes32",
          "name": "endpointId",
          "type": "bytes32"
        },
        {
          "internalType": "address",
          "name": "requester",
          "type": "address"
        },
        {
          "internalType": "bool",
          "name": "status",
          "type": "bool"
        }
      ],
      "name": "setIndefiniteWhitelistStatus",
      "outputs": [],
      "stateMutability": "nonpayable",
      "type": "function"
    },
    {
      "inputs": [
        {
          "internalType": "address",
          "name": "airnode",
          "type": "address"
        },
        {
          "internalType": "bytes32",
          "name": "endpointId",
          "type": "bytes32"
        },
        {
          "internalType": "address",
          "name": "requester",
          "type": "address"
        },
        {
          "internalType": "uint64",
          "name": "expirationTimestamp",
          "type": "uint64"
        }
      ],
      "name": "setWhitelistExpiration",
      "outputs": [],
      "stateMutability": "nonpayable",
      "type": "function"
    }
  ],
  "transactionHash": "0x086878b2de6eb60dca040a3e21d4ca3fb7706842845145998b8872187ea4bc5e",
  "args": [
    "0x7471091Fd3f158E7586a838BD70F1c7F19CA9497",
    "RequesterAuthorizerWithAirnode admin"
  ],
  "solcInputHash": "e3d949232f846f22d57b20a2fd7df255",
  "bytecode": "0x60a06040523480156200001157600080fd5b5060405162002a5238038062002a52833981810160405281019062000037919062000431565b8181818181600073ffffffffffffffffffffffffffffffffffffffff168173ffffffffffffffffffffffffffffffffffffffff161415620000af576040517f08c379a0000000000000000000000000000000000000000000000000000000008152600401620000a690620004f8565b60405180910390fd5b8073ffffffffffffffffffffffffffffffffffffffff1660808173ffffffffffffffffffffffffffffffffffffffff16815250505060008151116200012b576040517f08c379a000000000000000000000000000000000000000000000000000000000815260040162000122906200056a565b60405180910390fd5b8060009080519060200190620001439291906200017f565b5080604051602001620001579190620005d9565b6040516020818303038152906040528051906020012060018190555050505050505062000657565b8280546200018d9062000621565b90600052602060002090601f016020900481019282620001b15760008555620001fd565b82601f10620001cc57805160ff1916838001178555620001fd565b82800160010185558215620001fd579182015b82811115620001fc578251825591602001919060010190620001df565b5b5090506200020c919062000210565b5090565b5b808211156200022b57600081600090555060010162000211565b5090565b6000604051905090565b600080fd5b600080fd5b600073ffffffffffffffffffffffffffffffffffffffff82169050919050565b6000620002708262000243565b9050919050565b620002828162000263565b81146200028e57600080fd5b50565b600081519050620002a28162000277565b92915050565b600080fd5b600080fd5b6000601f19601f8301169050919050565b7f4e487b7100000000000000000000000000000000000000000000000000000000600052604160045260246000fd5b620002fd82620002b2565b810181811067ffffffffffffffff821117156200031f576200031e620002c3565b5b80604052505050565b6000620003346200022f565b9050620003428282620002f2565b919050565b600067ffffffffffffffff821115620003655762000364620002c3565b5b6200037082620002b2565b9050602081019050919050565b60005b838110156200039d57808201518184015260208101905062000380565b83811115620003ad576000848401525b50505050565b6000620003ca620003c48462000347565b62000328565b905082815260208101848484011115620003e957620003e8620002ad565b5b620003f68482856200037d565b509392505050565b600082601f830112620004165762000415620002a8565b5b815162000428848260208601620003b3565b91505092915050565b600080604083850312156200044b576200044a62000239565b5b60006200045b8582860162000291565b925050602083015167ffffffffffffffff8111156200047f576200047e6200023e565b5b6200048d85828601620003fe565b9150509250929050565b600082825260208201905092915050565b7f4143522061646472657373207a65726f00000000000000000000000000000000600082015250565b6000620004e060108362000497565b9150620004ed82620004a8565b602082019050919050565b600060208201905081810360008301526200051381620004d1565b9050919050565b7f41646d696e20726f6c65206465736372697074696f6e20656d70747900000000600082015250565b600062000552601c8362000497565b91506200055f826200051a565b602082019050919050565b60006020820190508181036000830152620005858162000543565b9050919050565b600081519050919050565b600081905092915050565b6000620005af826200058c565b620005bb818562000597565b9350620005cd8185602086016200037d565b80840191505092915050565b6000620005e78284620005a2565b915081905092915050565b7f4e487b7100000000000000000000000000000000000000000000000000000000600052602260045260246000fd5b600060028204905060018216806200063a57607f821691505b60208210811415620006515762000650620005f2565b5b50919050565b6080516123ca6200068860003960008181610399015281816108aa01528181610a3c0152610d2a01526123ca6000f3fe608060405234801561001057600080fd5b506004361061010b5760003560e01c8063661f53b7116100a25780637e766bc1116100715780637e766bc1146102cc57806382d229e3146102e85780639caa101b14610319578063b6316d8814610349578063d55a42dd146103795761010b565b8063661f53b7146102445780636bd2bdd0146102745780636db798f91461029257806373c0627e146102b05761010b565b80634c8f1d8d116100de5780634c8f1d8d146101965780634cffd606146101b457806352300976146101e45780635d51dbdc146102145761010b565b80631ce9ae0714610110578063216de27e1461012e57806343b649621461015e5780634751c2e21461017a575b600080fd5b610118610397565b6040516101259190611963565b60405180910390f35b610148600480360381019061014391906119e5565b6103bb565b6040516101559190611a67565b60405180910390f35b61017860048036038101906101739190611aae565b61046b565b005b610194600480360381019061018f9190611b55565b6104c6565b005b61019e610521565b6040516101ab9190611c55565b60405180910390f35b6101ce60048036038101906101c99190611c77565b6105af565b6040516101db9190611cb3565b60405180910390f35b6101fe60048036038101906101f99190611c77565b6105c1565b60405161020b9190611cb3565b60405180910390f35b61022e60048036038101906102299190611cce565b6105d3565b60405161023b9190611a67565b60405180910390f35b61025e60048036038101906102599190611d49565b6105eb565b60405161026b9190611a67565b60405180910390f35b61027c610609565b6040516102899190611c55565b60405180910390f35b61029a610642565b6040516102a79190611c55565b60405180910390f35b6102ca60048036038101906102c59190611b55565b61067b565b005b6102e660048036038101906102e191906119e5565b6106d6565b005b61030260048036038101906102fd9190611d49565b610732565b604051610310929190611dde565b60405180910390f35b610333600480360381019061032e9190611c77565b6107e1565b6040516103409190611cb3565b60405180910390f35b610363600480360381019061035e9190611c77565b6107f3565b6040516103709190611cb3565b60405180910390f35b610381610805565b60405161038e9190611c55565b60405180910390f35b7f000000000000000000000000000000000000000000000000000000000000000081565b6000600360006103cb878761083e565b815260200190815260200160002060008473ffffffffffffffffffffffffffffffffffffffff1673ffffffffffffffffffffffffffffffffffffffff16815260200190815260200160002060008373ffffffffffffffffffffffffffffffffffffffff1673ffffffffffffffffffffffffffffffffffffffff16815260200190815260200160002060009054906101000a900460ff169050949350505050565b6104758433610871565b6104b4576040517f08c379a00000000000000000000000000000000000000000000000000000000081526004016104ab90611e53565b60405180910390fd5b6104c084848484610964565b50505050565b6104d08433610a03565b61050f576040517f08c379a000000000000000000000000000000000000000000000000000000000815260040161050690611ebf565b60405180910390fd5b61051b84848484610af6565b50505050565b6000805461052e90611f0e565b80601f016020809104026020016040519081016040528092919081815260200182805461055a90611f0e565b80156105a75780601f1061057c576101008083540402835291602001916105a7565b820191906000526020600020905b81548152906001019060200180831161058a57829003601f168201915b505050505081565b60006105ba82610b8e565b9050919050565b60006105cc82610bab565b9050919050565b60006105e08585846105eb565b905095945050505050565b60006106006105fa858561083e565b83610c21565b90509392505050565b6040518060400160405280601b81526020017f57686974656c6973742065787069726174696f6e20736574746572000000000081525081565b6040518060400160405280601d81526020017f57686974656c6973742065787069726174696f6e20657874656e64657200000081525081565b6106858433610cf1565b6106c4576040517f08c379a00000000000000000000000000000000000000000000000000000000081526004016106bb90611f8c565b60405180910390fd5b6106d084848484610de4565b50505050565b6106e08482610871565b15610720576040517f08c379a000000000000000000000000000000000000000000000000000000000815260040161071790611ff8565b60405180910390fd5b61072c84848484610e7c565b50505050565b600080600060026000610745888861083e565b815260200190815260200160002060008573ffffffffffffffffffffffffffffffffffffffff1673ffffffffffffffffffffffffffffffffffffffff16815260200190815260200160002090508060000160009054906101000a900467ffffffffffffffff1692508060000160089054906101000a900477ffffffffffffffffffffffffffffffffffffffffffffffff16915050935093915050565b60006107ec82610f26565b9050919050565b60006107fe82610f9c565b9050919050565b6040518060400160405280601681526020017f496e646566696e6974652077686974656c69737465720000000000000000000081525081565b60008282604051602001610853929190612081565b60405160208183030381529060405280519060200120905092915050565b60008173ffffffffffffffffffffffffffffffffffffffff168373ffffffffffffffffffffffffffffffffffffffff16148061095c57507f000000000000000000000000000000000000000000000000000000000000000073ffffffffffffffffffffffffffffffffffffffff166391d148546108ed856107e1565b846040518363ffffffff1660e01b815260040161090b9291906120ad565b60206040518083038186803b15801561092357600080fd5b505afa158015610937573d6000803e3d6000fd5b505050506040513d601f19601f8201168201806040525081019061095b91906120eb565b5b905092915050565b600061097a610973868661083e565b8484611012565b90503373ffffffffffffffffffffffffffffffffffffffff168373ffffffffffffffffffffffffffffffffffffffff168673ffffffffffffffffffffffffffffffffffffffff167f13d4d6afcb6d196f753a522f275673066719bb13944bd021efd1fca4286df20d8786866040516109f493929190612118565b60405180910390a45050505050565b60008173ffffffffffffffffffffffffffffffffffffffff168373ffffffffffffffffffffffffffffffffffffffff161480610aee57507f000000000000000000000000000000000000000000000000000000000000000073ffffffffffffffffffffffffffffffffffffffff166391d14854610a7f856107f3565b846040518363ffffffff1660e01b8152600401610a9d9291906120ad565b60206040518083038186803b158015610ab557600080fd5b505afa158015610ac9573d6000803e3d6000fd5b505050506040513d601f19601f82011682018060405250810190610aed91906120eb565b5b905092915050565b610b0a610b03858561083e565b838361148c565b3373ffffffffffffffffffffffffffffffffffffffff168273ffffffffffffffffffffffffffffffffffffffff168573ffffffffffffffffffffffffffffffffffffffff167f375ee45428e158031095010484fd6451af89c501c79d75e390da4e91eb480ce18685604051610b80929190612194565b60405180910390a450505050565b6000610ba4610b9c8361150b565b60015461153b565b9050919050565b6000610c1a610bb983610b8e565b6040518060400160405280601d81526020017f57686974656c6973742065787069726174696f6e20657874656e646572000000815250604051602001610bff91906121f9565b6040516020818303038152906040528051906020012061153b565b9050919050565b6000806002600085815260200190815260200160002060008473ffffffffffffffffffffffffffffffffffffffff1673ffffffffffffffffffffffffffffffffffffffff168152602001908152602001600020905060008160000160089054906101000a900477ffffffffffffffffffffffffffffffffffffffffffffffff1677ffffffffffffffffffffffffffffffffffffffffffffffff161180610ce85750428160000160009054906101000a900467ffffffffffffffff1667ffffffffffffffff16115b91505092915050565b60008173ffffffffffffffffffffffffffffffffffffffff168373ffffffffffffffffffffffffffffffffffffffff161480610ddc57507f000000000000000000000000000000000000000000000000000000000000000073ffffffffffffffffffffffffffffffffffffffff166391d14854610d6d856105c1565b846040518363ffffffff1660e01b8152600401610d8b9291906120ad565b60206040518083038186803b158015610da357600080fd5b505afa158015610db7573d6000803e3d6000fd5b505050506040513d601f19601f82011682018060405250810190610ddb91906120eb565b5b905092915050565b610df8610df1858561083e565b838361156e565b3373ffffffffffffffffffffffffffffffffffffffff168273ffffffffffffffffffffffffffffffffffffffff168573ffffffffffffffffffffffffffffffffffffffff167ff9b174be67f83278d4516865d1b9ba4576b73e523ea0c2f124ea29152bb1b6768685604051610e6e929190612194565b60405180910390a450505050565b600080610e93610e8c878761083e565b85856116aa565b915091508115610f1e578273ffffffffffffffffffffffffffffffffffffffff168473ffffffffffffffffffffffffffffffffffffffff168773ffffffffffffffffffffffffffffffffffffffff167fdca622020d204c36e9588e7be4184758283d992606ab73318776824b44e2859d883386604051610f1593929190612210565b60405180910390a45b505050505050565b6000610f95610f3483610b8e565b6040518060400160405280601681526020017f496e646566696e6974652077686974656c697374657200000000000000000000815250604051602001610f7a91906121f9565b6040516020818303038152906040528051906020012061153b565b9050919050565b600061100b610faa83610b8e565b6040518060400160405280601b81526020017f57686974656c6973742065787069726174696f6e207365747465720000000000815250604051602001610ff091906121f9565b6040516020818303038152906040528051906020012061153b565b9050919050565b60006002600085815260200190815260200160002060008473ffffffffffffffffffffffffffffffffffffffff1673ffffffffffffffffffffffffffffffffffffffff16815260200190815260200160002060000160089054906101000a900477ffffffffffffffffffffffffffffffffffffffffffffffff16905081801561113357506003600085815260200190815260200160002060008473ffffffffffffffffffffffffffffffffffffffff1673ffffffffffffffffffffffffffffffffffffffff16815260200190815260200160002060003373ffffffffffffffffffffffffffffffffffffffff1673ffffffffffffffffffffffffffffffffffffffff16815260200190815260200160002060009054906101000a900460ff16155b1561128b5760016003600086815260200190815260200160002060008573ffffffffffffffffffffffffffffffffffffffff1673ffffffffffffffffffffffffffffffffffffffff16815260200190815260200160002060003373ffffffffffffffffffffffffffffffffffffffff1673ffffffffffffffffffffffffffffffffffffffff16815260200190815260200160002060006101000a81548160ff02191690831515021790555080806111e990612276565b915050806002600086815260200190815260200160002060008573ffffffffffffffffffffffffffffffffffffffff1673ffffffffffffffffffffffffffffffffffffffff16815260200190815260200160002060000160086101000a81548177ffffffffffffffffffffffffffffffffffffffffffffffff021916908377ffffffffffffffffffffffffffffffffffffffffffffffff160217905550611485565b8115801561133057506003600085815260200190815260200160002060008473ffffffffffffffffffffffffffffffffffffffff1673ffffffffffffffffffffffffffffffffffffffff16815260200190815260200160002060003373ffffffffffffffffffffffffffffffffffffffff1673ffffffffffffffffffffffffffffffffffffffff16815260200190815260200160002060009054906101000a900460ff165b156114845760006003600086815260200190815260200160002060008573ffffffffffffffffffffffffffffffffffffffff1673ffffffffffffffffffffffffffffffffffffffff16815260200190815260200160002060003373ffffffffffffffffffffffffffffffffffffffff1673ffffffffffffffffffffffffffffffffffffffff16815260200190815260200160002060006101000a81548160ff02191690831515021790555080806113e6906122b7565b915050806002600086815260200190815260200160002060008573ffffffffffffffffffffffffffffffffffffffff1673ffffffffffffffffffffffffffffffffffffffff16815260200190815260200160002060000160086101000a81548177ffffffffffffffffffffffffffffffffffffffffffffffff021916908377ffffffffffffffffffffffffffffffffffffffffffffffff1602179055505b5b9392505050565b806002600085815260200190815260200160002060008473ffffffffffffffffffffffffffffffffffffffff1673ffffffffffffffffffffffffffffffffffffffff16815260200190815260200160002060000160006101000a81548167ffffffffffffffff021916908367ffffffffffffffff160217905550505050565b60008160405160200161151e91906122e1565b604051602081830303815290604052805190602001209050919050565b600082826040516020016115509291906122fc565b60405160208183030381529060405280519060200120905092915050565b6002600084815260200190815260200160002060008373ffffffffffffffffffffffffffffffffffffffff1673ffffffffffffffffffffffffffffffffffffffff16815260200190815260200160002060000160009054906101000a900467ffffffffffffffff1667ffffffffffffffff168167ffffffffffffffff161161162b576040517f08c379a000000000000000000000000000000000000000000000000000000000815260040161162290612374565b60405180910390fd5b806002600085815260200190815260200160002060008473ffffffffffffffffffffffffffffffffffffffff1673ffffffffffffffffffffffffffffffffffffffff16815260200190815260200160002060000160006101000a81548167ffffffffffffffff021916908367ffffffffffffffff160217905550505050565b6000806002600086815260200190815260200160002060008573ffffffffffffffffffffffffffffffffffffffff1673ffffffffffffffffffffffffffffffffffffffff16815260200190815260200160002060000160089054906101000a900477ffffffffffffffffffffffffffffffffffffffffffffffff1690506003600086815260200190815260200160002060008573ffffffffffffffffffffffffffffffffffffffff1673ffffffffffffffffffffffffffffffffffffffff16815260200190815260200160002060008473ffffffffffffffffffffffffffffffffffffffff1673ffffffffffffffffffffffffffffffffffffffff16815260200190815260200160002060009054906101000a900460ff161561191a5760006003600087815260200190815260200160002060008673ffffffffffffffffffffffffffffffffffffffff1673ffffffffffffffffffffffffffffffffffffffff16815260200190815260200160002060008573ffffffffffffffffffffffffffffffffffffffff1673ffffffffffffffffffffffffffffffffffffffff16815260200190815260200160002060006101000a81548160ff0219169083151502179055508080611878906122b7565b915050806002600087815260200190815260200160002060008673ffffffffffffffffffffffffffffffffffffffff1673ffffffffffffffffffffffffffffffffffffffff16815260200190815260200160002060000160086101000a81548177ffffffffffffffffffffffffffffffffffffffffffffffff021916908377ffffffffffffffffffffffffffffffffffffffffffffffff160217905550600191505b935093915050565b600073ffffffffffffffffffffffffffffffffffffffff82169050919050565b600061194d82611922565b9050919050565b61195d81611942565b82525050565b60006020820190506119786000830184611954565b92915050565b600080fd5b61198c81611942565b811461199757600080fd5b50565b6000813590506119a981611983565b92915050565b6000819050919050565b6119c2816119af565b81146119cd57600080fd5b50565b6000813590506119df816119b9565b92915050565b600080600080608085870312156119ff576119fe61197e565b5b6000611a0d8782880161199a565b9450506020611a1e878288016119d0565b9350506040611a2f8782880161199a565b9250506060611a408782880161199a565b91505092959194509250565b60008115159050919050565b611a6181611a4c565b82525050565b6000602082019050611a7c6000830184611a58565b92915050565b611a8b81611a4c565b8114611a9657600080fd5b50565b600081359050611aa881611a82565b92915050565b60008060008060808587031215611ac857611ac761197e565b5b6000611ad68782880161199a565b9450506020611ae7878288016119d0565b9350506040611af88782880161199a565b9250506060611b0987828801611a99565b91505092959194509250565b600067ffffffffffffffff82169050919050565b611b3281611b15565b8114611b3d57600080fd5b50565b600081359050611b4f81611b29565b92915050565b60008060008060808587031215611b6f57611b6e61197e565b5b6000611b7d8782880161199a565b9450506020611b8e878288016119d0565b9350506040611b9f8782880161199a565b9250506060611bb087828801611b40565b91505092959194509250565b600081519050919050565b600082825260208201905092915050565b60005b83811015611bf6578082015181840152602081019050611bdb565b83811115611c05576000848401525b50505050565b6000601f19601f8301169050919050565b6000611c2782611bbc565b611c318185611bc7565b9350611c41818560208601611bd8565b611c4a81611c0b565b840191505092915050565b60006020820190508181036000830152611c6f8184611c1c565b905092915050565b600060208284031215611c8d57611c8c61197e565b5b6000611c9b8482850161199a565b91505092915050565b611cad816119af565b82525050565b6000602082019050611cc86000830184611ca4565b92915050565b600080600080600060a08688031215611cea57611ce961197e565b5b6000611cf8888289016119d0565b9550506020611d098882890161199a565b9450506040611d1a888289016119d0565b9350506060611d2b8882890161199a565b9250506080611d3c8882890161199a565b9150509295509295909350565b600080600060608486031215611d6257611d6161197e565b5b6000611d708682870161199a565b9350506020611d81868287016119d0565b9250506040611d928682870161199a565b9150509250925092565b611da581611b15565b82525050565b600077ffffffffffffffffffffffffffffffffffffffffffffffff82169050919050565b611dd881611dab565b82525050565b6000604082019050611df36000830185611d9c565b611e006020830184611dcf565b9392505050565b7f4e6f7420696e646566696e6974652077686974656c6973746572000000000000600082015250565b6000611e3d601a83611bc7565b9150611e4882611e07565b602082019050919050565b60006020820190508181036000830152611e6c81611e30565b9050919050565b7f4e6f742065787069726174696f6e207365747465720000000000000000000000600082015250565b6000611ea9601583611bc7565b9150611eb482611e73565b602082019050919050565b60006020820190508181036000830152611ed881611e9c565b9050919050565b7f4e487b7100000000000000000000000000000000000000000000000000000000600052602260045260246000fd5b60006002820490506001821680611f2657607f821691505b60208210811415611f3a57611f39611edf565b5b50919050565b7f4e6f742065787069726174696f6e20657874656e646572000000000000000000600082015250565b6000611f76601783611bc7565b9150611f8182611f40565b602082019050919050565b60006020820190508181036000830152611fa581611f69565b9050919050565b7f73657474657220697320696e646566696e6974652077686974656c6973746572600082015250565b6000611fe2602083611bc7565b9150611fed82611fac565b602082019050919050565b6000602082019050818103600083015261201181611fd5565b9050919050565b60008160601b9050919050565b600061203082612018565b9050919050565b600061204282612025565b9050919050565b61205a61205582611942565b612037565b82525050565b6000819050919050565b61207b612076826119af565b612060565b82525050565b600061208d8285612049565b60148201915061209d828461206a565b6020820191508190509392505050565b60006040820190506120c26000830185611ca4565b6120cf6020830184611954565b9392505050565b6000815190506120e581611a82565b92915050565b6000602082840312156121015761210061197e565b5b600061210f848285016120d6565b91505092915050565b600060608201905061212d6000830186611ca4565b61213a6020830185611a58565b6121476040830184611dcf565b949350505050565b6000819050919050565b6000819050919050565b600061217e61217961217484611b15565b612159565b61214f565b9050919050565b61218e81612163565b82525050565b60006040820190506121a96000830185611ca4565b6121b66020830184612185565b9392505050565b600081905092915050565b60006121d382611bbc565b6121dd81856121bd565b93506121ed818560208601611bd8565b80840191505092915050565b600061220582846121c8565b915081905092915050565b60006060820190506122256000830186611ca4565b6122326020830185611954565b61223f6040830184611dcf565b949350505050565b7f4e487b7100000000000000000000000000000000000000000000000000000000600052601160045260246000fd5b600061228182611dab565b915077ffffffffffffffffffffffffffffffffffffffffffffffff8214156122ac576122ab612247565b5b600182019050919050565b60006122c282611dab565b915060008214156122d6576122d5612247565b5b600182039050919050565b60006122ed8284612049565b60148201915081905092915050565b6000612308828561206a565b602082019150612318828461206a565b6020820191508190509392505050565b7f446f6573206e6f7420657874656e642065787069726174696f6e000000000000600082015250565b600061235e601a83611bc7565b915061236982612328565b602082019050919050565b6000602082019050818103600083015261238d81612351565b905091905056fea2646970667358221220fe9f41c26830ae92242e2ace88c1a7f891f3f32afb03d9e6369ea6a6d65323e464736f6c63430008090033",
  "devdoc": {
    "kind": "dev",
    "methods": {
      "airnodeToEndpointIdToRequesterToSetterToIndefiniteWhitelistStatus(address,bytes32,address,address)": {
        "params": {
          "airnode": "Airnode address",
          "endpointId": "Endpoint ID",
          "requester": "Requester address",
          "setter": "Address of the account that has potentially whitelisted `requester` for the `airnode``endpointId` pair indefinitely"
        },
        "returns": {
          "indefiniteWhitelistStatus": "If `setter` has indefinitely whitelisted `requester` for the `airnode``endpointId` pair"
        }
      },
      "airnodeToEndpointIdToRequesterToWhitelistStatus(address,bytes32,address)": {
        "params": {
          "airnode": "Airnode address",
          "endpointId": "Endpoint ID",
          "requester": "Requester address"
        },
        "returns": {
          "expirationTimestamp": "Timestamp at which the temporary whitelist will expire",
          "indefiniteWhitelistCount": "Number of times `requester` was whitelisted indefinitely for the `airnode``endpointId` pair"
        }
      },
      "constructor": {
        "params": {
          "_accessControlRegistry": "AccessControlRegistry contract address",
          "_adminRoleDescription": "Admin role description"
        }
      },
      "deriveAdminRole(address)": {
        "params": {
          "airnode": "Airnode address"
        },
        "returns": {
          "adminRole": "Admin role"
        }
      },
      "deriveIndefiniteWhitelisterRole(address)": {
        "params": {
          "airnode": "Airnode address"
        },
        "returns": {
          "indefiniteWhitelisterRole": "Indefinite whitelister role"
        }
      },
      "deriveWhitelistExpirationExtenderRole(address)": {
        "params": {
          "airnode": "Airnode address"
        },
        "returns": {
          "whitelistExpirationExtenderRole": "Whitelist expiration extender role"
        }
      },
      "deriveWhitelistExpirationSetterRole(address)": {
        "params": {
          "airnode": "Airnode address"
        },
        "returns": {
          "whitelistExpirationSetterRole": "Whitelist expiration setter role"
        }
      },
      "extendWhitelistExpiration(address,bytes32,address,uint64)": {
        "params": {
          "airnode": "Airnode address",
          "endpointId": "Endpoint ID",
          "expirationTimestamp": "Timestamp at which the temporary whitelist will expire",
          "requester": "Requester address"
        }
      },
      "isAuthorized(bytes32,address,bytes32,address,address)": {
        "details": "This method has redundant arguments because all authorizer contracts have to have the same interface and potential authorizer contracts may require to access the arguments that are redundant here",
        "params": {
          "airnode": "Airnode address",
          "endpointId": "Endpoint ID",
          "requestId": "Request ID",
          "requester": "Requester address",
          "sponsor": "Sponsor address"
        },
        "returns": {
          "_0": "Authorization status of the request"
        }
      },
      "requesterIsWhitelisted(address,bytes32,address)": {
        "params": {
          "airnode": "Airnode address",
          "endpointId": "Endpoint ID",
          "requester": "Requester address"
        },
        "returns": {
          "isWhitelisted": "If `requester` is whitelisted for the `airnode``endpointId` pair"
        }
      },
      "revokeIndefiniteWhitelistStatus(address,bytes32,address,address)": {
        "params": {
          "airnode": "Airnode address",
          "endpointId": "Endpoint ID",
          "requester": "Requester address",
          "setter": "Setter of the indefinite whitelist status"
        }
      },
      "setIndefiniteWhitelistStatus(address,bytes32,address,bool)": {
        "params": {
          "airnode": "Airnode address",
          "endpointId": "Endpoint ID",
          "requester": "Requester address",
          "status": "Indefinite whitelist status"
        }
      },
      "setWhitelistExpiration(address,bytes32,address,uint64)": {
        "details": "Unlike `extendWhitelistExpiration()`, this can hasten expiration",
        "params": {
          "airnode": "Airnode address",
          "endpointId": "Endpoint ID",
          "expirationTimestamp": "Timestamp at which the temporary whitelist will expire",
          "requester": "Requester address"
        }
      }
    },
    "title": "Authorizer contract that Airnodes can use to temporarily or indefinitely whitelist requesters for Airnodeendpoint pairs",
    "version": 1
  },
  "userdoc": {
    "kind": "user",
    "methods": {
      "accessControlRegistry()": {
        "notice": "Address of the AccessControlRegistry contract that keeps the roles"
      },
      "airnodeToEndpointIdToRequesterToSetterToIndefiniteWhitelistStatus(address,bytes32,address,address)": {
        "notice": "Returns if an account has indefinitely whitelisted `requester` for the `airnode``endpointId` pair"
      },
      "airnodeToEndpointIdToRequesterToWhitelistStatus(address,bytes32,address)": {
        "notice": "Returns the whitelist status of `requester` for the `airnode``endpointId` pair"
      },
      "deriveAdminRole(address)": {
        "notice": "Derives the admin role for the specific Airnode address"
      },
      "deriveIndefiniteWhitelisterRole(address)": {
        "notice": "Derives the indefinite whitelister role for the specific Airnode address"
      },
      "deriveWhitelistExpirationExtenderRole(address)": {
        "notice": "Derives the whitelist expiration extender role for the specific Airnode address"
      },
      "deriveWhitelistExpirationSetterRole(address)": {
        "notice": "Derives the whitelist expiration setter role for the specific Airnode address"
      },
      "extendWhitelistExpiration(address,bytes32,address,uint64)": {
        "notice": "Extends the expiration of the temporary whitelist of `requester` for the `airnode``endpointId` pair if the sender has the whitelist expiration extender role"
      },
      "isAuthorized(bytes32,address,bytes32,address,address)": {
        "notice": "Verifies the authorization status of a request"
      },
      "requesterIsWhitelisted(address,bytes32,address)": {
        "notice": "Returns if `requester` is whitelisted for the `airnode``endpointId` pair"
      },
      "revokeIndefiniteWhitelistStatus(address,bytes32,address,address)": {
        "notice": "Revokes the indefinite whitelist status granted by a specific account that no longer has the indefinite whitelister role"
      },
      "setIndefiniteWhitelistStatus(address,bytes32,address,bool)": {
        "notice": "Sets the indefinite whitelist status of `requester` for the `airnode``endpointId` pair if the sender has the indefinite whitelister role"
      },
      "setWhitelistExpiration(address,bytes32,address,uint64)": {
        "notice": "Sets the expiration of the temporary whitelist of `requester` for the `airnode``endpointId` pair if the sender has the whitelist expiration setter role"
      }
    },
    "version": 1
  },
  "storageLayout": {
    "storage": [
      {
        "astId": 5019,
        "contract": "contracts/authorizers/RequesterAuthorizerWithAirnode.sol:RequesterAuthorizerWithAirnode",
        "label": "adminRoleDescription",
        "offset": 0,
        "slot": "0",
        "type": "t_string_storage"
      },
      {
        "astId": 5033,
        "contract": "contracts/authorizers/RequesterAuthorizerWithAirnode.sol:RequesterAuthorizerWithAirnode",
        "label": "adminRoleDescriptionHash",
        "offset": 0,
        "slot": "1",
        "type": "t_bytes32"
      },
      {
        "astId": 4759,
        "contract": "contracts/authorizers/RequesterAuthorizerWithAirnode.sol:RequesterAuthorizerWithAirnode",
        "label": "serviceIdToUserToWhitelistStatus",
        "offset": 0,
        "slot": "2",
        "type": "t_mapping(t_bytes32,t_mapping(t_address,t_struct(WhitelistStatus)4752_storage))"
      },
      {
        "astId": 4767,
        "contract": "contracts/authorizers/RequesterAuthorizerWithAirnode.sol:RequesterAuthorizerWithAirnode",
        "label": "serviceIdToUserToSetterToIndefiniteWhitelistStatus",
        "offset": 0,
        "slot": "3",
        "type": "t_mapping(t_bytes32,t_mapping(t_address,t_mapping(t_address,t_bool)))"
      }
    ],
    "types": {
      "t_address": {
        "encoding": "inplace",
        "label": "address",
        "numberOfBytes": "20"
      },
      "t_bool": {
        "encoding": "inplace",
        "label": "bool",
        "numberOfBytes": "1"
      },
      "t_bytes32": {
        "encoding": "inplace",
        "label": "bytes32",
        "numberOfBytes": "32"
      },
      "t_mapping(t_address,t_bool)": {
        "encoding": "mapping",
        "key": "t_address",
        "label": "mapping(address => bool)",
        "numberOfBytes": "32",
        "value": "t_bool"
      },
      "t_mapping(t_address,t_mapping(t_address,t_bool))": {
        "encoding": "mapping",
        "key": "t_address",
        "label": "mapping(address => mapping(address => bool))",
        "numberOfBytes": "32",
        "value": "t_mapping(t_address,t_bool)"
      },
      "t_mapping(t_address,t_struct(WhitelistStatus)4752_storage)": {
        "encoding": "mapping",
        "key": "t_address",
        "label": "mapping(address => struct Whitelist.WhitelistStatus)",
        "numberOfBytes": "32",
        "value": "t_struct(WhitelistStatus)4752_storage"
      },
      "t_mapping(t_bytes32,t_mapping(t_address,t_mapping(t_address,t_bool)))": {
        "encoding": "mapping",
        "key": "t_bytes32",
        "label": "mapping(bytes32 => mapping(address => mapping(address => bool)))",
        "numberOfBytes": "32",
        "value": "t_mapping(t_address,t_mapping(t_address,t_bool))"
      },
      "t_mapping(t_bytes32,t_mapping(t_address,t_struct(WhitelistStatus)4752_storage))": {
        "encoding": "mapping",
        "key": "t_bytes32",
        "label": "mapping(bytes32 => mapping(address => struct Whitelist.WhitelistStatus))",
        "numberOfBytes": "32",
        "value": "t_mapping(t_address,t_struct(WhitelistStatus)4752_storage)"
      },
      "t_string_storage": {
        "encoding": "bytes",
        "label": "string",
        "numberOfBytes": "32"
      },
      "t_struct(WhitelistStatus)4752_storage": {
        "encoding": "inplace",
        "label": "struct Whitelist.WhitelistStatus",
        "members": [
          {
            "astId": 4749,
            "contract": "contracts/authorizers/RequesterAuthorizerWithAirnode.sol:RequesterAuthorizerWithAirnode",
            "label": "expirationTimestamp",
            "offset": 0,
            "slot": "0",
            "type": "t_uint64"
          },
          {
            "astId": 4751,
            "contract": "contracts/authorizers/RequesterAuthorizerWithAirnode.sol:RequesterAuthorizerWithAirnode",
            "label": "indefiniteWhitelistCount",
            "offset": 8,
            "slot": "0",
            "type": "t_uint192"
          }
        ],
        "numberOfBytes": "32"
      },
      "t_uint192": {
        "encoding": "inplace",
        "label": "uint192",
        "numberOfBytes": "24"
      },
      "t_uint64": {
        "encoding": "inplace",
        "label": "uint64",
        "numberOfBytes": "8"
      }
    }
  }
}