{
  "address": "0x1d4F592E0723e03bed2Ff6d78F3CEe6750f08B38",
  "abi": [
    {
      "inputs": [
        {
          "internalType": "address",
          "name": "_accessControlRegistry",
          "type": "address"
        },
        {
          "internalType": "string",
          "name": "_adminRoleDescription",
          "type": "string"
        }
      ],
      "stateMutability": "nonpayable",
      "type": "constructor"
    },
    {
      "anonymous": false,
      "inputs": [
        {
          "indexed": true,
          "internalType": "address",
          "name": "airnode",
          "type": "address"
        },
        {
          "indexed": false,
          "internalType": "bytes32",
          "name": "endpointId",
          "type": "bytes32"
        },
        {
          "indexed": true,
          "internalType": "address",
          "name": "requester",
          "type": "address"
        },
        {
          "indexed": true,
          "internalType": "address",
          "name": "sender",
          "type": "address"
        },
        {
          "indexed": false,
          "internalType": "uint256",
          "name": "expiration",
          "type": "uint256"
        }
      ],
      "name": "ExtendedWhitelistExpiration",
      "type": "event"
    },
    {
      "anonymous": false,
      "inputs": [
        {
          "indexed": true,
          "internalType": "address",
          "name": "airnode",
          "type": "address"
        },
        {
          "indexed": false,
          "internalType": "bytes32",
          "name": "endpointId",
          "type": "bytes32"
        },
        {
          "indexed": true,
          "internalType": "address",
          "name": "requester",
          "type": "address"
        },
        {
          "indexed": true,
          "internalType": "address",
          "name": "setter",
          "type": "address"
        },
        {
          "indexed": false,
          "internalType": "address",
          "name": "sender",
          "type": "address"
        },
        {
          "indexed": false,
          "internalType": "uint192",
          "name": "indefiniteWhitelistCount",
          "type": "uint192"
        }
      ],
      "name": "RevokedIndefiniteWhitelistStatus",
      "type": "event"
    },
    {
      "anonymous": false,
      "inputs": [
        {
          "indexed": true,
          "internalType": "address",
          "name": "airnode",
          "type": "address"
        },
        {
          "indexed": false,
          "internalType": "bytes32",
          "name": "endpointId",
          "type": "bytes32"
        },
        {
          "indexed": true,
          "internalType": "address",
          "name": "requester",
          "type": "address"
        },
        {
          "indexed": true,
          "internalType": "address",
          "name": "sender",
          "type": "address"
        },
        {
          "indexed": false,
          "internalType": "bool",
          "name": "status",
          "type": "bool"
        },
        {
          "indexed": false,
          "internalType": "uint192",
          "name": "indefiniteWhitelistCount",
          "type": "uint192"
        }
      ],
      "name": "SetIndefiniteWhitelistStatus",
      "type": "event"
    },
    {
      "anonymous": false,
      "inputs": [
        {
          "indexed": true,
          "internalType": "address",
          "name": "airnode",
          "type": "address"
        },
        {
          "indexed": false,
          "internalType": "bytes32",
          "name": "endpointId",
          "type": "bytes32"
        },
        {
          "indexed": true,
          "internalType": "address",
          "name": "requester",
          "type": "address"
        },
        {
          "indexed": true,
          "internalType": "address",
          "name": "sender",
          "type": "address"
        },
        {
          "indexed": false,
          "internalType": "uint256",
          "name": "expiration",
          "type": "uint256"
        }
      ],
      "name": "SetWhitelistExpiration",
      "type": "event"
    },
    {
      "inputs": [],
      "name": "INDEFINITE_WHITELISTER_ROLE_DESCRIPTION",
      "outputs": [
        {
          "internalType": "string",
          "name": "",
          "type": "string"
        }
      ],
      "stateMutability": "view",
      "type": "function"
    },
    {
      "inputs": [],
      "name": "WHITELIST_EXPIRATION_EXTENDER_ROLE_DESCRIPTION",
      "outputs": [
        {
          "internalType": "string",
          "name": "",
          "type": "string"
        }
      ],
      "stateMutability": "view",
      "type": "function"
    },
    {
      "inputs": [],
      "name": "WHITELIST_EXPIRATION_SETTER_ROLE_DESCRIPTION",
      "outputs": [
        {
          "internalType": "string",
          "name": "",
          "type": "string"
        }
      ],
      "stateMutability": "view",
      "type": "function"
    },
    {
      "inputs": [],
      "name": "accessControlRegistry",
      "outputs": [
        {
          "internalType": "address",
          "name": "",
          "type": "address"
        }
      ],
      "stateMutability": "view",
      "type": "function"
    },
    {
      "inputs": [],
      "name": "adminRoleDescription",
      "outputs": [
        {
          "internalType": "string",
          "name": "",
          "type": "string"
        }
      ],
      "stateMutability": "view",
      "type": "function"
    },
    {
      "inputs": [
        {
          "internalType": "address",
          "name": "airnode",
          "type": "address"
        },
        {
          "internalType": "bytes32",
          "name": "endpointId",
          "type": "bytes32"
        },
        {
          "internalType": "address",
          "name": "requester",
          "type": "address"
        },
        {
          "internalType": "address",
          "name": "setter",
          "type": "address"
        }
      ],
      "name": "airnodeToEndpointIdToRequesterToSetterToIndefiniteWhitelistStatus",
      "outputs": [
        {
          "internalType": "bool",
          "name": "indefiniteWhitelistStatus",
          "type": "bool"
        }
      ],
      "stateMutability": "view",
      "type": "function"
    },
    {
      "inputs": [
        {
          "internalType": "address",
          "name": "airnode",
          "type": "address"
        },
        {
          "internalType": "bytes32",
          "name": "endpointId",
          "type": "bytes32"
        },
        {
          "internalType": "address",
          "name": "requester",
          "type": "address"
        }
      ],
      "name": "airnodeToEndpointIdToRequesterToWhitelistStatus",
      "outputs": [
        {
          "internalType": "uint64",
          "name": "expirationTimestamp",
          "type": "uint64"
        },
        {
          "internalType": "uint192",
          "name": "indefiniteWhitelistCount",
          "type": "uint192"
        }
      ],
      "stateMutability": "view",
      "type": "function"
    },
    {
      "inputs": [
        {
          "internalType": "address",
          "name": "airnode",
          "type": "address"
        }
      ],
      "name": "deriveAdminRole",
      "outputs": [
        {
          "internalType": "bytes32",
          "name": "adminRole",
          "type": "bytes32"
        }
      ],
      "stateMutability": "view",
      "type": "function"
    },
    {
      "inputs": [
        {
          "internalType": "address",
          "name": "airnode",
          "type": "address"
        }
      ],
      "name": "deriveIndefiniteWhitelisterRole",
      "outputs": [
        {
          "internalType": "bytes32",
          "name": "indefiniteWhitelisterRole",
          "type": "bytes32"
        }
      ],
      "stateMutability": "view",
      "type": "function"
    },
    {
      "inputs": [
        {
          "internalType": "address",
          "name": "airnode",
          "type": "address"
        }
      ],
      "name": "deriveWhitelistExpirationExtenderRole",
      "outputs": [
        {
          "internalType": "bytes32",
          "name": "whitelistExpirationExtenderRole",
          "type": "bytes32"
        }
      ],
      "stateMutability": "view",
      "type": "function"
    },
    {
      "inputs": [
        {
          "internalType": "address",
          "name": "airnode",
          "type": "address"
        }
      ],
      "name": "deriveWhitelistExpirationSetterRole",
      "outputs": [
        {
          "internalType": "bytes32",
          "name": "whitelistExpirationSetterRole",
          "type": "bytes32"
        }
      ],
      "stateMutability": "view",
      "type": "function"
    },
    {
      "inputs": [
        {
          "internalType": "address",
          "name": "airnode",
          "type": "address"
        },
        {
          "internalType": "bytes32",
          "name": "endpointId",
          "type": "bytes32"
        },
        {
          "internalType": "address",
          "name": "requester",
          "type": "address"
        },
        {
          "internalType": "uint64",
          "name": "expirationTimestamp",
          "type": "uint64"
        }
      ],
      "name": "extendWhitelistExpiration",
      "outputs": [],
      "stateMutability": "nonpayable",
      "type": "function"
    },
    {
      "inputs": [
        {
          "internalType": "address",
          "name": "airnode",
          "type": "address"
        },
        {
          "internalType": "bytes32",
          "name": "endpointId",
          "type": "bytes32"
        },
        {
          "internalType": "address",
          "name": "requester",
          "type": "address"
        }
      ],
      "name": "isAuthorized",
      "outputs": [
        {
          "internalType": "bool",
          "name": "",
          "type": "bool"
        }
      ],
      "stateMutability": "view",
      "type": "function"
    },
    {
      "inputs": [
        {
          "internalType": "bytes32",
          "name": "requestId",
          "type": "bytes32"
        },
        {
          "internalType": "address",
          "name": "airnode",
          "type": "address"
        },
        {
          "internalType": "bytes32",
          "name": "endpointId",
          "type": "bytes32"
        },
        {
          "internalType": "address",
          "name": "sponsor",
          "type": "address"
        },
        {
          "internalType": "address",
          "name": "requester",
          "type": "address"
        }
      ],
      "name": "isAuthorizedV0",
      "outputs": [
        {
          "internalType": "bool",
          "name": "",
          "type": "bool"
        }
      ],
      "stateMutability": "view",
      "type": "function"
    },
    {
      "inputs": [
        {
          "internalType": "bytes[]",
          "name": "data",
          "type": "bytes[]"
        }
      ],
      "name": "multicall",
      "outputs": [
        {
          "internalType": "bytes[]",
          "name": "results",
          "type": "bytes[]"
        }
      ],
      "stateMutability": "nonpayable",
      "type": "function"
    },
    {
      "inputs": [
        {
          "internalType": "address",
          "name": "airnode",
          "type": "address"
        },
        {
          "internalType": "bytes32",
          "name": "endpointId",
          "type": "bytes32"
        },
        {
          "internalType": "address",
          "name": "requester",
          "type": "address"
        },
        {
          "internalType": "address",
          "name": "setter",
          "type": "address"
        }
      ],
      "name": "revokeIndefiniteWhitelistStatus",
      "outputs": [],
      "stateMutability": "nonpayable",
      "type": "function"
    },
    {
      "inputs": [
        {
          "internalType": "address",
          "name": "airnode",
          "type": "address"
        },
        {
          "internalType": "bytes32",
          "name": "endpointId",
          "type": "bytes32"
        },
        {
          "internalType": "address",
          "name": "requester",
          "type": "address"
        },
        {
          "internalType": "bool",
          "name": "status",
          "type": "bool"
        }
      ],
      "name": "setIndefiniteWhitelistStatus",
      "outputs": [],
      "stateMutability": "nonpayable",
      "type": "function"
    },
    {
      "inputs": [
        {
          "internalType": "address",
          "name": "airnode",
          "type": "address"
        },
        {
          "internalType": "bytes32",
          "name": "endpointId",
          "type": "bytes32"
        },
        {
          "internalType": "address",
          "name": "requester",
          "type": "address"
        },
        {
          "internalType": "uint64",
          "name": "expirationTimestamp",
          "type": "uint64"
        }
      ],
      "name": "setWhitelistExpiration",
      "outputs": [],
      "stateMutability": "nonpayable",
      "type": "function"
    }
  ],
  "transactionHash": "0xd5f5e61a93f81b617ab9472c3d022a8d23d0042691a3f03932ecc84a426ba686",
  "args": [
    "0xb3070A0F2f84765Ee19EfADf91dfE50690a9eEa1",
    "RequesterAuthorizerWithAirnode admin"
  ],
  "numDeployments": 2,
  "solcInputHash": "0ab40609a497e05bef785ddb4724b7a0",
  "bytecode": "0x60c06040523480156200001157600080fd5b5060405162001d8938038062001d89833981016040819052620000349162000224565b81818181816001600160a01b038116620000885760405162461bcd60e51b815260206004820152601060248201526f4143522061646472657373207a65726f60801b60448201526064015b60405180910390fd5b6001600160a01b03166080528051620000e45760405162461bcd60e51b815260206004820152601c60248201527f41646d696e20726f6c65206465736372697074696f6e20656d7074790000000060448201526064016200007f565b8051620000f990600090602084019062000135565b50806040516020016200010d9190620002ff565b60408051601f19818403018152919052805160209091012060a052506200035a945050505050565b82805462000143906200031d565b90600052602060002090601f016020900481019282620001675760008555620001b2565b82601f106200018257805160ff1916838001178555620001b2565b82800160010185558215620001b2579182015b82811115620001b257825182559160200191906001019062000195565b50620001c0929150620001c4565b5090565b5b80821115620001c05760008155600101620001c5565b634e487b7160e01b600052604160045260246000fd5b60005b838110156200020e578181015183820152602001620001f4565b838111156200021e576000848401525b50505050565b600080604083850312156200023857600080fd5b82516001600160a01b03811681146200025057600080fd5b60208401519092506001600160401b03808211156200026e57600080fd5b818501915085601f8301126200028357600080fd5b815181811115620002985762000298620001db565b604051601f8201601f19908116603f01168101908382118183101715620002c357620002c3620001db565b81604052828152886020848701011115620002dd57600080fd5b620002f0836020830160208801620001f1565b80955050505050509250929050565b6000825162000313818460208701620001f1565b9190910192915050565b600181811c908216806200033257607f821691505b602082108114156200035457634e487b7160e01b600052602260045260246000fd5b50919050565b60805160a0516119f4620003956000396000610d620152600081816101400152818161097801528181610b980152610dbd01526119f46000f3fe608060405234801561001057600080fd5b50600436106101365760003560e01c80636db798f9116100b25780639caa101b11610081578063b6316d8811610066578063b6316d8814610332578063d55a42dd14610345578063f57a044a1461038157600080fd5b80639caa101b146102ff578063ac9650d81461031257600080fd5b80636db798f91461026257806373c0627e1461029e5780637e766bc1146102b157806382d229e3146102c457600080fd5b80634751c2e2116101095780634cffd606116100ee5780634cffd606146101f257806352300976146102135780636bd2bdd01461022657600080fd5b80634751c2e2146101ca5780634c8f1d8d146101dd57600080fd5b80631ce9ae071461013b578063216de27e1461017f57806329b915b3146101a257806343b64962146101b5575b600080fd5b6101627f000000000000000000000000000000000000000000000000000000000000000081565b6040516001600160a01b0390911681526020015b60405180910390f35b61019261018d366004611540565b610394565b6040519015158152602001610176565b6101926101b036600461158d565b6103e1565b6101c86101c33660046115f5565b610400565b005b6101c86101d8366004611644565b61046d565b6101e56104cf565b60405161017691906116ed565b610205610200366004611700565b61055d565b604051908152602001610176565b610205610221366004611700565b61056e565b6101e56040518060400160405280601b81526020017f57686974656c6973742065787069726174696f6e20736574746572000000000081525081565b6101e56040518060400160405280601d81526020017f57686974656c6973742065787069726174696f6e20657874656e64657200000081525081565b6101c86102ac366004611644565b6105dd565b6101c86102bf366004611540565b61063f565b6102d76102d236600461171b565b6106a2565b6040805167ffffffffffffffff90931683526001600160c01b03909116602083015201610176565b61020561030d366004611700565b610706565b610325610320366004611757565b61075a565b60405161017691906117cc565b610205610340366004611700565b61084f565b6101e56040518060400160405280601681526020017f496e646566696e6974652077686974656c69737465720000000000000000000081525081565b61019261038f36600461171b565b6108a3565b6000600260006103a487876108bc565b8152602080820192909252604090810160009081206001600160a01b03968716825283528181209490951685529290525090205460ff1692915050565b60006103f66103f086866108bc565b83610904565b9695505050505050565b61040a8433610959565b61045b5760405162461bcd60e51b815260206004820152601c60248201527f43616e6e6f742073657420696e646566696e697465207374617475730000000060448201526064015b60405180910390fd5b61046784848484610a44565b50505050565b6104778433610b79565b6104c35760405162461bcd60e51b815260206004820152601560248201527f43616e6e6f74207365742065787069726174696f6e00000000000000000000006044820152606401610452565b61046784848484610bce565b600080546104dc9061182e565b80601f01602080910402602001604051908101604052809291908181526020018280546105089061182e565b80156105555780601f1061052a57610100808354040283529160200191610555565b820191906000526020600020905b81548152906001019060200180831161053857829003601f168201915b505050505081565b600061056882610d18565b92915050565b600061056861057c83610d18565b6040518060400160405280601d81526020017f57686974656c6973742065787069726174696f6e20657874656e6465720000008152506040516020016105c29190611869565b60405160208183030381529060405280519060200120610d82565b6105e78433610d9e565b6106335760405162461bcd60e51b815260206004820152601860248201527f43616e6e6f7420657874656e642065787069726174696f6e00000000000000006044820152606401610452565b61046784848484610df3565b6106498482610959565b156106965760405162461bcd60e51b815260206004820181905260248201527f7365747465722063616e2073657420696e646566696e697465207374617475736044820152606401610452565b61046784848484610efb565b6000806000600160006106b588886108bc565b8152602080820192909252604090810160009081206001600160a01b03979097168152959091529093205467ffffffffffffffff811696600160401b9091046001600160c01b031695509350505050565b600061056861071483610d18565b6040518060400160405280601681526020017f496e646566696e6974652077686974656c6973746572000000000000000000008152506040516020016105c29190611869565b60608167ffffffffffffffff81111561077557610775611885565b6040519080825280602002602001820160405280156107a857816020015b60608152602001906001900390816107935790505b50905060005b8281101561084857610818308585848181106107cc576107cc61189b565b90506020028101906107de91906118b1565b8080601f01602080910402602001604051908101604052809392919081815260200183838082843760009201919091525061107992505050565b82828151811061082a5761082a61189b565b6020026020010181905250808061084090611915565b9150506107ae565b5092915050565b600061056861085d83610d18565b6040518060400160405280601b81526020017f57686974656c6973742065787069726174696f6e2073657474657200000000008152506040516020016105c29190611869565b60006108b26103f085856108bc565b90505b9392505050565b6040516bffffffffffffffffffffffff19606084901b166020820152603481018290526000906054015b60405160208183030381529060405280519060200120905092915050565b60008281526001602090815260408083206001600160a01b038516845290915281208054600160401b90046001600160c01b0316151580610951575080544267ffffffffffffffff909116115b949350505050565b6000816001600160a01b0316836001600160a01b031614806108b557507f00000000000000000000000000000000000000000000000000000000000000006001600160a01b03166391d148546109ae85610706565b6040517fffffffff0000000000000000000000000000000000000000000000000000000060e084901b16815260048101919091526001600160a01b038516602482015260440160206040518083038186803b158015610a0c57600080fd5b505afa158015610a20573d6000803e3d6000fd5b505050506040513d601f19601f820116820180604052508101906108b59190611930565b6001600160a01b038416610a915760405162461bcd60e51b81526020600482015260146024820152734169726e6f64652061646472657373207a65726f60601b6044820152606401610452565b6001600160a01b038216610ae75760405162461bcd60e51b815260206004820152601660248201527f5265717565737465722061646472657373207a65726f000000000000000000006044820152606401610452565b6000610afd610af686866108bc565b848461109e565b9050336001600160a01b0316836001600160a01b0316866001600160a01b03167f13d4d6afcb6d196f753a522f275673066719bb13944bd021efd1fca4286df20d878686604051610b6a9392919092835290151560208301526001600160c01b0316604082015260600190565b60405180910390a45050505050565b6000816001600160a01b0316836001600160a01b031614806108b557507f00000000000000000000000000000000000000000000000000000000000000006001600160a01b03166391d148546109ae8561084f565b6001600160a01b038416610c1b5760405162461bcd60e51b81526020600482015260146024820152734169726e6f64652061646472657373207a65726f60601b6044820152606401610452565b6001600160a01b038216610c715760405162461bcd60e51b815260206004820152601660248201527f5265717565737465722061646472657373207a65726f000000000000000000006044820152606401610452565b610cbd610c7e85856108bc565b60009081526001602090815260408083206001600160a01b03871684529091529020805467ffffffffffffffff191667ffffffffffffffff8416179055565b6040805184815267ffffffffffffffff8316602082015233916001600160a01b0385811692908816917f375ee45428e158031095010484fd6451af89c501c79d75e390da4e91eb480ce191015b60405180910390a450505050565b6000610568610d60836040516bffffffffffffffffffffffff19606083901b166020820152600090603401604051602081830303815290604052805190602001209050919050565b7f00000000000000000000000000000000000000000000000000000000000000005b60408051602081018490529081018290526000906060016108e6565b6000816001600160a01b0316836001600160a01b031614806108b557507f00000000000000000000000000000000000000000000000000000000000000006001600160a01b03166391d148546109ae8561056e565b6001600160a01b038416610e405760405162461bcd60e51b81526020600482015260146024820152734169726e6f64652061646472657373207a65726f60601b6044820152606401610452565b6001600160a01b038216610e965760405162461bcd60e51b815260206004820152601660248201527f5265717565737465722061646472657373207a65726f000000000000000000006044820152606401610452565b610eaa610ea385856108bc565b83836112a2565b6040805184815267ffffffffffffffff8316602082015233916001600160a01b0385811692908816917ff9b174be67f83278d4516865d1b9ba4576b73e523ea0c2f124ea29152bb1b6769101610d0a565b6001600160a01b038416610f485760405162461bcd60e51b81526020600482015260146024820152734169726e6f64652061646472657373207a65726f60601b6044820152606401610452565b6001600160a01b038216610f9e5760405162461bcd60e51b815260206004820152601660248201527f5265717565737465722061646472657373207a65726f000000000000000000006044820152606401610452565b6001600160a01b038116610ff45760405162461bcd60e51b815260206004820152601360248201527f5365747465722061646472657373207a65726f000000000000000000000000006044820152606401610452565b60008061100b61100487876108bc565b8585611321565b91509150811561107157604080518681523360208201526001600160c01b0383168183015290516001600160a01b038581169287821692918a16917fdca622020d204c36e9588e7be4184758283d992606ab73318776824b44e2859d9181900360600190a45b505050505050565b60606108b583836040518060600160405280602781526020016119986027913961140f565b60008381526001602090815260408083206001600160a01b0386168452909152902054600160401b90046001600160c01b0316818015611109575060008481526002602090815260408083206001600160a01b0387168452825280832033845290915290205460ff16155b156111975760008481526002602090815260408083206001600160a01b038716845282528083203384529091529020805460ff191660011790558061114d8161194d565b60008681526001602090815260408083206001600160a01b03891684529091529020805467ffffffffffffffff16600160401b6001600160c01b0384160217905591506108b59050565b811580156111cf575060008481526002602090815260408083206001600160a01b0387168452825280832033845290915290205460ff165b156108b55760008481526002602090815260408083206001600160a01b038716845282528083203384529091529020805460ff191690558061121081611974565b60008681526001602090815260408083206001600160a01b0389168452909152902080546001600160c01b038316600160401b0267ffffffffffffffff9091161790559150509392505050565b60009283526001602090815260408085206001600160a01b039490941685529290529120805467ffffffffffffffff191667ffffffffffffffff909216919091179055565b60008381526001602090815260408083206001600160a01b038616845290915290205467ffffffffffffffff9081169082161161125d5760405162461bcd60e51b815260206004820152601a60248201527f446f6573206e6f7420657874656e642065787069726174696f6e0000000000006044820152606401610452565b60008381526001602090815260408083206001600160a01b0386811680865291845282852054888652600285528386209286529184528285209086168552909252822054600160401b9091046001600160c01b03169060ff16156114075760008581526002602090815260408083206001600160a01b03808916855290835281842090871684529091529020805460ff19169055806113bf81611974565b60008781526001602081815260408084206001600160a01b038b168552909152909120805467ffffffffffffffff16600160401b6001600160c01b0385160217905593509150505b935093915050565b6060833b6114855760405162461bcd60e51b815260206004820152602660248201527f416464726573733a2064656c65676174652063616c6c20746f206e6f6e2d636f60448201527f6e747261637400000000000000000000000000000000000000000000000000006064820152608401610452565b600080856001600160a01b0316856040516114a09190611869565b600060405180830381855af49150503d80600081146114db576040519150601f19603f3d011682016040523d82523d6000602084013e6114e0565b606091505b50915091506103f6828286606083156114fa5750816108b5565b82511561150a5782518084602001fd5b8160405162461bcd60e51b815260040161045291906116ed565b80356001600160a01b038116811461153b57600080fd5b919050565b6000806000806080858703121561155657600080fd5b61155f85611524565b93506020850135925061157460408601611524565b915061158260608601611524565b905092959194509250565b600080600080600060a086880312156115a557600080fd5b853594506115b560208701611524565b9350604086013592506115ca60608701611524565b91506115d860808701611524565b90509295509295909350565b80151581146115f257600080fd5b50565b6000806000806080858703121561160b57600080fd5b61161485611524565b93506020850135925061162960408601611524565b91506060850135611639816115e4565b939692955090935050565b6000806000806080858703121561165a57600080fd5b61166385611524565b93506020850135925061167860408601611524565b9150606085013567ffffffffffffffff8116811461163957600080fd5b60005b838110156116b0578181015183820152602001611698565b838111156104675750506000910152565b600081518084526116d9816020860160208601611695565b601f01601f19169290920160200192915050565b6020815260006108b560208301846116c1565b60006020828403121561171257600080fd5b6108b582611524565b60008060006060848603121561173057600080fd5b61173984611524565b92506020840135915061174e60408501611524565b90509250925092565b6000806020838503121561176a57600080fd5b823567ffffffffffffffff8082111561178257600080fd5b818501915085601f83011261179657600080fd5b8135818111156117a557600080fd5b8660208260051b85010111156117ba57600080fd5b60209290920196919550909350505050565b6000602080830181845280855180835260408601915060408160051b870101925083870160005b8281101561182157603f1988860301845261180f8583516116c1565b945092850192908501906001016117f3565b5092979650505050505050565b600181811c9082168061184257607f821691505b6020821081141561186357634e487b7160e01b600052602260045260246000fd5b50919050565b6000825161187b818460208701611695565b9190910192915050565b634e487b7160e01b600052604160045260246000fd5b634e487b7160e01b600052603260045260246000fd5b6000808335601e198436030181126118c857600080fd5b83018035915067ffffffffffffffff8211156118e357600080fd5b6020019150368190038213156118f857600080fd5b9250929050565b634e487b7160e01b600052601160045260246000fd5b6000600019821415611929576119296118ff565b5060010190565b60006020828403121561194257600080fd5b81516108b5816115e4565b60006001600160c01b038083168181141561196a5761196a6118ff565b6001019392505050565b60006001600160c01b0382168061198d5761198d6118ff565b600019019291505056fe416464726573733a206c6f772d6c6576656c2064656c65676174652063616c6c206661696c6564a264697066735822122054c83dd126c12b6928fd970d1f434b676ba73e23c3efdfdac1ccc90a37703ce164736f6c63430008090033",
  "devdoc": {
    "kind": "dev",
    "methods": {
      "airnodeToEndpointIdToRequesterToSetterToIndefiniteWhitelistStatus(address,bytes32,address,address)": {
        "params": {
          "airnode": "Airnode address",
          "endpointId": "Endpoint ID",
          "requester": "Requester address",
          "setter": "Address of the account that has potentially whitelisted `requester` for the `airnode``endpointId` pair indefinitely"
        },
        "returns": {
          "indefiniteWhitelistStatus": "If `setter` has indefinitely whitelisted `requester` for the `airnode``endpointId` pair"
        }
      },
      "airnodeToEndpointIdToRequesterToWhitelistStatus(address,bytes32,address)": {
        "params": {
          "airnode": "Airnode address",
          "endpointId": "Endpoint ID",
          "requester": "Requester address"
        },
        "returns": {
          "expirationTimestamp": "Timestamp at which the temporary whitelist will expire",
          "indefiniteWhitelistCount": "Number of times `requester` was whitelisted indefinitely for the `airnode``endpointId` pair"
        }
      },
      "constructor": {
        "params": {
          "_accessControlRegistry": "AccessControlRegistry contract address",
          "_adminRoleDescription": "Admin role description"
        }
      },
      "deriveAdminRole(address)": {
        "params": {
          "airnode": "Airnode address"
        },
        "returns": {
          "adminRole": "Admin role"
        }
      },
      "deriveIndefiniteWhitelisterRole(address)": {
        "params": {
          "airnode": "Airnode address"
        },
        "returns": {
          "indefiniteWhitelisterRole": "Indefinite whitelister role"
        }
      },
      "deriveWhitelistExpirationExtenderRole(address)": {
        "params": {
          "airnode": "Airnode address"
        },
        "returns": {
          "whitelistExpirationExtenderRole": "Whitelist expiration extender role"
        }
      },
      "deriveWhitelistExpirationSetterRole(address)": {
        "params": {
          "airnode": "Airnode address"
        },
        "returns": {
          "whitelistExpirationSetterRole": "Whitelist expiration setter role"
        }
      },
      "extendWhitelistExpiration(address,bytes32,address,uint64)": {
        "params": {
          "airnode": "Airnode address",
          "endpointId": "Endpoint ID",
          "expirationTimestamp": "Timestamp at which the temporary whitelist will expire",
          "requester": "Requester address"
        }
      },
      "isAuthorized(address,bytes32,address)": {
        "params": {
          "airnode": "Airnode address",
          "endpointId": "Endpoint ID",
          "requester": "Requester address"
        },
        "returns": {
          "_0": "Authorization status of the request"
        }
      },
      "isAuthorizedV0(bytes32,address,bytes32,address,address)": {
        "details": "This method has redundant arguments because V0 authorizer contracts have to have the same interface and potential authorizer contracts may require to access the arguments that are redundant here",
        "params": {
          "airnode": "Airnode address",
          "endpointId": "Endpoint ID",
          "requestId": "Request ID",
          "requester": "Requester address",
          "sponsor": "Sponsor address"
        },
        "returns": {
          "_0": "Authorization status of the request"
        }
      },
      "multicall(bytes[])": {
        "details": "Receives and executes a batch of function calls on this contract."
      },
      "revokeIndefiniteWhitelistStatus(address,bytes32,address,address)": {
        "params": {
          "airnode": "Airnode address",
          "endpointId": "Endpoint ID",
          "requester": "Requester address",
          "setter": "Setter of the indefinite whitelist status"
        }
      },
      "setIndefiniteWhitelistStatus(address,bytes32,address,bool)": {
        "params": {
          "airnode": "Airnode address",
          "endpointId": "Endpoint ID",
          "requester": "Requester address",
          "status": "Indefinite whitelist status"
        }
      },
      "setWhitelistExpiration(address,bytes32,address,uint64)": {
        "details": "Unlike `extendWhitelistExpiration()`, this can hasten expiration",
        "params": {
          "airnode": "Airnode address",
          "endpointId": "Endpoint ID",
          "expirationTimestamp": "Timestamp at which the temporary whitelist will expire",
          "requester": "Requester address"
        }
      }
    },
    "title": "Authorizer contract that Airnode operators can use to temporarily or indefinitely whitelist requesters for Airnodeendpoint pairs",
    "version": 1
  },
  "userdoc": {
    "kind": "user",
    "methods": {
      "INDEFINITE_WHITELISTER_ROLE_DESCRIPTION()": {
        "notice": "Indefinite whitelister role description"
      },
      "WHITELIST_EXPIRATION_EXTENDER_ROLE_DESCRIPTION()": {
        "notice": "Whitelist expiration extender role description"
      },
      "WHITELIST_EXPIRATION_SETTER_ROLE_DESCRIPTION()": {
        "notice": "Whitelist expiration setter role description"
      },
      "accessControlRegistry()": {
        "notice": "AccessControlRegistry contract address"
      },
      "adminRoleDescription()": {
        "notice": "Admin role description"
      },
      "airnodeToEndpointIdToRequesterToSetterToIndefiniteWhitelistStatus(address,bytes32,address,address)": {
        "notice": "Returns if an account has indefinitely whitelisted `requester` for the `airnode``endpointId` pair"
      },
      "airnodeToEndpointIdToRequesterToWhitelistStatus(address,bytes32,address)": {
        "notice": "Returns the whitelist status of `requester` for the `airnode``endpointId` pair"
      },
      "deriveAdminRole(address)": {
        "notice": "Derives the admin role for the Airnode"
      },
      "deriveIndefiniteWhitelisterRole(address)": {
        "notice": "Derives the indefinite whitelister role for the Airnode"
      },
      "deriveWhitelistExpirationExtenderRole(address)": {
        "notice": "Derives the whitelist expiration extender role for the Airnode"
      },
      "deriveWhitelistExpirationSetterRole(address)": {
        "notice": "Derives the whitelist expiration setter role for the Airnode"
      },
      "extendWhitelistExpiration(address,bytes32,address,uint64)": {
        "notice": "Extends the expiration of the temporary whitelist of `requester` for the `airnode``endpointId` pair if the sender has the whitelist expiration extender role"
      },
      "isAuthorized(address,bytes32,address)": {
        "notice": "Verifies the authorization status of a request"
      },
      "isAuthorizedV0(bytes32,address,bytes32,address,address)": {
        "notice": "Verifies the authorization status of a request"
      },
      "revokeIndefiniteWhitelistStatus(address,bytes32,address,address)": {
        "notice": "Revokes the indefinite whitelist status granted by a specific account that no longer has the indefinite whitelister role"
      },
      "setIndefiniteWhitelistStatus(address,bytes32,address,bool)": {
        "notice": "Sets the indefinite whitelist status of `requester` for the `airnode``endpointId` pair if the sender has the indefinite whitelister role"
      },
      "setWhitelistExpiration(address,bytes32,address,uint64)": {
        "notice": "Sets the expiration of the temporary whitelist of `requester` for the `airnode``endpointId` pair if the sender has the whitelist expiration setter role"
      }
    },
    "version": 1
  },
  "storageLayout": {
    "storage": [
      {
        "astId": 1697,
        "contract": "contracts/authorizers/RequesterAuthorizerWithAirnode.sol:RequesterAuthorizerWithAirnode",
        "label": "adminRoleDescription",
        "offset": 0,
        "slot": "0",
        "type": "t_string_storage"
      },
      {
        "astId": 4995,
        "contract": "contracts/authorizers/RequesterAuthorizerWithAirnode.sol:RequesterAuthorizerWithAirnode",
        "label": "serviceIdToUserToWhitelistStatus",
        "offset": 0,
        "slot": "1",
        "type": "t_mapping(t_bytes32,t_mapping(t_address,t_struct(WhitelistStatus)4988_storage))"
      },
      {
        "astId": 5003,
        "contract": "contracts/authorizers/RequesterAuthorizerWithAirnode.sol:RequesterAuthorizerWithAirnode",
        "label": "serviceIdToUserToSetterToIndefiniteWhitelistStatus",
        "offset": 0,
        "slot": "2",
        "type": "t_mapping(t_bytes32,t_mapping(t_address,t_mapping(t_address,t_bool)))"
      }
    ],
    "types": {
      "t_address": {
        "encoding": "inplace",
        "label": "address",
        "numberOfBytes": "20"
      },
      "t_bool": {
        "encoding": "inplace",
        "label": "bool",
        "numberOfBytes": "1"
      },
      "t_bytes32": {
        "encoding": "inplace",
        "label": "bytes32",
        "numberOfBytes": "32"
      },
      "t_mapping(t_address,t_bool)": {
        "encoding": "mapping",
        "key": "t_address",
        "label": "mapping(address => bool)",
        "numberOfBytes": "32",
        "value": "t_bool"
      },
      "t_mapping(t_address,t_mapping(t_address,t_bool))": {
        "encoding": "mapping",
        "key": "t_address",
        "label": "mapping(address => mapping(address => bool))",
        "numberOfBytes": "32",
        "value": "t_mapping(t_address,t_bool)"
      },
      "t_mapping(t_address,t_struct(WhitelistStatus)4988_storage)": {
        "encoding": "mapping",
        "key": "t_address",
        "label": "mapping(address => struct Whitelist.WhitelistStatus)",
        "numberOfBytes": "32",
        "value": "t_struct(WhitelistStatus)4988_storage"
      },
      "t_mapping(t_bytes32,t_mapping(t_address,t_mapping(t_address,t_bool)))": {
        "encoding": "mapping",
        "key": "t_bytes32",
        "label": "mapping(bytes32 => mapping(address => mapping(address => bool)))",
        "numberOfBytes": "32",
        "value": "t_mapping(t_address,t_mapping(t_address,t_bool))"
      },
      "t_mapping(t_bytes32,t_mapping(t_address,t_struct(WhitelistStatus)4988_storage))": {
        "encoding": "mapping",
        "key": "t_bytes32",
        "label": "mapping(bytes32 => mapping(address => struct Whitelist.WhitelistStatus))",
        "numberOfBytes": "32",
        "value": "t_mapping(t_address,t_struct(WhitelistStatus)4988_storage)"
      },
      "t_string_storage": {
        "encoding": "bytes",
        "label": "string",
        "numberOfBytes": "32"
      },
      "t_struct(WhitelistStatus)4988_storage": {
        "encoding": "inplace",
        "label": "struct Whitelist.WhitelistStatus",
        "members": [
          {
            "astId": 4985,
            "contract": "contracts/authorizers/RequesterAuthorizerWithAirnode.sol:RequesterAuthorizerWithAirnode",
            "label": "expirationTimestamp",
            "offset": 0,
            "slot": "0",
            "type": "t_uint64"
          },
          {
            "astId": 4987,
            "contract": "contracts/authorizers/RequesterAuthorizerWithAirnode.sol:RequesterAuthorizerWithAirnode",
            "label": "indefiniteWhitelistCount",
            "offset": 8,
            "slot": "0",
            "type": "t_uint192"
          }
        ],
        "numberOfBytes": "32"
      },
      "t_uint192": {
        "encoding": "inplace",
        "label": "uint192",
        "numberOfBytes": "24"
      },
      "t_uint64": {
        "encoding": "inplace",
        "label": "uint64",
        "numberOfBytes": "8"
      }
    }
  }
}