{
  "address": "0xC59ceC9ea902450F7A8f69ca7d19Ebf48EAb988C",
  "abi": [
    {
      "anonymous": false,
      "inputs": [
        {
          "indexed": true,
          "internalType": "bytes32",
          "name": "rootRole",
          "type": "bytes32"
        },
        {
          "indexed": true,
          "internalType": "address",
          "name": "manager",
          "type": "address"
        }
      ],
      "name": "InitializedManager",
      "type": "event"
    },
    {
      "anonymous": false,
      "inputs": [
        {
          "indexed": true,
          "internalType": "bytes32",
          "name": "role",
          "type": "bytes32"
        },
        {
          "indexed": true,
          "internalType": "bytes32",
          "name": "adminRole",
          "type": "bytes32"
        },
        {
          "indexed": false,
          "internalType": "string",
          "name": "description",
          "type": "string"
        },
        {
          "indexed": false,
          "internalType": "address",
          "name": "sender",
          "type": "address"
        }
      ],
      "name": "InitializedRole",
      "type": "event"
    },
    {
      "anonymous": false,
      "inputs": [
        {
          "indexed": true,
          "internalType": "bytes32",
          "name": "role",
          "type": "bytes32"
        },
        {
          "indexed": true,
          "internalType": "bytes32",
          "name": "previousAdminRole",
          "type": "bytes32"
        },
        {
          "indexed": true,
          "internalType": "bytes32",
          "name": "newAdminRole",
          "type": "bytes32"
        }
      ],
      "name": "RoleAdminChanged",
      "type": "event"
    },
    {
      "anonymous": false,
      "inputs": [
        {
          "indexed": true,
          "internalType": "bytes32",
          "name": "role",
          "type": "bytes32"
        },
        {
          "indexed": true,
          "internalType": "address",
          "name": "account",
          "type": "address"
        },
        {
          "indexed": true,
          "internalType": "address",
          "name": "sender",
          "type": "address"
        }
      ],
      "name": "RoleGranted",
      "type": "event"
    },
    {
      "anonymous": false,
      "inputs": [
        {
          "indexed": true,
          "internalType": "bytes32",
          "name": "role",
          "type": "bytes32"
        },
        {
          "indexed": true,
          "internalType": "address",
          "name": "account",
          "type": "address"
        },
        {
          "indexed": true,
          "internalType": "address",
          "name": "sender",
          "type": "address"
        }
      ],
      "name": "RoleRevoked",
      "type": "event"
    },
    {
      "inputs": [],
      "name": "DEFAULT_ADMIN_ROLE",
      "outputs": [
        {
          "internalType": "bytes32",
          "name": "",
          "type": "bytes32"
        }
      ],
      "stateMutability": "view",
      "type": "function"
    },
    {
      "inputs": [
        {
          "internalType": "bytes32",
          "name": "adminRole",
          "type": "bytes32"
        },
        {
          "internalType": "string",
          "name": "description",
          "type": "string"
        }
      ],
      "name": "deriveRole",
      "outputs": [
        {
          "internalType": "bytes32",
          "name": "role",
          "type": "bytes32"
        }
      ],
      "stateMutability": "pure",
      "type": "function"
    },
    {
      "inputs": [
        {
          "internalType": "address",
          "name": "manager",
          "type": "address"
        }
      ],
      "name": "deriveRootRole",
      "outputs": [
        {
          "internalType": "bytes32",
          "name": "rootRole",
          "type": "bytes32"
        }
      ],
      "stateMutability": "pure",
      "type": "function"
    },
    {
      "inputs": [
        {
          "internalType": "bytes32",
          "name": "role",
          "type": "bytes32"
        }
      ],
      "name": "getRoleAdmin",
      "outputs": [
        {
          "internalType": "bytes32",
          "name": "",
          "type": "bytes32"
        }
      ],
      "stateMutability": "view",
      "type": "function"
    },
    {
      "inputs": [
        {
          "internalType": "bytes32",
          "name": "role",
          "type": "bytes32"
        },
        {
          "internalType": "address",
          "name": "account",
          "type": "address"
        }
      ],
      "name": "grantRole",
      "outputs": [],
      "stateMutability": "nonpayable",
      "type": "function"
    },
    {
      "inputs": [
        {
          "internalType": "bytes32",
          "name": "role",
          "type": "bytes32"
        },
        {
          "internalType": "address",
          "name": "account",
          "type": "address"
        }
      ],
      "name": "hasRole",
      "outputs": [
        {
          "internalType": "bool",
          "name": "",
          "type": "bool"
        }
      ],
      "stateMutability": "view",
      "type": "function"
    },
    {
      "inputs": [
        {
          "internalType": "bytes32[]",
          "name": "adminRoles",
          "type": "bytes32[]"
        },
        {
          "internalType": "string[]",
          "name": "descriptions",
          "type": "string[]"
        },
        {
          "internalType": "address[]",
          "name": "accounts",
          "type": "address[]"
        }
      ],
      "name": "initializeAndGrantRoles",
      "outputs": [
        {
          "internalType": "bytes32[]",
          "name": "roles",
          "type": "bytes32[]"
        }
      ],
      "stateMutability": "nonpayable",
      "type": "function"
    },
    {
      "inputs": [
        {
          "internalType": "address",
          "name": "manager",
          "type": "address"
        }
      ],
      "name": "initializeManager",
      "outputs": [],
      "stateMutability": "nonpayable",
      "type": "function"
    },
    {
      "inputs": [
        {
          "internalType": "bytes32",
          "name": "adminRole",
          "type": "bytes32"
        },
        {
          "internalType": "string",
          "name": "description",
          "type": "string"
        }
      ],
      "name": "initializeRole",
      "outputs": [
        {
          "internalType": "bytes32",
          "name": "role",
          "type": "bytes32"
        }
      ],
      "stateMutability": "nonpayable",
      "type": "function"
    },
    {
      "inputs": [
        {
          "internalType": "bytes32",
          "name": "role",
          "type": "bytes32"
        },
        {
          "internalType": "address",
          "name": "account",
          "type": "address"
        }
      ],
      "name": "renounceRole",
      "outputs": [],
      "stateMutability": "nonpayable",
      "type": "function"
    },
    {
      "inputs": [
        {
          "internalType": "bytes32",
          "name": "role",
          "type": "bytes32"
        },
        {
          "internalType": "address",
          "name": "account",
          "type": "address"
        }
      ],
      "name": "revokeRole",
      "outputs": [],
      "stateMutability": "nonpayable",
      "type": "function"
    },
    {
      "inputs": [
        {
          "internalType": "bytes4",
          "name": "interfaceId",
          "type": "bytes4"
        }
      ],
      "name": "supportsInterface",
      "outputs": [
        {
          "internalType": "bool",
          "name": "",
          "type": "bool"
        }
      ],
      "stateMutability": "view",
      "type": "function"
    }
  ],
  "transactionHash": "0x536918926a4ea435d3959f430aee7e4ad3643ce26aa58fc7d1bb66826279b7e9",
  "args": [],
  "solcInputHash": "e3d949232f846f22d57b20a2fd7df255",
  "bytecode": "0x608060405234801561001057600080fd5b50611b5b806100206000396000f3fe608060405234801561001057600080fd5b50600436106100b45760003560e01c80637f7120fe116100715780637f7120fe146101b1578063805d43fc146101cd57806391d14854146101fd578063a217fddf1461022d578063b530b5e01461024b578063d547741f1461027b576100b4565b806301ffc9a7146100b95780630cad8226146100e957806318e60f0114610119578063248a9ca3146101495780632f2ff15d1461017957806336568abe14610195575b600080fd5b6100d360048036038101906100ce9190610e94565b610297565b6040516100e09190610edc565b60405180910390f35b61010360048036038101906100fe9190610f92565b610311565b6040516101109190611001565b60405180910390f35b610133600480360381019061012e919061111e565b6103c2565b6040516101409190611290565b60405180910390f35b610163600480360381019061015e91906112b2565b610589565b6040516101709190611001565b60405180910390f35b610193600480360381019061018e919061133d565b6105a8565b005b6101af60048036038101906101aa919061133d565b6105d1565b005b6101cb60048036038101906101c6919061137d565b61062a565b005b6101e760048036038101906101e2919061137d565b610698565b6040516101f49190611001565b60405180910390f35b6102176004803603810190610212919061133d565b6106aa565b6040516102249190610edc565b60405180910390f35b610235610714565b6040516102429190611001565b60405180910390f35b61026560048036038101906102609190610f92565b61071b565b6040516102729190611001565b60405180910390f35b6102956004803603810190610290919061133d565b610774565b005b60007f7965db0b000000000000000000000000000000000000000000000000000000007bffffffffffffffffffffffffffffffffffffffffffffffffffffffff1916827bffffffffffffffffffffffffffffffffffffffffffffffffffffffff1916148061030a57506103098261079d565b5b9050919050565b600061031e84848461071b565b90506000801b61032d82610589565b14156103aa5761034361033e610807565b610698565b84141561035b5761035a610355610807565b61062a565b5b610365818561080f565b83817f532ead3ec09896bef1351791fbaad86ac03f3204090a8e7f173f41414b1fdac08585610392610807565b6040516103a193929190611417565b60405180910390a35b6103bb816103b6610807565b6105a8565b9392505050565b6060600087879050905085859050811480156103e057508383905081145b61041f576040517f08c379a000000000000000000000000000000000000000000000000000000000815260040161041690611495565b60405180910390fd5b6020811115610463576040517f08c379a000000000000000000000000000000000000000000000000000000000815260040161045a90611501565b60405180910390fd5b8067ffffffffffffffff81111561047d5761047c611521565b5b6040519080825280602002602001820160405280156104ab5781602001602082028036833780820191505090505b50915060005b8181101561057d576105008989838181106104cf576104ce611550565b5b905060200201358888848181106104e9576104e8611550565b5b90506020028101906104fb919061158e565b610311565b83828151811061051357610512611550565b5b60200260200101818152505061056a83828151811061053557610534611550565b5b60200260200101518686848181106105505761054f611550565b5b9050602002016020810190610565919061137d565b6105a8565b80806105759061162a565b9150506104b1565b50509695505050505050565b6000806000838152602001908152602001600020600101549050919050565b6105b182610589565b6105c2816105bd610807565b61086a565b6105cc8383610907565b505050565b6105da81610698565b82141561061c576040517f08c379a0000000000000000000000000000000000000000000000000000000008152600401610613906116bf565b60405180910390fd5b61062682826109e7565b5050565b600061063582610698565b905061064181836106aa565b6106945761064f8183610a6a565b8173ffffffffffffffffffffffffffffffffffffffff16817f888b171f3b02386c0e4d8c85108dcb8d0ecdad2f274ddc7ce3914282538bdd8860405160405180910390a35b5050565b60006106a382610a78565b9050919050565b600080600084815260200190815260200160002060000160008373ffffffffffffffffffffffffffffffffffffffff1673ffffffffffffffffffffffffffffffffffffffff16815260200190815260200160002060009054906101000a900460ff16905092915050565b6000801b81565b600061076b8484848080601f016020809104026020016040519081016040528093929190818152602001838380828437600081840152601f19601f82011690508083019250505050505050610aa8565b90509392505050565b61077d82610589565b61078e81610789610807565b61086a565b6107988383610ae2565b505050565b60007f01ffc9a7000000000000000000000000000000000000000000000000000000007bffffffffffffffffffffffffffffffffffffffffffffffffffffffff1916827bffffffffffffffffffffffffffffffffffffffffffffffffffffffff1916149050919050565b600033905090565b600061081a83610589565b905081600080858152602001908152602001600020600101819055508181847fbd79b86ffe0ab8e8776151514217cd7cacd52c909f66475c3af44e129f0b00ff60405160405180910390a4505050565b61087482826106aa565b610903576108998173ffffffffffffffffffffffffffffffffffffffff166014610bc3565b6108a78360001c6020610bc3565b6040516020016108b89291906117f1565b6040516020818303038152906040526040517f08c379a00000000000000000000000000000000000000000000000000000000081526004016108fa9190611864565b60405180910390fd5b5050565b61091182826106aa565b6109e357600160008084815260200190815260200160002060000160008373ffffffffffffffffffffffffffffffffffffffff1673ffffffffffffffffffffffffffffffffffffffff16815260200190815260200160002060006101000a81548160ff021916908315150217905550610988610807565b73ffffffffffffffffffffffffffffffffffffffff168173ffffffffffffffffffffffffffffffffffffffff16837f2f8788117e7eff1d82e926ec794901d17c78024a50270940304540a733656f0d60405160405180910390a45b5050565b6109ef610807565b73ffffffffffffffffffffffffffffffffffffffff168173ffffffffffffffffffffffffffffffffffffffff1614610a5c576040517f08c379a0000000000000000000000000000000000000000000000000000000008152600401610a53906118f8565b60405180910390fd5b610a668282610ae2565b5050565b610a748282610907565b5050565b600081604051602001610a8b9190611960565b604051602081830303815290604052805190602001209050919050565b6000610ada8383604051602001610abf919061197b565b60405160208183030381529060405280519060200120610dff565b905092915050565b610aec82826106aa565b15610bbf57600080600084815260200190815260200160002060000160008373ffffffffffffffffffffffffffffffffffffffff1673ffffffffffffffffffffffffffffffffffffffff16815260200190815260200160002060006101000a81548160ff021916908315150217905550610b64610807565b73ffffffffffffffffffffffffffffffffffffffff168173ffffffffffffffffffffffffffffffffffffffff16837ff6391f5c32d9c69d2a47ea670b442974b53935d1edc7fd64eb21e047a839171b60405160405180910390a45b5050565b606060006002836002610bd69190611992565b610be091906119ec565b67ffffffffffffffff811115610bf957610bf8611521565b5b6040519080825280601f01601f191660200182016040528015610c2b5781602001600182028036833780820191505090505b5090507f300000000000000000000000000000000000000000000000000000000000000081600081518110610c6357610c62611550565b5b60200101907effffffffffffffffffffffffffffffffffffffffffffffffffffffffffffff1916908160001a9053507f780000000000000000000000000000000000000000000000000000000000000081600181518110610cc757610cc6611550565b5b60200101907effffffffffffffffffffffffffffffffffffffffffffffffffffffffffffff1916908160001a90535060006001846002610d079190611992565b610d1191906119ec565b90505b6001811115610db1577f3031323334353637383961626364656600000000000000000000000000000000600f861660108110610d5357610d52611550565b5b1a60f81b828281518110610d6a57610d69611550565b5b60200101907effffffffffffffffffffffffffffffffffffffffffffffffffffffffffffff1916908160001a905350600485901c945080610daa90611a42565b9050610d14565b5060008414610df5576040517f08c379a0000000000000000000000000000000000000000000000000000000008152600401610dec90611ab8565b60405180910390fd5b8091505092915050565b60008282604051602001610e14929190611af9565b60405160208183030381529060405280519060200120905092915050565b600080fd5b600080fd5b60007fffffffff0000000000000000000000000000000000000000000000000000000082169050919050565b610e7181610e3c565b8114610e7c57600080fd5b50565b600081359050610e8e81610e68565b92915050565b600060208284031215610eaa57610ea9610e32565b5b6000610eb884828501610e7f565b91505092915050565b60008115159050919050565b610ed681610ec1565b82525050565b6000602082019050610ef16000830184610ecd565b92915050565b6000819050919050565b610f0a81610ef7565b8114610f1557600080fd5b50565b600081359050610f2781610f01565b92915050565b600080fd5b600080fd5b600080fd5b60008083601f840112610f5257610f51610f2d565b5b8235905067ffffffffffffffff811115610f6f57610f6e610f32565b5b602083019150836001820283011115610f8b57610f8a610f37565b5b9250929050565b600080600060408486031215610fab57610faa610e32565b5b6000610fb986828701610f18565b935050602084013567ffffffffffffffff811115610fda57610fd9610e37565b5b610fe686828701610f3c565b92509250509250925092565b610ffb81610ef7565b82525050565b60006020820190506110166000830184610ff2565b92915050565b60008083601f84011261103257611031610f2d565b5b8235905067ffffffffffffffff81111561104f5761104e610f32565b5b60208301915083602082028301111561106b5761106a610f37565b5b9250929050565b60008083601f84011261108857611087610f2d565b5b8235905067ffffffffffffffff8111156110a5576110a4610f32565b5b6020830191508360208202830111156110c1576110c0610f37565b5b9250929050565b60008083601f8401126110de576110dd610f2d565b5b8235905067ffffffffffffffff8111156110fb576110fa610f32565b5b60208301915083602082028301111561111757611116610f37565b5b9250929050565b6000806000806000806060878903121561113b5761113a610e32565b5b600087013567ffffffffffffffff81111561115957611158610e37565b5b61116589828a0161101c565b9650965050602087013567ffffffffffffffff81111561118857611187610e37565b5b61119489828a01611072565b9450945050604087013567ffffffffffffffff8111156111b7576111b6610e37565b5b6111c389828a016110c8565b92509250509295509295509295565b600081519050919050565b600082825260208201905092915050565b6000819050602082019050919050565b61120781610ef7565b82525050565b600061121983836111fe565b60208301905092915050565b6000602082019050919050565b600061123d826111d2565b61124781856111dd565b9350611252836111ee565b8060005b8381101561128357815161126a888261120d565b975061127583611225565b925050600181019050611256565b5085935050505092915050565b600060208201905081810360008301526112aa8184611232565b905092915050565b6000602082840312156112c8576112c7610e32565b5b60006112d684828501610f18565b91505092915050565b600073ffffffffffffffffffffffffffffffffffffffff82169050919050565b600061130a826112df565b9050919050565b61131a816112ff565b811461132557600080fd5b50565b60008135905061133781611311565b92915050565b6000806040838503121561135457611353610e32565b5b600061136285828601610f18565b925050602061137385828601611328565b9150509250929050565b60006020828403121561139357611392610e32565b5b60006113a184828501611328565b91505092915050565b600082825260208201905092915050565b82818337600083830152505050565b6000601f19601f8301169050919050565b60006113e783856113aa565b93506113f48385846113bb565b6113fd836113ca565b840190509392505050565b611411816112ff565b82525050565b600060408201905081810360008301526114328185876113db565b90506114416020830184611408565b949350505050565b7f417267756d656e74206c656e677468206d69736d617463680000000000000000600082015250565b600061147f6018836113aa565b915061148a82611449565b602082019050919050565b600060208201905081810360008301526114ae81611472565b9050919050565b7f417267756d656e747320746f6f206c6f6e670000000000000000000000000000600082015250565b60006114eb6012836113aa565b91506114f6826114b5565b602082019050919050565b6000602082019050818103600083015261151a816114de565b9050919050565b7f4e487b7100000000000000000000000000000000000000000000000000000000600052604160045260246000fd5b7f4e487b7100000000000000000000000000000000000000000000000000000000600052603260045260246000fd5b600080fd5b600080fd5b600080fd5b600080833560016020038436030381126115ab576115aa61157f565b5b80840192508235915067ffffffffffffffff8211156115cd576115cc611584565b5b6020830192506001820236038313156115e9576115e8611589565b5b509250929050565b7f4e487b7100000000000000000000000000000000000000000000000000000000600052601160045260246000fd5b6000819050919050565b600061163582611620565b91507fffffffffffffffffffffffffffffffffffffffffffffffffffffffffffffffff821415611668576116676115f1565b5b600182019050919050565b7f726f6c6520697320726f6f7420726f6c65206f66206163636f756e7400000000600082015250565b60006116a9601c836113aa565b91506116b482611673565b602082019050919050565b600060208201905081810360008301526116d88161169c565b9050919050565b600081905092915050565b7f416363657373436f6e74726f6c3a206163636f756e7420000000000000000000600082015250565b60006117206017836116df565b915061172b826116ea565b601782019050919050565b600081519050919050565b60005b8381101561175f578082015181840152602081019050611744565b8381111561176e576000848401525b50505050565b600061177f82611736565b61178981856116df565b9350611799818560208601611741565b80840191505092915050565b7f206973206d697373696e6720726f6c6520000000000000000000000000000000600082015250565b60006117db6011836116df565b91506117e6826117a5565b601182019050919050565b60006117fc82611713565b91506118088285611774565b9150611813826117ce565b915061181f8284611774565b91508190509392505050565b600061183682611736565b61184081856113aa565b9350611850818560208601611741565b611859816113ca565b840191505092915050565b6000602082019050818103600083015261187e818461182b565b905092915050565b7f416363657373436f6e74726f6c3a2063616e206f6e6c792072656e6f756e636560008201527f20726f6c657320666f722073656c660000000000000000000000000000000000602082015250565b60006118e2602f836113aa565b91506118ed82611886565b604082019050919050565b60006020820190508181036000830152611911816118d5565b9050919050565b60008160601b9050919050565b600061193082611918565b9050919050565b600061194282611925565b9050919050565b61195a611955826112ff565b611937565b82525050565b600061196c8284611949565b60148201915081905092915050565b60006119878284611774565b915081905092915050565b600061199d82611620565b91506119a883611620565b9250817fffffffffffffffffffffffffffffffffffffffffffffffffffffffffffffffff04831182151516156119e1576119e06115f1565b5b828202905092915050565b60006119f782611620565b9150611a0283611620565b9250827fffffffffffffffffffffffffffffffffffffffffffffffffffffffffffffffff03821115611a3757611a366115f1565b5b828201905092915050565b6000611a4d82611620565b91506000821415611a6157611a606115f1565b5b600182039050919050565b7f537472696e67733a20686578206c656e67746820696e73756666696369656e74600082015250565b6000611aa26020836113aa565b9150611aad82611a6c565b602082019050919050565b60006020820190508181036000830152611ad181611a95565b9050919050565b6000819050919050565b611af3611aee82610ef7565b611ad8565b82525050565b6000611b058285611ae2565b602082019150611b158284611ae2565b602082019150819050939250505056fea2646970667358221220afc2a0c793d3f39fe7c403dde1a93906b2f7a5c8af286101db0b2472e19a9dc964736f6c63430008090033",
  "devdoc": {
    "details": "Each user is called a \"manager\", and is the only member of their root role. Starting from this root role, they can create an arbitrary tree of roles and grant these to accounts. Each role has a description, and roles adminned by the same role cannot have the same description.",
    "kind": "dev",
    "methods": {
      "deriveRole(bytes32,string)": {
        "details": "This implies that roles adminned by the same role cannot have the same description",
        "params": {
          "adminRole": "Admin role",
          "description": "Human-readable description of the role"
        },
        "returns": {
          "role": "Role"
        }
      },
      "deriveRootRole(address)": {
        "params": {
          "manager": "Manager address"
        },
        "returns": {
          "rootRole": "Root role"
        }
      },
      "getRoleAdmin(bytes32)": {
        "details": "Returns the admin role that controls `role`. See {grantRole} and {revokeRole}. To change a role's admin, use {_setRoleAdmin}."
      },
      "grantRole(bytes32,address)": {
        "details": "Grants `role` to `account`. If `account` had not been already granted `role`, emits a {RoleGranted} event. Requirements: - the caller must have ``role``'s admin role."
      },
      "hasRole(bytes32,address)": {
        "details": "Returns `true` if `account` has been granted `role`."
      },
      "initializeAndGrantRoles(bytes32[],string[],address[])": {
        "details": "Each initialized role is granted to the respective account. If you do not want to grant the role to an additional account, you can pass the sender address here (as the sender will already be granted the role so this would have no effect). Lengths of the arguments must be equal, and less than 33",
        "params": {
          "accounts": "Accounts the initialized roles will be granted to",
          "adminRoles": "Admin roles to be assigned to the initialized roles",
          "descriptions": "Human-readable descriptions of the initialized roles"
        },
        "returns": {
          "roles": "Initialized roles"
        }
      },
      "initializeManager(address)": {
        "details": "Anyone can initialize a manager. An uninitialized manager attempting to initialize a role will be initialized automatically. Once a manager is initialized, subsequent initializations have no effect.",
        "params": {
          "manager": "Manager address to be initialized"
        }
      },
      "initializeRole(bytes32,string)": {
        "details": "If the sender should not have the initialized role, they should explicitly renounce it after initializing it. Once a role is initialized, subsequent initialization have no effect, other than granting the role to the sender. The sender must be a member of `adminRole`. If the sender is an uninitialized manager that is initializing a role directly under their root role, manager initialization will happen automatically, which will grant the sender `adminRole` and allow them to initialize the role.",
        "params": {
          "adminRole": "Admin role to be assigned to the initialized role",
          "description": "Human-readable description of the initialized role"
        },
        "returns": {
          "role": "Initialized role"
        }
      },
      "renounceRole(bytes32,address)": {
        "details": "Overriden to disallow managers to renounce their root roles",
        "params": {
          "account": "Account to renounce the role",
          "role": "Role to be renounced"
        }
      },
      "revokeRole(bytes32,address)": {
        "details": "Revokes `role` from `account`. If `account` had been granted `role`, emits a {RoleRevoked} event. Requirements: - the caller must have ``role``'s admin role."
      },
      "supportsInterface(bytes4)": {
        "details": "See {IERC165-supportsInterface}."
      }
    },
    "title": "Contract that allows users to manage independent, tree-shaped access control tables",
    "version": 1
  },
  "userdoc": {
    "kind": "user",
    "methods": {
      "deriveRole(bytes32,string)": {
        "notice": "Derives the role using its admin role and description"
      },
      "deriveRootRole(address)": {
        "notice": "Derives the root role of the manager"
      },
      "initializeAndGrantRoles(bytes32[],string[],address[])": {
        "notice": "Initializes roles and grants them to the respective accounts"
      },
      "initializeManager(address)": {
        "notice": "Initializes the manager by initializing its root role and granting it to them"
      },
      "initializeRole(bytes32,string)": {
        "notice": "Initializes a role, which includes setting its admin and granting it to the sender"
      },
      "renounceRole(bytes32,address)": {
        "notice": "Called for the account to renounce the role"
      }
    },
    "notice": "Multiple contracts can refer to this contract to check if their users have granted accounts specific roles. Therefore, it aims to keep all access control roles of its users in this single contract.",
    "version": 1
  },
  "storageLayout": {
    "storage": [
      {
        "astId": 24,
        "contract": "contracts/access-control-registry/AccessControlRegistry.sol:AccessControlRegistry",
        "label": "_roles",
        "offset": 0,
        "slot": "0",
        "type": "t_mapping(t_bytes32,t_struct(RoleData)19_storage)"
      }
    ],
    "types": {
      "t_address": {
        "encoding": "inplace",
        "label": "address",
        "numberOfBytes": "20"
      },
      "t_bool": {
        "encoding": "inplace",
        "label": "bool",
        "numberOfBytes": "1"
      },
      "t_bytes32": {
        "encoding": "inplace",
        "label": "bytes32",
        "numberOfBytes": "32"
      },
      "t_mapping(t_address,t_bool)": {
        "encoding": "mapping",
        "key": "t_address",
        "label": "mapping(address => bool)",
        "numberOfBytes": "32",
        "value": "t_bool"
      },
      "t_mapping(t_bytes32,t_struct(RoleData)19_storage)": {
        "encoding": "mapping",
        "key": "t_bytes32",
        "label": "mapping(bytes32 => struct AccessControl.RoleData)",
        "numberOfBytes": "32",
        "value": "t_struct(RoleData)19_storage"
      },
      "t_struct(RoleData)19_storage": {
        "encoding": "inplace",
        "label": "struct AccessControl.RoleData",
        "members": [
          {
            "astId": 16,
            "contract": "contracts/access-control-registry/AccessControlRegistry.sol:AccessControlRegistry",
            "label": "members",
            "offset": 0,
            "slot": "0",
            "type": "t_mapping(t_address,t_bool)"
          },
          {
            "astId": 18,
            "contract": "contracts/access-control-registry/AccessControlRegistry.sol:AccessControlRegistry",
            "label": "adminRole",
            "offset": 0,
            "slot": "1",
            "type": "t_bytes32"
          }
        ],
        "numberOfBytes": "64"
      }
    }
  }
}