{
  "address": "0x2e768206bf5112e7D7efAf1d9df614C26475193f",
  "abi": [
    {
      "anonymous": false,
      "inputs": [
        {
          "indexed": true,
          "internalType": "address",
          "name": "airnode",
          "type": "address"
        },
        {
          "indexed": true,
          "internalType": "bytes32",
          "name": "requestId",
          "type": "bytes32"
        },
        {
          "indexed": false,
          "internalType": "bytes",
          "name": "data",
          "type": "bytes"
        }
      ],
      "name": "FulfilledRequest",
      "type": "event"
    },
    {
      "inputs": [
        {
          "internalType": "bytes32",
          "name": "requestId",
          "type": "bytes32"
        },
        {
          "internalType": "address",
          "name": "airnode",
          "type": "address"
        },
        {
          "internalType": "address",
          "name": "fulfillAddress",
          "type": "address"
        },
        {
          "internalType": "bytes4",
          "name": "fulfillFunctionId",
          "type": "bytes4"
        },
        {
          "internalType": "bytes",
          "name": "data",
          "type": "bytes"
        },
        {
          "internalType": "bytes",
          "name": "signature",
          "type": "bytes"
        }
      ],
      "name": "fulfill",
      "outputs": [
        {
          "internalType": "bool",
          "name": "callSuccess",
          "type": "bool"
        },
        {
          "internalType": "bytes",
          "name": "callData",
          "type": "bytes"
        }
      ],
      "stateMutability": "nonpayable",
      "type": "function"
    }
  ],
  "transactionHash": "0x71c4382757025f05aa013eb2212e49388f2afb52aefd96f798cbe7ebfc1f0e26",
  "args": [],
  "numDeployments": 1,
  "solcInputHash": "91bdad71ba8d8c57da42984f65eb24cc",
  "bytecode": "0x608060405234801561001057600080fd5b50610997806100206000396000f3fe608060405234801561001057600080fd5b506004361061002b5760003560e01c80631decbf1814610030575b600080fd5b61004361003e366004610756565b61005a565b604051610051929190610858565b60405180910390f35b6000888152602081815260408083205490516bffffffffffffffffffffffff1960608c811b82169483019490945233841b811660348301528a841b1660488201527fffffffff000000000000000000000000000000000000000000000000000000008916605c820152820160405160208183030381529060405280519060200120141561012e5760405162461bcd60e51b815260206004820152601360248201527f44756d6d792072657665727420737472696e670000000000000000000000000060448201526064015b60405180910390fd5b886001600160a01b03166101f085858080601f016020809104026020016040519081016040528093929190818152602001838380828437600092019190915250506040516101ea925061018a91508f908c908c90602001610894565b60408051601f1981840301815282825280516020918201207f19457468657265756d205369676e6564204d6573736167653a0a33320000000084830152603c8085019190915282518085039091018152605c909301909152815191012090565b90610371565b6001600160a01b0316146102465760405162461bcd60e51b815260206004820152601160248201527f496e76616c6964207369676e61747572650000000000000000000000000000006044820152606401610125565b886001600160a01b0316878b8888604051602401610266939291906108d7565b60408051601f198184030181529181526020820180517bffffffffffffffffffffffffffffffffffffffffffffffffffffffff167fffffffff000000000000000000000000000000000000000000000000000000009094169390931790925290516102d191906108fa565b6000604051808303816000865af19150503d806000811461030e576040519150601f19603f3d011682016040523d82523d6000602084013e610313565b606091505b50909250905081156103645789896001600160a01b03167fc0977dab79883641ece94bb6a932ca83049f561ffff8d8daaeafdbc1acce9e0a888860405161035b929190610916565b60405180910390a35b9850989650505050505050565b60008060006103808585610395565b9150915061038d81610405565b509392505050565b6000808251604114156103cc5760208301516040840151606085015160001a6103c0878285856105c3565b945094505050506103fe565b8251604014156103f657602083015160408401516103eb8683836106b0565b9350935050506103fe565b506000905060025b9250929050565b600081600481111561041957610419610932565b14156104225750565b600181600481111561043657610436610932565b14156104845760405162461bcd60e51b815260206004820152601860248201527f45434453413a20696e76616c6964207369676e617475726500000000000000006044820152606401610125565b600281600481111561049857610498610932565b14156104e65760405162461bcd60e51b815260206004820152601f60248201527f45434453413a20696e76616c6964207369676e6174757265206c656e677468006044820152606401610125565b60038160048111156104fa576104fa610932565b14156105535760405162461bcd60e51b815260206004820152602260248201527f45434453413a20696e76616c6964207369676e6174757265202773272076616c604482015261756560f01b6064820152608401610125565b600481600481111561056757610567610932565b14156105c05760405162461bcd60e51b815260206004820152602260248201527f45434453413a20696e76616c6964207369676e6174757265202776272076616c604482015261756560f01b6064820152608401610125565b50565b6000807f7fffffffffffffffffffffffffffffff5d576e7357a4501ddfe92f46681b20a08311156105fa57506000905060036106a7565b8460ff16601b1415801561061257508460ff16601c14155b1561062357506000905060046106a7565b6040805160008082526020820180845289905260ff881692820192909252606081018690526080810185905260019060a0016020604051602081039080840390855afa158015610677573d6000803e3d6000fd5b5050604051601f1901519150506001600160a01b0381166106a0576000600192509250506106a7565b9150600090505b94509492505050565b6000807f7fffffffffffffffffffffffffffffffffffffffffffffffffffffffffffffff831660ff84901c601b016106ea878288856105c3565b935093505050935093915050565b80356001600160a01b038116811461070f57600080fd5b919050565b60008083601f84011261072657600080fd5b50813567ffffffffffffffff81111561073e57600080fd5b6020830191508360208285010111156103fe57600080fd5b60008060008060008060008060c0898b03121561077257600080fd5b8835975061078260208a016106f8565b965061079060408a016106f8565b955060608901357fffffffff00000000000000000000000000000000000000000000000000000000811681146107c557600080fd5b9450608089013567ffffffffffffffff808211156107e257600080fd5b6107ee8c838d01610714565b909650945060a08b013591508082111561080757600080fd5b506108148b828c01610714565b999c989b5096995094979396929594505050565b60005b8381101561084357818101518382015260200161082b565b83811115610852576000848401525b50505050565b8215158152604060208201526000825180604084015261087f816060850160208701610828565b601f01601f1916919091016060019392505050565b838152818360208301376000910160200190815292915050565b81835281816020850137506000828201602090810191909152601f909101601f19169091010190565b8381526040602082015260006108f16040830184866108ae565b95945050505050565b6000825161090c818460208701610828565b9190910192915050565b60208152600061092a6020830184866108ae565b949350505050565b7f4e487b7100000000000000000000000000000000000000000000000000000000600052602160045260246000fdfea26469706673582212201f6f9d6bb1fa5e17ffc6a138eebeb4fdd93d3c2b7fe4bcc141ddae7c7708cb6464736f6c63430008090033",
  "devdoc": {
    "details": "Typically, contracts are built to revert when an external call they make reverts. In contrast, AirnodeRrpV0 does not revert when the external call during the fulfillment reverts, and instead fails gracefully by emitting a `FailedRequest` event. This event signals to the future invocations of the stateless Airnode to not retry the failed fulfillment. Although this approach meets the intended purpose, it disables Airnode from calling `eth_estimateGas` on `fulfill()` to estimate the gas amount that will be used to execute a fulfillment successfully. Specifically, since `eth_estimateGas` looks for the lowest gas limit that results in the transaction not reverting, and AirnodeRrpV0's `fulfill()` does not revert when its external call reverts (because it runs out of gas), `eth_estimateGas` will not necessarily return a gas amount that will result in the fulfillment to be successful even if such an amount exists. As a solution, Airnode calls `eth_estimateGas` on AirnodeRrpV0DryRun's `fulfill()` and the external call of the fulfillment, and add these up to find the gas limit required to execute a successful fulfillment. This sum is an overestimation of the actual requirement, as it includes an additional base fee (21,000 gas on Ethereum).",
    "kind": "dev",
    "methods": {
      "fulfill(bytes32,address,address,bytes4,bytes,bytes)": {
        "details": "Refer to AirnodeRrpV0's `fulfill()` for more information",
        "params": {
          "airnode": "Airnode address",
          "data": "Fulfillment data",
          "fulfillAddress": "Address that will be called to fulfill",
          "fulfillFunctionId": "Signature of the function that will be called to fulfill",
          "requestId": "Request ID"
        },
        "returns": {
          "callData": "Data returned by the fulfillment call (if there is any)",
          "callSuccess": "If the fulfillment call succeeded"
        }
      }
    },
    "stateVariables": {
      "requestIdToFulfillmentParameters": {
        "details": "This mapping is kept as it is in AirnodeRrpV0 to closely simulate the fulfillment. All of its keys will map to zero values."
      }
    },
    "title": "Contract that complements Airnode request–response protocol (RRP) to allow Airnode to estimate the gas required to execute a fulfillment",
    "version": 1
  },
  "userdoc": {
    "kind": "user",
    "methods": {
      "fulfill(bytes32,address,address,bytes4,bytes,bytes)": {
        "notice": "Used by Airnode to estimate the gas amount needed to fulfill the request (excluding the external call). Do not call this function, as it will have no practical effect."
      }
    },
    "version": 1
  },
  "storageLayout": {
    "storage": [
      {
        "astId": 4985,
        "contract": "contracts/rrp/AirnodeRrpV0DryRun.sol:AirnodeRrpV0DryRun",
        "label": "requestIdToFulfillmentParameters",
        "offset": 0,
        "slot": "0",
        "type": "t_mapping(t_bytes32,t_bytes32)"
      }
    ],
    "types": {
      "t_bytes32": {
        "encoding": "inplace",
        "label": "bytes32",
        "numberOfBytes": "32"
      },
      "t_mapping(t_bytes32,t_bytes32)": {
        "encoding": "mapping",
        "key": "t_bytes32",
        "label": "mapping(bytes32 => bytes32)",
        "numberOfBytes": "32",
        "value": "t_bytes32"
      }
    }
  }
}