{
  "abi": [
    {
      "anonymous": false,
      "inputs": [
        {
          "indexed": true,
          "internalType": "uint256",
          "name": "requesterInd",
          "type": "uint256"
        },
        {
          "indexed": true,
          "internalType": "address",
          "name": "clientAddress",
          "type": "address"
        },
        {
          "indexed": false,
          "internalType": "bool",
          "name": "endorsementStatus",
          "type": "bool"
        }
      ],
      "name": "ClientEndorsementStatusUpdated",
      "type": "event"
    },
    {
      "anonymous": false,
      "inputs": [
        {
          "indexed": true,
          "internalType": "bytes32",
          "name": "providerId",
          "type": "bytes32"
        },
        {
          "indexed": false,
          "internalType": "bytes32",
          "name": "requestId",
          "type": "bytes32"
        },
        {
          "indexed": false,
          "internalType": "uint256",
          "name": "noRequests",
          "type": "uint256"
        },
        {
          "indexed": false,
          "internalType": "address",
          "name": "clientAddress",
          "type": "address"
        },
        {
          "indexed": false,
          "internalType": "bytes32",
          "name": "endpointId",
          "type": "bytes32"
        },
        {
          "indexed": false,
          "internalType": "uint256",
          "name": "requesterInd",
          "type": "uint256"
        },
        {
          "indexed": false,
          "internalType": "address",
          "name": "designatedWallet",
          "type": "address"
        },
        {
          "indexed": false,
          "internalType": "address",
          "name": "fulfillAddress",
          "type": "address"
        },
        {
          "indexed": false,
          "internalType": "bytes4",
          "name": "fulfillFunctionId",
          "type": "bytes4"
        },
        {
          "indexed": false,
          "internalType": "bytes",
          "name": "parameters",
          "type": "bytes"
        }
      ],
      "name": "ClientFullRequestCreated",
      "type": "event"
    },
    {
      "anonymous": false,
      "inputs": [
        {
          "indexed": true,
          "internalType": "bytes32",
          "name": "providerId",
          "type": "bytes32"
        },
        {
          "indexed": false,
          "internalType": "bytes32",
          "name": "requestId",
          "type": "bytes32"
        },
        {
          "indexed": false,
          "internalType": "uint256",
          "name": "noRequests",
          "type": "uint256"
        },
        {
          "indexed": false,
          "internalType": "address",
          "name": "clientAddress",
          "type": "address"
        },
        {
          "indexed": false,
          "internalType": "bytes32",
          "name": "templateId",
          "type": "bytes32"
        },
        {
          "indexed": false,
          "internalType": "uint256",
          "name": "requesterInd",
          "type": "uint256"
        },
        {
          "indexed": false,
          "internalType": "address",
          "name": "designatedWallet",
          "type": "address"
        },
        {
          "indexed": false,
          "internalType": "address",
          "name": "fulfillAddress",
          "type": "address"
        },
        {
          "indexed": false,
          "internalType": "bytes4",
          "name": "fulfillFunctionId",
          "type": "bytes4"
        },
        {
          "indexed": false,
          "internalType": "bytes",
          "name": "parameters",
          "type": "bytes"
        }
      ],
      "name": "ClientRequestCreated",
      "type": "event"
    },
    {
      "anonymous": false,
      "inputs": [
        {
          "indexed": true,
          "internalType": "bytes32",
          "name": "providerId",
          "type": "bytes32"
        },
        {
          "indexed": false,
          "internalType": "bytes32",
          "name": "requestId",
          "type": "bytes32"
        }
      ],
      "name": "ClientRequestFailed",
      "type": "event"
    },
    {
      "anonymous": false,
      "inputs": [
        {
          "indexed": true,
          "internalType": "bytes32",
          "name": "providerId",
          "type": "bytes32"
        },
        {
          "indexed": false,
          "internalType": "bytes32",
          "name": "requestId",
          "type": "bytes32"
        },
        {
          "indexed": false,
          "internalType": "uint256",
          "name": "statusCode",
          "type": "uint256"
        },
        {
          "indexed": false,
          "internalType": "bytes32",
          "name": "data",
          "type": "bytes32"
        }
      ],
      "name": "ClientRequestFulfilled",
      "type": "event"
    },
    {
      "anonymous": false,
      "inputs": [
        {
          "indexed": true,
          "internalType": "bytes32",
          "name": "providerId",
          "type": "bytes32"
        },
        {
          "indexed": false,
          "internalType": "bytes32",
          "name": "requestId",
          "type": "bytes32"
        },
        {
          "indexed": false,
          "internalType": "uint256",
          "name": "statusCode",
          "type": "uint256"
        },
        {
          "indexed": false,
          "internalType": "bytes",
          "name": "data",
          "type": "bytes"
        }
      ],
      "name": "ClientRequestFulfilledWithBytes",
      "type": "event"
    },
    {
      "anonymous": false,
      "inputs": [
        {
          "indexed": true,
          "internalType": "bytes32",
          "name": "providerId",
          "type": "bytes32"
        },
        {
          "indexed": false,
          "internalType": "bytes32",
          "name": "requestId",
          "type": "bytes32"
        },
        {
          "indexed": false,
          "internalType": "uint256",
          "name": "noRequests",
          "type": "uint256"
        },
        {
          "indexed": false,
          "internalType": "address",
          "name": "clientAddress",
          "type": "address"
        },
        {
          "indexed": false,
          "internalType": "bytes32",
          "name": "templateId",
          "type": "bytes32"
        },
        {
          "indexed": false,
          "internalType": "bytes",
          "name": "parameters",
          "type": "bytes"
        }
      ],
      "name": "ClientShortRequestCreated",
      "type": "event"
    },
    {
      "anonymous": false,
      "inputs": [
        {
          "indexed": true,
          "internalType": "bytes32",
          "name": "providerId",
          "type": "bytes32"
        },
        {
          "indexed": true,
          "internalType": "bytes32",
          "name": "endpointId",
          "type": "bytes32"
        },
        {
          "indexed": false,
          "internalType": "address[]",
          "name": "authorizers",
          "type": "address[]"
        }
      ],
      "name": "EndpointUpdated",
      "type": "event"
    },
    {
      "anonymous": false,
      "inputs": [
        {
          "indexed": true,
          "internalType": "bytes32",
          "name": "providerId",
          "type": "bytes32"
        },
        {
          "indexed": false,
          "internalType": "address",
          "name": "admin",
          "type": "address"
        },
        {
          "indexed": false,
          "internalType": "string",
          "name": "xpub",
          "type": "string"
        }
      ],
      "name": "ProviderCreated",
      "type": "event"
    },
    {
      "anonymous": false,
      "inputs": [
        {
          "indexed": true,
          "internalType": "bytes32",
          "name": "providerId",
          "type": "bytes32"
        },
        {
          "indexed": false,
          "internalType": "address",
          "name": "admin",
          "type": "address"
        }
      ],
      "name": "ProviderUpdated",
      "type": "event"
    },
    {
      "anonymous": false,
      "inputs": [
        {
          "indexed": true,
          "internalType": "uint256",
          "name": "requesterInd",
          "type": "uint256"
        },
        {
          "indexed": false,
          "internalType": "address",
          "name": "admin",
          "type": "address"
        }
      ],
      "name": "RequesterCreated",
      "type": "event"
    },
    {
      "anonymous": false,
      "inputs": [
        {
          "indexed": true,
          "internalType": "uint256",
          "name": "requesterInd",
          "type": "uint256"
        },
        {
          "indexed": false,
          "internalType": "address",
          "name": "admin",
          "type": "address"
        }
      ],
      "name": "RequesterUpdated",
      "type": "event"
    },
    {
      "anonymous": false,
      "inputs": [
        {
          "indexed": true,
          "internalType": "bytes32",
          "name": "templateId",
          "type": "bytes32"
        },
        {
          "indexed": false,
          "internalType": "bytes32",
          "name": "providerId",
          "type": "bytes32"
        },
        {
          "indexed": false,
          "internalType": "bytes32",
          "name": "endpointId",
          "type": "bytes32"
        },
        {
          "indexed": false,
          "internalType": "uint256",
          "name": "requesterInd",
          "type": "uint256"
        },
        {
          "indexed": false,
          "internalType": "address",
          "name": "designatedWallet",
          "type": "address"
        },
        {
          "indexed": false,
          "internalType": "address",
          "name": "fulfillAddress",
          "type": "address"
        },
        {
          "indexed": false,
          "internalType": "bytes4",
          "name": "fulfillFunctionId",
          "type": "bytes4"
        },
        {
          "indexed": false,
          "internalType": "bytes",
          "name": "parameters",
          "type": "bytes"
        }
      ],
      "name": "TemplateCreated",
      "type": "event"
    },
    {
      "anonymous": false,
      "inputs": [
        {
          "indexed": true,
          "internalType": "bytes32",
          "name": "providerId",
          "type": "bytes32"
        },
        {
          "indexed": true,
          "internalType": "uint256",
          "name": "requesterInd",
          "type": "uint256"
        },
        {
          "indexed": false,
          "internalType": "bytes32",
          "name": "withdrawalRequestId",
          "type": "bytes32"
        },
        {
          "indexed": false,
          "internalType": "address",
          "name": "designatedWallet",
          "type": "address"
        },
        {
          "indexed": false,
          "internalType": "address",
          "name": "destination",
          "type": "address"
        },
        {
          "indexed": false,
          "internalType": "uint256",
          "name": "amount",
          "type": "uint256"
        }
      ],
      "name": "WithdrawalFulfilled",
      "type": "event"
    },
    {
      "anonymous": false,
      "inputs": [
        {
          "indexed": true,
          "internalType": "bytes32",
          "name": "providerId",
          "type": "bytes32"
        },
        {
          "indexed": true,
          "internalType": "uint256",
          "name": "requesterInd",
          "type": "uint256"
        },
        {
          "indexed": false,
          "internalType": "bytes32",
          "name": "withdrawalRequestId",
          "type": "bytes32"
        },
        {
          "indexed": false,
          "internalType": "address",
          "name": "designatedWallet",
          "type": "address"
        },
        {
          "indexed": false,
          "internalType": "address",
          "name": "destination",
          "type": "address"
        }
      ],
      "name": "WithdrawalRequested",
      "type": "event"
    },
    {
      "inputs": [
        {
          "internalType": "address",
          "name": "admin",
          "type": "address"
        },
        {
          "internalType": "string",
          "name": "xpub",
          "type": "string"
        }
      ],
      "name": "createProvider",
      "outputs": [
        {
          "internalType": "bytes32",
          "name": "providerId",
          "type": "bytes32"
        }
      ],
      "stateMutability": "payable",
      "type": "function"
    },
    {
      "inputs": [
        {
          "internalType": "address",
          "name": "admin",
          "type": "address"
        }
      ],
      "name": "createRequester",
      "outputs": [
        {
          "internalType": "uint256",
          "name": "requesterInd",
          "type": "uint256"
        }
      ],
      "stateMutability": "nonpayable",
      "type": "function"
    },
    {
      "inputs": [
        {
          "internalType": "bytes32",
          "name": "providerId",
          "type": "bytes32"
        },
        {
          "internalType": "bytes32",
          "name": "endpointId",
          "type": "bytes32"
        },
        {
          "internalType": "uint256",
          "name": "requesterInd",
          "type": "uint256"
        },
        {
          "internalType": "address",
          "name": "designatedWallet",
          "type": "address"
        },
        {
          "internalType": "address",
          "name": "fulfillAddress",
          "type": "address"
        },
        {
          "internalType": "bytes4",
          "name": "fulfillFunctionId",
          "type": "bytes4"
        },
        {
          "internalType": "bytes",
          "name": "parameters",
          "type": "bytes"
        }
      ],
      "name": "createTemplate",
      "outputs": [
        {
          "internalType": "bytes32",
          "name": "templateId",
          "type": "bytes32"
        }
      ],
      "stateMutability": "nonpayable",
      "type": "function"
    },
    {
      "inputs": [
        {
          "internalType": "bytes32",
          "name": "requestId",
          "type": "bytes32"
        },
        {
          "internalType": "bytes32",
          "name": "providerId",
          "type": "bytes32"
        },
        {
          "internalType": "address",
          "name": "fulfillAddress",
          "type": "address"
        },
        {
          "internalType": "bytes4",
          "name": "fulfillFunctionId",
          "type": "bytes4"
        }
      ],
      "name": "fail",
      "outputs": [],
      "stateMutability": "nonpayable",
      "type": "function"
    },
    {
      "inputs": [
        {
          "internalType": "bytes32",
          "name": "requestId",
          "type": "bytes32"
        },
        {
          "internalType": "bytes32",
          "name": "providerId",
          "type": "bytes32"
        },
        {
          "internalType": "uint256",
          "name": "statusCode",
          "type": "uint256"
        },
        {
          "internalType": "bytes32",
          "name": "data",
          "type": "bytes32"
        },
        {
          "internalType": "address",
          "name": "fulfillAddress",
          "type": "address"
        },
        {
          "internalType": "bytes4",
          "name": "fulfillFunctionId",
          "type": "bytes4"
        }
      ],
      "name": "fulfill",
      "outputs": [
        {
          "internalType": "bool",
          "name": "callSuccess",
          "type": "bool"
        },
        {
          "internalType": "bytes",
          "name": "callData",
          "type": "bytes"
        }
      ],
      "stateMutability": "nonpayable",
      "type": "function"
    },
    {
      "inputs": [
        {
          "internalType": "bytes32",
          "name": "requestId",
          "type": "bytes32"
        },
        {
          "internalType": "bytes32",
          "name": "providerId",
          "type": "bytes32"
        },
        {
          "internalType": "uint256",
          "name": "statusCode",
          "type": "uint256"
        },
        {
          "internalType": "bytes",
          "name": "data",
          "type": "bytes"
        },
        {
          "internalType": "address",
          "name": "fulfillAddress",
          "type": "address"
        },
        {
          "internalType": "bytes4",
          "name": "fulfillFunctionId",
          "type": "bytes4"
        }
      ],
      "name": "fulfillBytes",
      "outputs": [
        {
          "internalType": "bool",
          "name": "callSuccess",
          "type": "bool"
        },
        {
          "internalType": "bytes",
          "name": "callData",
          "type": "bytes"
        }
      ],
      "stateMutability": "nonpayable",
      "type": "function"
    },
    {
      "inputs": [
        {
          "internalType": "bytes32",
          "name": "withdrawalRequestId",
          "type": "bytes32"
        },
        {
          "internalType": "bytes32",
          "name": "providerId",
          "type": "bytes32"
        },
        {
          "internalType": "uint256",
          "name": "requesterInd",
          "type": "uint256"
        },
        {
          "internalType": "address",
          "name": "destination",
          "type": "address"
        }
      ],
      "name": "fulfillWithdrawal",
      "outputs": [],
      "stateMutability": "payable",
      "type": "function"
    },
    {
      "inputs": [
        {
          "internalType": "bytes32",
          "name": "providerId",
          "type": "bytes32"
        },
        {
          "internalType": "bytes32",
          "name": "endpointId",
          "type": "bytes32"
        }
      ],
      "name": "getEndpointAuthorizers",
      "outputs": [
        {
          "internalType": "address[]",
          "name": "authorizers",
          "type": "address[]"
        }
      ],
      "stateMutability": "view",
      "type": "function"
    },
    {
      "inputs": [
        {
          "internalType": "bytes32",
          "name": "providerId",
          "type": "bytes32"
        }
      ],
      "name": "getProvider",
      "outputs": [
        {
          "internalType": "address",
          "name": "admin",
          "type": "address"
        },
        {
          "internalType": "string",
          "name": "xpub",
          "type": "string"
        }
      ],
      "stateMutability": "view",
      "type": "function"
    },
    {
      "inputs": [
        {
          "internalType": "bytes32",
          "name": "templateId",
          "type": "bytes32"
        }
      ],
      "name": "getTemplate",
      "outputs": [
        {
          "internalType": "bytes32",
          "name": "providerId",
          "type": "bytes32"
        },
        {
          "internalType": "bytes32",
          "name": "endpointId",
          "type": "bytes32"
        },
        {
          "internalType": "uint256",
          "name": "requesterInd",
          "type": "uint256"
        },
        {
          "internalType": "address",
          "name": "designatedWallet",
          "type": "address"
        },
        {
          "internalType": "address",
          "name": "fulfillAddress",
          "type": "address"
        },
        {
          "internalType": "bytes4",
          "name": "fulfillFunctionId",
          "type": "bytes4"
        },
        {
          "internalType": "bytes",
          "name": "parameters",
          "type": "bytes"
        }
      ],
      "stateMutability": "view",
      "type": "function"
    },
    {
      "inputs": [
        {
          "internalType": "bytes32",
          "name": "providerId",
          "type": "bytes32"
        },
        {
          "internalType": "bytes32",
          "name": "endpointId",
          "type": "bytes32"
        },
        {
          "internalType": "uint256",
          "name": "requesterInd",
          "type": "uint256"
        },
        {
          "internalType": "address",
          "name": "designatedWallet",
          "type": "address"
        },
        {
          "internalType": "address",
          "name": "fulfillAddress",
          "type": "address"
        },
        {
          "internalType": "bytes4",
          "name": "fulfillFunctionId",
          "type": "bytes4"
        },
        {
          "internalType": "bytes",
          "name": "parameters",
          "type": "bytes"
        }
      ],
      "name": "makeFullRequest",
      "outputs": [
        {
          "internalType": "bytes32",
          "name": "requestId",
          "type": "bytes32"
        }
      ],
      "stateMutability": "nonpayable",
      "type": "function"
    },
    {
      "inputs": [
        {
          "internalType": "bytes32",
          "name": "templateId",
          "type": "bytes32"
        },
        {
          "internalType": "uint256",
          "name": "requesterInd",
          "type": "uint256"
        },
        {
          "internalType": "address",
          "name": "designatedWallet",
          "type": "address"
        },
        {
          "internalType": "address",
          "name": "fulfillAddress",
          "type": "address"
        },
        {
          "internalType": "bytes4",
          "name": "fulfillFunctionId",
          "type": "bytes4"
        },
        {
          "internalType": "bytes",
          "name": "parameters",
          "type": "bytes"
        }
      ],
      "name": "makeRequest",
      "outputs": [
        {
          "internalType": "bytes32",
          "name": "requestId",
          "type": "bytes32"
        }
      ],
      "stateMutability": "nonpayable",
      "type": "function"
    },
    {
      "inputs": [
        {
          "internalType": "bytes32",
          "name": "templateId",
          "type": "bytes32"
        },
        {
          "internalType": "bytes",
          "name": "parameters",
          "type": "bytes"
        }
      ],
      "name": "makeShortRequest",
      "outputs": [
        {
          "internalType": "bytes32",
          "name": "requestId",
          "type": "bytes32"
        }
      ],
      "stateMutability": "nonpayable",
      "type": "function"
    },
    {
      "inputs": [
        {
          "internalType": "bytes32",
          "name": "",
          "type": "bytes32"
        }
      ],
      "name": "requestWithIdHasFailed",
      "outputs": [
        {
          "internalType": "bool",
          "name": "",
          "type": "bool"
        }
      ],
      "stateMutability": "view",
      "type": "function"
    },
    {
      "inputs": [
        {
          "internalType": "bytes32",
          "name": "providerId",
          "type": "bytes32"
        },
        {
          "internalType": "uint256",
          "name": "requesterInd",
          "type": "uint256"
        },
        {
          "internalType": "address",
          "name": "designatedWallet",
          "type": "address"
        },
        {
          "internalType": "address",
          "name": "destination",
          "type": "address"
        }
      ],
      "name": "requestWithdrawal",
      "outputs": [],
      "stateMutability": "nonpayable",
      "type": "function"
    },
    {
      "inputs": [
        {
          "internalType": "uint256",
          "name": "",
          "type": "uint256"
        }
      ],
      "name": "requesterIndToAdmin",
      "outputs": [
        {
          "internalType": "address",
          "name": "",
          "type": "address"
        }
      ],
      "stateMutability": "view",
      "type": "function"
    },
    {
      "inputs": [
        {
          "internalType": "uint256",
          "name": "",
          "type": "uint256"
        },
        {
          "internalType": "address",
          "name": "",
          "type": "address"
        }
      ],
      "name": "requesterIndToClientAddressToEndorsementStatus",
      "outputs": [
        {
          "internalType": "bool",
          "name": "",
          "type": "bool"
        }
      ],
      "stateMutability": "view",
      "type": "function"
    },
    {
      "inputs": [
        {
          "internalType": "uint256",
          "name": "requesterInd",
          "type": "uint256"
        },
        {
          "internalType": "address",
          "name": "clientAddress",
          "type": "address"
        },
        {
          "internalType": "bool",
          "name": "endorsementStatus",
          "type": "bool"
        }
      ],
      "name": "updateClientEndorsementStatus",
      "outputs": [],
      "stateMutability": "nonpayable",
      "type": "function"
    },
    {
      "inputs": [
        {
          "internalType": "bytes32",
          "name": "providerId",
          "type": "bytes32"
        },
        {
          "internalType": "bytes32",
          "name": "endpointId",
          "type": "bytes32"
        },
        {
          "internalType": "address[]",
          "name": "authorizers",
          "type": "address[]"
        }
      ],
      "name": "updateEndpointAuthorizers",
      "outputs": [],
      "stateMutability": "nonpayable",
      "type": "function"
    },
    {
      "inputs": [
        {
          "internalType": "bytes32",
          "name": "providerId",
          "type": "bytes32"
        },
        {
          "internalType": "address",
          "name": "admin",
          "type": "address"
        }
      ],
      "name": "updateProvider",
      "outputs": [],
      "stateMutability": "nonpayable",
      "type": "function"
    },
    {
      "inputs": [
        {
          "internalType": "uint256",
          "name": "requesterInd",
          "type": "uint256"
        },
        {
          "internalType": "address",
          "name": "admin",
          "type": "address"
        }
      ],
      "name": "updateRequesterAdmin",
      "outputs": [],
      "stateMutability": "nonpayable",
      "type": "function"
    }
  ],
  "address": "0xe92365D93A95eC54564A0d823Bc5Cb63d950a058",
  "args": [],
  "solcInputHash": "0x38aca72de7e78cbd007900ae97f6715cda418c492f8553e857001c58362fe1fa",
  "bytecode": "0x6080604052600160025560006005556000600a5534801561001f57600080fd5b5061382a8061002f6000396000f3fe60806040526004361061012a5760003560e01c80635e886236116100ab578063dce9c2761161006f578063dce9c27614610b76578063dfd22ded14610c97578063ef03808c14610d31578063ef1aebd914610dde578063f0864e3714610e39578063fe0d4bf614610e945761012a565b80635e886236146107f45780639757739b146109155780639949f14b14610a3e578063bf0aa8c714610a8f578063c2534fce14610b145761012a565b806333c0950a116100f257806333c0950a146103c557806334989ad0146104965780633b6cc28f146105ad57806344e1a2be1461061457806357225e1b146106855761012a565b8063270911531461012f5780632ac94301146101d35780632b70ec55146102385780632edc5dc7146102d257806332ec107714610360575b600080fd5b34801561013b57600080fd5b506101bd6004803603604081101561015257600080fd5b81019080803590602001909291908035906020019064010000000081111561017957600080fd5b82018360208201111561018b57600080fd5b803590602001918460018302840111640100000000831117156101ad57600080fd5b9091929391929390505050610fb8565b6040518082815260200191505060405180910390f35b3480156101df57600080fd5b5061020c600480360360208110156101f657600080fd5b81019080803590602001909291905050506112db565b604051808273ffffffffffffffffffffffffffffffffffffffff16815260200191505060405180910390f35b34801561024457600080fd5b506102d06004803603606081101561025b57600080fd5b8101908080359060200190929190803590602001909291908035906020019064010000000081111561028c57600080fd5b82018360208201111561029e57600080fd5b803590602001918460208302840111640100000000831117156102c057600080fd5b909192939192939050505061130e565b005b3480156102de57600080fd5b5061035e600480360360808110156102f557600080fd5b810190808035906020019092919080359060200190929190803573ffffffffffffffffffffffffffffffffffffffff16906020019092919080357bffffffffffffffffffffffffffffffffffffffffffffffffffffffff19169060200190929190505050611489565b005b34801561036c57600080fd5b506103af6004803603602081101561038357600080fd5b81019080803573ffffffffffffffffffffffffffffffffffffffff16906020019092919050505061162f565b6040518082815260200191505060405180910390f35b3480156103d157600080fd5b506103fe600480360360208110156103e857600080fd5b81019080803590602001909291905050506116e8565b604051808373ffffffffffffffffffffffffffffffffffffffff16815260200180602001828103825283818151815260200191508051906020019080838360005b8381101561045a57808201518184015260208101905061043f565b50505050905090810190601f1680156104875780820380516001836020036101000a031916815260200191505b50935050505060405180910390f35b3480156104a257600080fd5b50610597600480360360c08110156104b957600080fd5b810190808035906020019092919080359060200190929190803573ffffffffffffffffffffffffffffffffffffffff169060200190929190803573ffffffffffffffffffffffffffffffffffffffff16906020019092919080357bffffffffffffffffffffffffffffffffffffffffffffffffffffffff191690602001909291908035906020019064010000000081111561055357600080fd5b82018360208201111561056557600080fd5b8035906020019184600183028401116401000000008311171561058757600080fd5b90919293919293905050506117db565b6040518082815260200191505060405180910390f35b3480156105b957600080fd5b50610612600480360360608110156105d057600080fd5b8101908080359060200190929190803573ffffffffffffffffffffffffffffffffffffffff169060200190929190803515159060200190929190505050611afb565b005b34801561062057600080fd5b5061066d6004803603604081101561063757600080fd5b8101908080359060200190929190803573ffffffffffffffffffffffffffffffffffffffff169060200190929190505050611c8e565b60405180821515815260200191505060405180910390f35b34801561069157600080fd5b50610770600480360360c08110156106a857600080fd5b81019080803590602001909291908035906020019092919080359060200190929190803590602001906401000000008111156106e357600080fd5b8201836020820111156106f557600080fd5b8035906020019184600183028401116401000000008311171561071757600080fd5b9091929391929390803573ffffffffffffffffffffffffffffffffffffffff16906020019092919080357bffffffffffffffffffffffffffffffffffffffffffffffffffffffff19169060200190929190505050611cbd565b60405180831515815260200180602001828103825283818151815260200191508051906020019080838360005b838110156107b857808201518184015260208101905061079d565b50505050905090810190601f1680156107e55780820380516001836020036101000a031916815260200191505b50935050505060405180910390f35b34801561080057600080fd5b506108ff600480360360e081101561081757600080fd5b81019080803590602001909291908035906020019092919080359060200190929190803573ffffffffffffffffffffffffffffffffffffffff169060200190929190803573ffffffffffffffffffffffffffffffffffffffff16906020019092919080357bffffffffffffffffffffffffffffffffffffffffffffffffffffffff19169060200190929190803590602001906401000000008111156108bb57600080fd5b8201836020820111156108cd57600080fd5b803590602001918460018302840111640100000000831117156108ef57600080fd5b9091929391929390505050611fe2565b6040518082815260200191505060405180910390f35b34801561092157600080fd5b5061094e6004803603602081101561093857600080fd5b8101908080359060200190929190505050612364565b604051808881526020018781526020018681526020018573ffffffffffffffffffffffffffffffffffffffff1681526020018473ffffffffffffffffffffffffffffffffffffffff168152602001837bffffffffffffffffffffffffffffffffffffffffffffffffffffffff1916815260200180602001828103825283818151815260200191508051906020019080838360005b838110156109fd5780820151818401526020810190506109e2565b50505050905090810190601f168015610a2a5780820380516001836020036101000a031916815260200191505b509850505050505050505060405180910390f35b348015610a4a57600080fd5b50610a7760048036036020811015610a6157600080fd5b810190808035906020019092919050505061250e565b60405180821515815260200191505060405180910390f35b348015610a9b57600080fd5b50610b1260048036036080811015610ab257600080fd5b810190808035906020019092919080359060200190929190803573ffffffffffffffffffffffffffffffffffffffff169060200190929190803573ffffffffffffffffffffffffffffffffffffffff16906020019092919050505061252e565b005b610b7460048036036080811015610b2a57600080fd5b81019080803590602001909291908035906020019092919080359060200190929190803573ffffffffffffffffffffffffffffffffffffffff169060200190929190505050612769565b005b348015610b8257600080fd5b50610c81600480360360e0811015610b9957600080fd5b81019080803590602001909291908035906020019092919080359060200190929190803573ffffffffffffffffffffffffffffffffffffffff169060200190929190803573ffffffffffffffffffffffffffffffffffffffff16906020019092919080357bffffffffffffffffffffffffffffffffffffffffffffffffffffffff1916906020019092919080359060200190640100000000811115610c3d57600080fd5b820183602082011115610c4f57600080fd5b80359060200191846001830284011164010000000083111715610c7157600080fd5b90919293919293905050506129de565b6040518082815260200191505060405180910390f35b348015610ca357600080fd5b50610cda60048036036040811015610cba57600080fd5b810190808035906020019092919080359060200190929190505050612ceb565b6040518080602001828103825283818151815260200191508051906020019060200280838360005b83811015610d1d578082015181840152602081019050610d02565b505050509050019250505060405180910390f35b610dc860048036036040811015610d4757600080fd5b81019080803573ffffffffffffffffffffffffffffffffffffffff16906020019092919080359060200190640100000000811115610d8457600080fd5b820183602082011115610d9657600080fd5b80359060200191846001830284011164010000000083111715610db857600080fd5b9091929391929390505050612d9e565b6040518082815260200191505060405180910390f35b348015610dea57600080fd5b50610e3760048036036040811015610e0157600080fd5b8101908080359060200190929190803573ffffffffffffffffffffffffffffffffffffffff169060200190929190505050613038565b005b348015610e4557600080fd5b50610e9260048036036040811015610e5c57600080fd5b8101908080359060200190929190803573ffffffffffffffffffffffffffffffffffffffff1690602001909291905050506131b0565b005b348015610ea057600080fd5b50610f34600480360360c0811015610eb757600080fd5b8101908080359060200190929190803590602001909291908035906020019092919080359060200190929190803573ffffffffffffffffffffffffffffffffffffffff16906020019092919080357bffffffffffffffffffffffffffffffffffffffffffffffffffffffff19169060200190929190505050613330565b60405180831515815260200180602001828103825283818151815260200191508051906020019080838360005b83811015610f7c578082015181840152602081019050610f61565b50505050905090810190601f168015610fa95780820380516001836020036101000a031916815260200191505b50935050505060405180910390f35b600080600760008681526020019081526020016000209050600160008260020154815260200190815260200160002060003373ffffffffffffffffffffffffffffffffffffffff1673ffffffffffffffffffffffffffffffffffffffff16815260200190815260200160002060009054906101000a900460ff166110a4576040517f08c379a00000000000000000000000000000000000000000000000000000000081526004018080602001828103825260208152602001807f436c69656e74206e6f7420656e646f727365642062792072657175657374657281525060200191505060405180910390fd5b600a5485858560405160200180858152602001848152602001806020018281038252848482818152602001925080828437600081840152601f19601f8201169050808301925050509550505050505060405160208183030381529060405280519060200120915080600001548160030160009054906101000a900473ffffffffffffffffffffffffffffffffffffffff168260040160009054906101000a900473ffffffffffffffffffffffffffffffffffffffff168360040160149054906101000a900460e01b604051602001808581526020018473ffffffffffffffffffffffffffffffffffffffff1660601b81526014018373ffffffffffffffffffffffffffffffffffffffff1660601b8152601401827bffffffffffffffffffffffffffffffffffffffffffffffffffffffff1916815260040194505050505060405160208183030381529060405280519060200120600860008481526020019081526020016000208190555060076000868152602001908152602001600020600001547ffcbcd5adb2d26ecd4ad50e6267e977fd479fcd0a6c82bde8eea85290ab3b46e683600a5433898989604051808781526020018681526020018573ffffffffffffffffffffffffffffffffffffffff168152602001848152602001806020018281038252848482818152602001925080828437600081840152601f19601f82011690508083019250505097505050505050505060405180910390a2600a60008154809291906001019190505550509392505050565b60006020528060005260406000206000915054906101000a900473ffffffffffffffffffffffffffffffffffffffff1681565b836003600082815260200190815260200160002060000160009054906101000a900473ffffffffffffffffffffffffffffffffffffffff1673ffffffffffffffffffffffffffffffffffffffff163373ffffffffffffffffffffffffffffffffffffffff16146113e6576040517f08c379a000000000000000000000000000000000000000000000000000000000815260040180806020018281038252601c8152602001807f43616c6c6572206973206e6f742070726f76696465722061646d696e0000000081525060200191505060405180910390fd5b828260066000888152602001908152602001600020600087815260200190815260200160002091906114199291906135fc565b5083857fe5687475d94be4622dec0d6fa4db8686e003947facd485b0f4685954b8e93aa8858560405180806020018281038252848482818152602001925060200280828437600081840152601f19601f820116905080830192505050935050505060405180910390a35050505050565b83838383600083338484604051602001808581526020018473ffffffffffffffffffffffffffffffffffffffff1660601b81526014018373ffffffffffffffffffffffffffffffffffffffff1660601b8152601401827bffffffffffffffffffffffffffffffffffffffffffffffffffffffff19168152600401945050505050604051602081830303815290604052805190602001209050600860008681526020019081526020016000205481146115a9576040517f08c379a00000000000000000000000000000000000000000000000000000000081526004018080602001828103825260208152602001807f496e636f72726563742066756c66696c6c6d656e7420706172616d657465727381525060200191505060405180910390fd5b600860008a8152602001908152602001600020600090556001600960008b815260200190815260200160002060006101000a81548160ff021916908315150217905550877f1cfdd5ace64f15111ef8ed9df04364d0e9a9165cccf8386109347e54661ba3ad8a6040518082815260200191505060405180910390a2505050505050505050565b6000600260008154809291906001019190505590508160008083815260200190815260200160002060006101000a81548173ffffffffffffffffffffffffffffffffffffffff021916908373ffffffffffffffffffffffffffffffffffffffff160217905550807f59e98f4c18a6c92efe8c23bcbd74f0d71e271eebf9a95f9edefdbee17c01f27083604051808273ffffffffffffffffffffffffffffffffffffffff16815260200191505060405180910390a2919050565b600060606003600084815260200190815260200160002060000160009054906101000a900473ffffffffffffffffffffffffffffffffffffffff169150600360008481526020019081526020016000206001018054600181600116156101000203166002900480601f0160208091040260200160405190810160405280929190818152602001828054600181600116156101000203166002900480156117cf5780601f106117a4576101008083540402835291602001916117cf565b820191906000526020600020905b8154815290600101906020018083116117b257829003601f168201915b50505050509050915091565b60006001600088815260200190815260200160002060003373ffffffffffffffffffffffffffffffffffffffff1673ffffffffffffffffffffffffffffffffffffffff16815260200190815260200160002060009054906101000a900460ff166118ad576040517f08c379a00000000000000000000000000000000000000000000000000000000081526004018080602001828103825260208152602001807f436c69656e74206e6f7420656e646f727365642062792072657175657374657281525060200191505060405180910390fd5b600a5488848460405160200180858152602001848152602001806020018281038252848482818152602001925080828437600081840152601f19601f820116905080830192505050955050505050506040516020818303038152906040528051906020012090506000600760008a815260200190815260200160002060000154905080878787604051602001808581526020018473ffffffffffffffffffffffffffffffffffffffff1660601b81526014018373ffffffffffffffffffffffffffffffffffffffff1660601b8152601401827bffffffffffffffffffffffffffffffffffffffffffffffffffffffff19168152600401945050505050604051602081830303815290604052805190602001206008600084815260200190815260200160002081905550807faff6f5e5548953a11cbb1cfdd76562512f969b0eba0a2163f2420630d4dda97b83600a54338d8d8d8d8d8d8d604051808b81526020018a81526020018973ffffffffffffffffffffffffffffffffffffffff1681526020018881526020018781526020018673ffffffffffffffffffffffffffffffffffffffff1681526020018573ffffffffffffffffffffffffffffffffffffffff168152602001847bffffffffffffffffffffffffffffffffffffffffffffffffffffffff19168152602001806020018281038252848482818152602001925080828437600081840152601f19601f8201169050808301925050509b50505050505050505050505060405180910390a2600a6000815480929190600101919050555050979650505050505050565b8260008082815260200190815260200160002060009054906101000a900473ffffffffffffffffffffffffffffffffffffffff1673ffffffffffffffffffffffffffffffffffffffff163373ffffffffffffffffffffffffffffffffffffffff1614611bcf576040517f08c379a000000000000000000000000000000000000000000000000000000000815260040180806020018281038252601d8152602001807f43616c6c6572206973206e6f74207265717565737465722061646d696e00000081525060200191505060405180910390fd5b816001600086815260200190815260200160002060008573ffffffffffffffffffffffffffffffffffffffff1673ffffffffffffffffffffffffffffffffffffffff16815260200190815260200160002060006101000a81548160ff0219169083151502179055508273ffffffffffffffffffffffffffffffffffffffff16847f8acbd28af1fec329994543393007c74ebc717caab62689ba09fbf938f015d3fc8460405180821515815260200191505060405180910390a350505050565b60016020528160005260406000206020528060005260406000206000915091509054906101000a900460ff1681565b6000606088888585600083338484604051602001808581526020018473ffffffffffffffffffffffffffffffffffffffff1660601b81526014018373ffffffffffffffffffffffffffffffffffffffff1660601b8152601401827bffffffffffffffffffffffffffffffffffffffffffffffffffffffff1916815260040194505050505060405160208183030381529060405280519060200120905060086000868152602001908152602001600020548114611de1576040517f08c379a00000000000000000000000000000000000000000000000000000000081526004018080602001828103825260208152602001807f496e636f72726563742066756c66696c6c6d656e7420706172616d657465727381525060200191505060405180910390fd5b600860008f8152602001908152602001600020600090558c7f0ebeb9b9b5c4baf915e7541c7e0919dd1a58eb06ee596035a50d08d20b9219de8f8e8e8e60405180858152602001848152602001806020018281038252848482818152602001925080828437600081840152601f19601f8201169050808301925050509550505050505060405180910390a28873ffffffffffffffffffffffffffffffffffffffff16888f8e8e8e60405160240180858152602001848152602001806020018281038252848482818152602001925080828437600081840152601f19601f82011690508083019250505095505050505050604051602081830303815290604052907bffffffffffffffffffffffffffffffffffffffffffffffffffffffff19166020820180517bffffffffffffffffffffffffffffffffffffffffffffffffffffffff83818316178352505050506040518082805190602001908083835b60208310611f615780518252602082019150602081019050602083039250611f3e565b6001836020036101000a0380198251168184511680821785525050505050509050019150506000604051808303816000865af19150503d8060008114611fc3576040519150601f19603f3d011682016040523d82523d6000602084013e611fc8565b606091505b508097508198505050505050505097509795505050505050565b60008888888888888888604051602001808981526020018881526020018781526020018673ffffffffffffffffffffffffffffffffffffffff1681526020018573ffffffffffffffffffffffffffffffffffffffff168152602001847bffffffffffffffffffffffffffffffffffffffffffffffffffffffff19168152602001806020018281038252848482818152602001925080828437600081840152601f19601f82011690508083019250505099505050505050505050506040516020818303038152906040528051906020012090506040518060e001604052808a81526020018981526020018881526020018773ffffffffffffffffffffffffffffffffffffffff1681526020018673ffffffffffffffffffffffffffffffffffffffff168152602001857bffffffffffffffffffffffffffffffffffffffffffffffffffffffff1916815260200184848080601f016020809104026020016040519081016040528093929190818152602001838380828437600081840152601f19601f820116905080830192505050505050508152506007600083815260200190815260200160002060008201518160000155602082015181600101556040820151816002015560608201518160030160006101000a81548173ffffffffffffffffffffffffffffffffffffffff021916908373ffffffffffffffffffffffffffffffffffffffff16021790555060808201518160040160006101000a81548173ffffffffffffffffffffffffffffffffffffffff021916908373ffffffffffffffffffffffffffffffffffffffff16021790555060a08201518160040160146101000a81548163ffffffff021916908360e01c021790555060c082015181600501908051906020019061227592919061369c565b50905050807ffa33b8597a1a83305d334562a90f8b4ce657e1b33c081423b6a44792d1cf41a48a8a8a8a8a8a8a8a604051808981526020018881526020018781526020018673ffffffffffffffffffffffffffffffffffffffff1681526020018573ffffffffffffffffffffffffffffffffffffffff168152602001847bffffffffffffffffffffffffffffffffffffffffffffffffffffffff19168152602001806020018281038252848482818152602001925080828437600081840152601f19601f820116905080830192505050995050505050505050505060405180910390a298975050505050505050565b60008060008060008060606007600089815260200190815260200160002060000154965060076000898152602001908152602001600020600101549550600760008981526020019081526020016000206002015494506007600089815260200190815260200160002060030160009054906101000a900473ffffffffffffffffffffffffffffffffffffffff1693506007600089815260200190815260200160002060040160009054906101000a900473ffffffffffffffffffffffffffffffffffffffff1692506007600089815260200190815260200160002060040160149054906101000a900460e01b9150600760008981526020019081526020016000206005018054600181600116156101000203166002900480601f0160208091040260200160405190810160405280929190818152602001828054600181600116156101000203166002900480156124fc5780601f106124d1576101008083540402835291602001916124fc565b820191906000526020600020905b8154815290600101906020018083116124df57829003601f168201915b50505050509050919395979092949650565b60096020528060005260406000206000915054906101000a900460ff1681565b8260008082815260200190815260200160002060009054906101000a900473ffffffffffffffffffffffffffffffffffffffff1673ffffffffffffffffffffffffffffffffffffffff163373ffffffffffffffffffffffffffffffffffffffff1614612602576040517f08c379a000000000000000000000000000000000000000000000000000000000815260040180806020018281038252601d8152602001807f43616c6c6572206973206e6f74207265717565737465722061646d696e00000081525060200191505060405180910390fd5b6000306005600081548092919060010191905055604051602001808373ffffffffffffffffffffffffffffffffffffffff1660601b815260140182815260200192505050604051602081830303815290604052805190602001209050600086868686604051602001808581526020018481526020018373ffffffffffffffffffffffffffffffffffffffff1660601b81526014018273ffffffffffffffffffffffffffffffffffffffff1660601b815260140194505050505060405160208183030381529060405280519060200120905080600460008481526020019081526020016000208190555085877f3d0ebccb4fc9730699221da0180970852f595ed5c78781346149123cbbe9f1d3848888604051808481526020018373ffffffffffffffffffffffffffffffffffffffff1681526020018273ffffffffffffffffffffffffffffffffffffffff168152602001935050505060405180910390a350505050505050565b600083833384604051602001808581526020018481526020018373ffffffffffffffffffffffffffffffffffffffff1660601b81526014018273ffffffffffffffffffffffffffffffffffffffff1660601b815260140194505050505060405160208183030381529060405280519060200120905080600460008781526020019081526020016000205414612866576040517f08c379a000000000000000000000000000000000000000000000000000000000815260040180806020018281038252601a8152602001807f4e6f2073756368207769746864726177616c207265717565737400000000000081525060200191505060405180910390fd5b600460008681526020019081526020016000206000905582847f9e7b58b29aa3b972bb0f457499d0dfd00bf23905b0c3358fb864e7120402aefa87338634604051808581526020018473ffffffffffffffffffffffffffffffffffffffff1681526020018373ffffffffffffffffffffffffffffffffffffffff16815260200182815260200194505050505060405180910390a360008273ffffffffffffffffffffffffffffffffffffffff163460405180600001905060006040518083038185875af1925050503d806000811461295a576040519150601f19603f3d011682016040523d82523d6000602084013e61295f565b606091505b50509050806129d6576040517f08c379a000000000000000000000000000000000000000000000000000000000815260040180806020018281038252600f8152602001807f5472616e73666572206661696c6564000000000000000000000000000000000081525060200191505060405180910390fd5b505050505050565b60006001600088815260200190815260200160002060003373ffffffffffffffffffffffffffffffffffffffff1673ffffffffffffffffffffffffffffffffffffffff16815260200190815260200160002060009054906101000a900460ff16612ab0576040517f08c379a00000000000000000000000000000000000000000000000000000000081526004018080602001828103825260208152602001807f436c69656e74206e6f7420656e646f727365642062792072657175657374657281525060200191505060405180910390fd5b600a548989858560405160200180868152602001858152602001848152602001806020018281038252848482818152602001925080828437600081840152601f19601f820116905080830192505050965050505050505060405160208183030381529060405280519060200120905088868686604051602001808581526020018473ffffffffffffffffffffffffffffffffffffffff1660601b81526014018373ffffffffffffffffffffffffffffffffffffffff1660601b8152601401827bffffffffffffffffffffffffffffffffffffffffffffffffffffffff19168152600401945050505050604051602081830303815290604052805190602001206008600083815260200190815260200160002081905550887f775e78a8e7375d14ad03d31edd0a27b29a055f732bca987abfe8082c16ed7e4482600a54338c8c8c8c8c8c8c604051808b81526020018a81526020018973ffffffffffffffffffffffffffffffffffffffff1681526020018881526020018781526020018673ffffffffffffffffffffffffffffffffffffffff1681526020018573ffffffffffffffffffffffffffffffffffffffff168152602001847bffffffffffffffffffffffffffffffffffffffffffffffffffffffff19168152602001806020018281038252848482818152602001925080828437600081840152601f19601f8201169050808301925050509b50505050505050505050505060405180910390a2600a6000815480929190600101919050555098975050505050505050565b6060600660008481526020019081526020016000206000838152602001908152602001600020805480602002602001604051908101604052809291908181526020018280548015612d9157602002820191906000526020600020905b8160009054906101000a900473ffffffffffffffffffffffffffffffffffffffff1673ffffffffffffffffffffffffffffffffffffffff1681526020019060010190808311612d47575b5050505050905092915050565b600033604051602001808273ffffffffffffffffffffffffffffffffffffffff16815260200191505060405160208183030381529060405280519060200120905060405180604001604052808573ffffffffffffffffffffffffffffffffffffffff16815260200184848080601f016020809104026020016040519081016040528093929190818152602001838380828437600081840152601f19601f820116905080830192505050505050508152506003600083815260200190815260200160002060008201518160000160006101000a81548173ffffffffffffffffffffffffffffffffffffffff021916908373ffffffffffffffffffffffffffffffffffffffff1602179055506020820151816001019080519060200190612ec492919061371c565b50905050807f36ef18ad81b13124b66c80d27059d75bfadf09474c46aee8bb4ae998a921196d858585604051808473ffffffffffffffffffffffffffffffffffffffff168152602001806020018281038252848482818152602001925080828437600081840152601f19601f82011690508083019250505094505050505060405180910390a260003411156130315760008473ffffffffffffffffffffffffffffffffffffffff163460405180600001905060006040518083038185875af1925050503d8060008114612fb3576040519150601f19603f3d011682016040523d82523d6000602084013e612fb8565b606091505b505090508061302f576040517f08c379a000000000000000000000000000000000000000000000000000000000815260040180806020018281038252600f8152602001807f5472616e73666572206661696c6564000000000000000000000000000000000081525060200191505060405180910390fd5b505b9392505050565b8160008082815260200190815260200160002060009054906101000a900473ffffffffffffffffffffffffffffffffffffffff1673ffffffffffffffffffffffffffffffffffffffff163373ffffffffffffffffffffffffffffffffffffffff161461310c576040517f08c379a000000000000000000000000000000000000000000000000000000000815260040180806020018281038252601d8152602001807f43616c6c6572206973206e6f74207265717565737465722061646d696e00000081525060200191505060405180910390fd5b8160008085815260200190815260200160002060006101000a81548173ffffffffffffffffffffffffffffffffffffffff021916908373ffffffffffffffffffffffffffffffffffffffff160217905550827fde26d3d8fc98a8dab0df21ef2146d313da1a060d635f3ce9b42adab32fa992aa83604051808273ffffffffffffffffffffffffffffffffffffffff16815260200191505060405180910390a2505050565b816003600082815260200190815260200160002060000160009054906101000a900473ffffffffffffffffffffffffffffffffffffffff1673ffffffffffffffffffffffffffffffffffffffff163373ffffffffffffffffffffffffffffffffffffffff1614613288576040517f08c379a000000000000000000000000000000000000000000000000000000000815260040180806020018281038252601c8152602001807f43616c6c6572206973206e6f742070726f76696465722061646d696e0000000081525060200191505060405180910390fd5b816003600085815260200190815260200160002060000160006101000a81548173ffffffffffffffffffffffffffffffffffffffff021916908373ffffffffffffffffffffffffffffffffffffffff160217905550827fb7de80d002230ae37dd9e25804e78c41517296ad969a962ef5457be94cb8ac6e83604051808273ffffffffffffffffffffffffffffffffffffffff16815260200191505060405180910390a2505050565b6000606087878585600083338484604051602001808581526020018473ffffffffffffffffffffffffffffffffffffffff1660601b81526014018373ffffffffffffffffffffffffffffffffffffffff1660601b8152601401827bffffffffffffffffffffffffffffffffffffffffffffffffffffffff1916815260040194505050505060405160208183030381529060405280519060200120905060086000868152602001908152602001600020548114613454576040517f08c379a00000000000000000000000000000000000000000000000000000000081526004018080602001828103825260208152602001807f496e636f72726563742066756c66696c6c6d656e7420706172616d657465727381525060200191505060405180910390fd5b600860008e8152602001908152602001600020600090558b7f1bdbe9e5d42a025a741fc3582eb3cad4ef61ac742d83cc87e545fbd481b926b58e8d8d60405180848152602001838152602001828152602001935050505060405180910390a28873ffffffffffffffffffffffffffffffffffffffff16888e8d8d604051602401808481526020018381526020018281526020019350505050604051602081830303815290604052907bffffffffffffffffffffffffffffffffffffffffffffffffffffffff19166020820180517bffffffffffffffffffffffffffffffffffffffffffffffffffffffff83818316178352505050506040518082805190602001908083835b6020831061357c5780518252602082019150602081019050602083039250613559565b6001836020036101000a0380198251168184511680821785525050505050509050019150506000604051808303816000865af19150503d80600081146135de576040519150601f19603f3d011682016040523d82523d6000602084013e6135e3565b606091505b5080975081985050505050505050965096945050505050565b82805482825590600052602060002090810192821561368b579160200282015b8281111561368a57823573ffffffffffffffffffffffffffffffffffffffff168260006101000a81548173ffffffffffffffffffffffffffffffffffffffff021916908373ffffffffffffffffffffffffffffffffffffffff1602179055509160200191906001019061361c565b5b509050613698919061379c565b5090565b828054600181600116156101000203166002900490600052602060002090601f016020900481019282601f106136dd57805160ff191683800117855561370b565b8280016001018555821561370b579182015b8281111561370a5782518255916020019190600101906136ef565b5b50905061371891906137d7565b5090565b828054600181600116156101000203166002900490600052602060002090601f016020900481019282601f1061375d57805160ff191683800117855561378b565b8280016001018555821561378b579182015b8281111561378a57825182559160200191906001019061376f565b5b50905061379891906137d7565b5090565b5b808211156137d357600081816101000a81549073ffffffffffffffffffffffffffffffffffffffff02191690555060010161379d565b5090565b5b808211156137f05760008160009055506001016137d8565b509056fea2646970667358221220dad124d9046e6c0a82fd72bf789ffc409b48e83dbc63a463476739ac65e4e7a864736f6c634300060c0033",
  "devdoc": {
    "kind": "dev",
    "methods": {
      "createProvider(address,string)": {
        "details": "The oracle node should calculate their providerId off-chain and retrieve its details with a getProvider() call. If the xpub is does not match, it should call this method to update the provider record. Note that the provider private key can be used to update admin through this method. This is allowed on purpose, as the provider private key is more privileged than the provider admin account.",
        "params": {
          "admin": "Provider admin",
          "xpub": "Master public key of the provider node"
        },
        "returns": {
          "providerId": "Provider ID"
        }
      },
      "createRequester(address)": {
        "params": {
          "admin": "Requester admin"
        },
        "returns": {
          "requesterInd": "Requester index"
        }
      },
      "createTemplate(bytes32,bytes32,uint256,address,address,bytes4,bytes)": {
        "details": "A specific set of request parameters will always have the same ID. This means a few things: (1) You can compute the expected ID of a set of parameters off-chain, (2) creating a new template with the same parameters will overwrite the old one and return the same template ID, (3) after you query a template with its ID, you can verify its integrity by applying the hash and comparing the result with the ID.",
        "params": {
          "designatedWallet": "Designated wallet that is requested to fulfill the request",
          "endpointId": "Endpoint ID from EndpointStore",
          "fulfillAddress": "Address that will be called to fulfill",
          "fulfillFunctionId": "Signature of the function that will be called to fulfill",
          "parameters": "Static request parameters (i.e., parameters that will not change between requests, unlike the dynamic parameters determined at runtime)",
          "providerId": "Provider ID from ProviderStore",
          "requesterInd": "Requester index from RequesterStore"
        },
        "returns": {
          "templateId": "Request template ID"
        }
      },
      "fail(bytes32,bytes32,address,bytes4)": {
        "details": "The oracle should fall back to this if a request cannot be fulfilled because fulfill() reverts",
        "params": {
          "fulfillAddress": "Address that will be called to fulfill",
          "fulfillFunctionId": "Signature of the function that will be called to fulfill",
          "providerId": "Provider ID from ProviderStore",
          "requestId": "Request ID"
        }
      },
      "fulfill(bytes32,bytes32,uint256,bytes32,address,bytes4)": {
        "params": {
          "data": "Fulfillment data",
          "fulfillAddress": "Address that will be called to fulfill",
          "fulfillFunctionId": "Signature of the function that will be called to fulfill",
          "providerId": "Provider ID from ProviderStore",
          "requestId": "Request ID",
          "statusCode": "Status code of the fulfillment"
        },
        "returns": {
          "callData": "Data returned by the fulfillment call (if there is any)",
          "callSuccess": "If the fulfillment call succeeded"
        }
      },
      "fulfillBytes(bytes32,bytes32,uint256,bytes,address,bytes4)": {
        "details": "The oracle uses this method to fulfill if the requester has specifically asked for a bytes type response",
        "params": {
          "data": "Fulfillment data of type bytes",
          "fulfillAddress": "Address that will be called to fulfill",
          "fulfillFunctionId": "Signature of the function that will be called to fulfill",
          "providerId": "Provider ID from ProviderStore",
          "requestId": "Request ID",
          "statusCode": "Status code of the fulfillment"
        },
        "returns": {
          "callData": "Data returned by the fulfillment call (if there is any)",
          "callSuccess": "If the fulfillment call succeeded"
        }
      },
      "fulfillWithdrawal(bytes32,bytes32,uint256,address)": {
        "details": "The oracle node sends the funds through this method to emit an event that indicates that the withdrawal request has been fulfilled",
        "params": {
          "destination": "Withdrawal destination",
          "providerId": "Provider ID",
          "requesterInd": "Requester index from RequesterStore"
        }
      },
      "getEndpointAuthorizers(bytes32,bytes32)": {
        "params": {
          "endpointId": "Endpoint ID",
          "providerId": "Provider ID from ProviderStore"
        },
        "returns": {
          "authorizers": "Authorizer contract addresses"
        }
      },
      "getProvider(bytes32)": {
        "params": {
          "providerId": "Provider ID"
        },
        "returns": {
          "admin": "Provider admin",
          "xpub": "Master public key of the provider node"
        }
      },
      "getTemplate(bytes32)": {
        "params": {
          "templateId": "Request template ID"
        },
        "returns": {
          "designatedWallet": "Designated wallet that is requested to fulfill the request",
          "endpointId": "Endpoint ID from EndpointStore",
          "fulfillAddress": "Address that will be called to fulfill",
          "fulfillFunctionId": "Signature of the function that will be called to fulfill",
          "parameters": "Static request parameters (i.e., parameters that will not change between requests, unlike the dynamic parameters determined at runtime)",
          "providerId": "Provider ID from ProviderStore",
          "requesterInd": "Requester index from RequesterStore"
        }
      },
      "makeFullRequest(bytes32,bytes32,uint256,address,address,bytes4,bytes)": {
        "details": "This is the least gas efficient way of making a request. Do not use it unless you have a good reason.",
        "params": {
          "designatedWallet": "Designated wallet that is requested to fulfill the request",
          "endpointId": "Endpoint ID from EndpointStore",
          "fulfillAddress": "Address that will be called to fulfill",
          "fulfillFunctionId": "Signature of the function that will be called to fulfill",
          "parameters": "All request parameters",
          "providerId": "Provider ID from ProviderStore",
          "requesterInd": "Requester index from RequesterStore"
        },
        "returns": {
          "requestId": "Request ID"
        }
      },
      "makeRequest(bytes32,uint256,address,address,bytes4,bytes)": {
        "details": "This is the recommended way of making a request in most cases. Use makeShortRequest() if gas efficiency is critical.",
        "params": {
          "designatedWallet": "Designated wallet that is requested to fulfill the request",
          "fulfillAddress": "Address that will be called to fulfill",
          "fulfillFunctionId": "Signature of the function that will be called to fulfill",
          "parameters": "Dynamic request parameters (i.e., parameters that are determined at runtime, unlike the static parameters stored in the template)",
          "requesterInd": "Requester index from RequesterStore",
          "templateId": "Template ID from TemplateStore"
        },
        "returns": {
          "requestId": "Request ID"
        }
      },
      "makeShortRequest(bytes32,bytes)": {
        "details": "Use this if gas efficiency is critical",
        "params": {
          "parameters": "Dynamic request parameters (i.e., parameters that are determined at runtime, unlike the static parameters stored in the template)",
          "templateId": "Template ID from TemplateStore"
        },
        "returns": {
          "requestId": "Request ID"
        }
      },
      "requestWithdrawal(bytes32,uint256,address,address)": {
        "params": {
          "designatedWallet": "Designated wallet that the withdrawal is requested from",
          "destination": "Withdrawal destination",
          "providerId": "Provider ID",
          "requesterInd": "Requester index from RequesterStore"
        }
      },
      "updateClientEndorsementStatus(uint256,address,bool)": {
        "details": "This is not provider specific, i.e., the requester allows the client's requests to be fulfilled through its designated wallets across all providers",
        "params": {
          "clientAddress": "Client address",
          "requesterInd": "Requester index"
        }
      },
      "updateEndpointAuthorizers(bytes32,bytes32,address[])": {
        "params": {
          "authorizers": "Authorizer contract addresses",
          "endpointId": "Endpoint ID",
          "providerId": "Provider ID from ProviderStore"
        }
      },
      "updateProvider(bytes32,address)": {
        "params": {
          "admin": "Provider admin",
          "providerId": "Provider ID"
        }
      },
      "updateRequesterAdmin(uint256,address)": {
        "params": {
          "admin": "Requester admin",
          "requesterInd": "Requester index"
        }
      }
    },
    "title": "The contract used to make and fulfill requests",
    "version": 1
  },
  "userdoc": {
    "kind": "user",
    "methods": {
      "createProvider(address,string)": {
        "notice": "Allows the master wallet (m) of the provider to create a provider record on this chain"
      },
      "createRequester(address)": {
        "notice": "Creates a requester with the given parameters, addressable by the index it returns"
      },
      "createTemplate(bytes32,bytes32,uint256,address,address,bytes4,bytes)": {
        "notice": "Creates a request template with the given parameters, addressable by the ID it returns"
      },
      "fail(bytes32,bytes32,address,bytes4)": {
        "notice": "Called by the oracle node if a request cannot be fulfilled"
      },
      "fulfill(bytes32,bytes32,uint256,bytes32,address,bytes4)": {
        "notice": "Called by the oracle node to fulfill individual requests (including regular, short and full requests)"
      },
      "fulfillBytes(bytes32,bytes32,uint256,bytes,address,bytes4)": {
        "notice": "Called by the oracle node to fulfill individual requests (including regular, short and full requests) with a bytes type response"
      },
      "fulfillWithdrawal(bytes32,bytes32,uint256,address)": {
        "notice": "Called by the designated wallet to fulfill the withdrawal request made by the requester"
      },
      "getEndpointAuthorizers(bytes32,bytes32)": {
        "notice": "Retrieves the endpoint parameters addressed by the ID"
      },
      "getProvider(bytes32)": {
        "notice": "Retrieves provider parameters addressed by the ID"
      },
      "getTemplate(bytes32)": {
        "notice": "Retrieves request parameters addressed by the ID"
      },
      "makeFullRequest(bytes32,bytes32,uint256,address,address,bytes4,bytes)": {
        "notice": "Called by the requester to make a full request. A full request does not refer to a template, meaning that it passes all the parameters in the request. It does not require a template to be created beforehand, which provides extra flexibility compared to makeRequest() and makeShortRequest()."
      },
      "makeRequest(bytes32,uint256,address,address,bytes4,bytes)": {
        "notice": "Called by the client to make a regular request. A regular request refers to a template for the requester-agnostic parameters, but requires the client to provide the requester-specific parameters."
      },
      "makeShortRequest(bytes32,bytes)": {
        "notice": "Called by the requester to make a short request. A short request refers to a template, which the provider will use to get both requester-agnostic and requester-specific parameters"
      },
      "requestWithdrawal(bytes32,uint256,address,address)": {
        "notice": "Called by the requester admin to create a request for the provider to send the funds kept in their designated wallet to destination"
      },
      "updateClientEndorsementStatus(uint256,address,bool)": {
        "notice": "Called by the requester admin to endorse a client, i.e., allow a client to use its designated wallets"
      },
      "updateEndpointAuthorizers(bytes32,bytes32,address[])": {
        "notice": "Updates the endpoint authorizers of a provider"
      },
      "updateProvider(bytes32,address)": {
        "notice": "Updates the provider"
      },
      "updateRequesterAdmin(uint256,address)": {
        "notice": "Updates the requester admin"
      }
    },
    "notice": "Clients use this contract to make requests that follow a request-response scheme. In addition, it inherits from contracts that keep records of providers, requesters, endpoints, etc.",
    "version": 1
  },
  "storageLayout": {
    "storage": [
      {
        "astId": 1232,
        "contract": "contracts/Airnode.sol:Airnode",
        "label": "requesterIndToAdmin",
        "offset": 0,
        "slot": "0",
        "type": "t_mapping(t_uint256,t_address)"
      },
      {
        "astId": 1238,
        "contract": "contracts/Airnode.sol:Airnode",
        "label": "requesterIndToClientAddressToEndorsementStatus",
        "offset": 0,
        "slot": "1",
        "type": "t_mapping(t_uint256,t_mapping(t_address,t_bool))"
      },
      {
        "astId": 1241,
        "contract": "contracts/Airnode.sol:Airnode",
        "label": "noRequesters",
        "offset": 0,
        "slot": "2",
        "type": "t_uint256"
      },
      {
        "astId": 966,
        "contract": "contracts/Airnode.sol:Airnode",
        "label": "providers",
        "offset": 0,
        "slot": "3",
        "type": "t_mapping(t_bytes32,t_struct(Provider)962_storage)"
      },
      {
        "astId": 970,
        "contract": "contracts/Airnode.sol:Airnode",
        "label": "withdrawalRequestIdToParameters",
        "offset": 0,
        "slot": "4",
        "type": "t_mapping(t_bytes32,t_bytes32)"
      },
      {
        "astId": 973,
        "contract": "contracts/Airnode.sol:Airnode",
        "label": "noWithdrawalRequests",
        "offset": 0,
        "slot": "5",
        "type": "t_uint256"
      },
      {
        "astId": 896,
        "contract": "contracts/Airnode.sol:Airnode",
        "label": "providerIdToEndpointIdToAuthorizers",
        "offset": 0,
        "slot": "6",
        "type": "t_mapping(t_bytes32,t_mapping(t_bytes32,t_array(t_address)dyn_storage))"
      },
      {
        "astId": 1363,
        "contract": "contracts/Airnode.sol:Airnode",
        "label": "templates",
        "offset": 0,
        "slot": "7",
        "type": "t_mapping(t_bytes32,t_struct(Template)1359_storage)"
      },
      {
        "astId": 15,
        "contract": "contracts/Airnode.sol:Airnode",
        "label": "requestIdToFulfillmentParameters",
        "offset": 0,
        "slot": "8",
        "type": "t_mapping(t_bytes32,t_bytes32)"
      },
      {
        "astId": 19,
        "contract": "contracts/Airnode.sol:Airnode",
        "label": "requestWithIdHasFailed",
        "offset": 0,
        "slot": "9",
        "type": "t_mapping(t_bytes32,t_bool)"
      },
      {
        "astId": 22,
        "contract": "contracts/Airnode.sol:Airnode",
        "label": "noRequests",
        "offset": 0,
        "slot": "10",
        "type": "t_uint256"
      }
    ],
    "types": {
      "t_address": {
        "encoding": "inplace",
        "label": "address",
        "numberOfBytes": "20"
      },
      "t_array(t_address)dyn_storage": {
        "base": "t_address",
        "encoding": "dynamic_array",
        "label": "address[]",
        "numberOfBytes": "32"
      },
      "t_bool": {
        "encoding": "inplace",
        "label": "bool",
        "numberOfBytes": "1"
      },
      "t_bytes32": {
        "encoding": "inplace",
        "label": "bytes32",
        "numberOfBytes": "32"
      },
      "t_bytes4": {
        "encoding": "inplace",
        "label": "bytes4",
        "numberOfBytes": "4"
      },
      "t_bytes_storage": {
        "encoding": "bytes",
        "label": "bytes",
        "numberOfBytes": "32"
      },
      "t_mapping(t_address,t_bool)": {
        "encoding": "mapping",
        "key": "t_address",
        "label": "mapping(address => bool)",
        "numberOfBytes": "32",
        "value": "t_bool"
      },
      "t_mapping(t_bytes32,t_array(t_address)dyn_storage)": {
        "encoding": "mapping",
        "key": "t_bytes32",
        "label": "mapping(bytes32 => address[])",
        "numberOfBytes": "32",
        "value": "t_array(t_address)dyn_storage"
      },
      "t_mapping(t_bytes32,t_bool)": {
        "encoding": "mapping",
        "key": "t_bytes32",
        "label": "mapping(bytes32 => bool)",
        "numberOfBytes": "32",
        "value": "t_bool"
      },
      "t_mapping(t_bytes32,t_bytes32)": {
        "encoding": "mapping",
        "key": "t_bytes32",
        "label": "mapping(bytes32 => bytes32)",
        "numberOfBytes": "32",
        "value": "t_bytes32"
      },
      "t_mapping(t_bytes32,t_mapping(t_bytes32,t_array(t_address)dyn_storage))": {
        "encoding": "mapping",
        "key": "t_bytes32",
        "label": "mapping(bytes32 => mapping(bytes32 => address[]))",
        "numberOfBytes": "32",
        "value": "t_mapping(t_bytes32,t_array(t_address)dyn_storage)"
      },
      "t_mapping(t_bytes32,t_struct(Provider)962_storage)": {
        "encoding": "mapping",
        "key": "t_bytes32",
        "label": "mapping(bytes32 => struct ProviderStore.Provider)",
        "numberOfBytes": "32",
        "value": "t_struct(Provider)962_storage"
      },
      "t_mapping(t_bytes32,t_struct(Template)1359_storage)": {
        "encoding": "mapping",
        "key": "t_bytes32",
        "label": "mapping(bytes32 => struct TemplateStore.Template)",
        "numberOfBytes": "32",
        "value": "t_struct(Template)1359_storage"
      },
      "t_mapping(t_uint256,t_address)": {
        "encoding": "mapping",
        "key": "t_uint256",
        "label": "mapping(uint256 => address)",
        "numberOfBytes": "32",
        "value": "t_address"
      },
      "t_mapping(t_uint256,t_mapping(t_address,t_bool))": {
        "encoding": "mapping",
        "key": "t_uint256",
        "label": "mapping(uint256 => mapping(address => bool))",
        "numberOfBytes": "32",
        "value": "t_mapping(t_address,t_bool)"
      },
      "t_string_storage": {
        "encoding": "bytes",
        "label": "string",
        "numberOfBytes": "32"
      },
      "t_struct(Provider)962_storage": {
        "encoding": "inplace",
        "label": "struct ProviderStore.Provider",
        "members": [
          {
            "astId": 959,
            "contract": "contracts/Airnode.sol:Airnode",
            "label": "admin",
            "offset": 0,
            "slot": "0",
            "type": "t_address"
          },
          {
            "astId": 961,
            "contract": "contracts/Airnode.sol:Airnode",
            "label": "xpub",
            "offset": 0,
            "slot": "1",
            "type": "t_string_storage"
          }
        ],
        "numberOfBytes": "64"
      },
      "t_struct(Template)1359_storage": {
        "encoding": "inplace",
        "label": "struct TemplateStore.Template",
        "members": [
          {
            "astId": 1346,
            "contract": "contracts/Airnode.sol:Airnode",
            "label": "providerId",
            "offset": 0,
            "slot": "0",
            "type": "t_bytes32"
          },
          {
            "astId": 1348,
            "contract": "contracts/Airnode.sol:Airnode",
            "label": "endpointId",
            "offset": 0,
            "slot": "1",
            "type": "t_bytes32"
          },
          {
            "astId": 1350,
            "contract": "contracts/Airnode.sol:Airnode",
            "label": "requesterInd",
            "offset": 0,
            "slot": "2",
            "type": "t_uint256"
          },
          {
            "astId": 1352,
            "contract": "contracts/Airnode.sol:Airnode",
            "label": "designatedWallet",
            "offset": 0,
            "slot": "3",
            "type": "t_address"
          },
          {
            "astId": 1354,
            "contract": "contracts/Airnode.sol:Airnode",
            "label": "fulfillAddress",
            "offset": 0,
            "slot": "4",
            "type": "t_address"
          },
          {
            "astId": 1356,
            "contract": "contracts/Airnode.sol:Airnode",
            "label": "fulfillFunctionId",
            "offset": 20,
            "slot": "4",
            "type": "t_bytes4"
          },
          {
            "astId": 1358,
            "contract": "contracts/Airnode.sol:Airnode",
            "label": "parameters",
            "offset": 0,
            "slot": "5",
            "type": "t_bytes_storage"
          }
        ],
        "numberOfBytes": "192"
      },
      "t_uint256": {
        "encoding": "inplace",
        "label": "uint256",
        "numberOfBytes": "32"
      }
    }
  },
  "gasEstimates": {
    "creation": {
      "codeDepositCost": "2875600",
      "executionCost": "33164",
      "totalCost": "2908764"
    },
    "external": {
      "createProvider(address,string)": "infinite",
      "createRequester(address)": "43640",
      "createTemplate(bytes32,bytes32,uint256,address,address,bytes4,bytes)": "infinite",
      "fail(bytes32,bytes32,address,bytes4)": "29071",
      "fulfill(bytes32,bytes32,uint256,bytes32,address,bytes4)": "infinite",
      "fulfillBytes(bytes32,bytes32,uint256,bytes,address,bytes4)": "infinite",
      "fulfillWithdrawal(bytes32,bytes32,uint256,address)": "infinite",
      "getEndpointAuthorizers(bytes32,bytes32)": "infinite",
      "getProvider(bytes32)": "infinite",
      "getTemplate(bytes32)": "infinite",
      "makeFullRequest(bytes32,bytes32,uint256,address,address,bytes4,bytes)": "infinite",
      "makeRequest(bytes32,uint256,address,address,bytes4,bytes)": "infinite",
      "makeShortRequest(bytes32,bytes)": "infinite",
      "requestWithIdHasFailed(bytes32)": "1261",
      "requestWithdrawal(bytes32,uint256,address,address)": "45120",
      "requesterIndToAdmin(uint256)": "1240",
      "requesterIndToClientAddressToEndorsementStatus(uint256,address)": "1387",
      "updateClientEndorsementStatus(uint256,address,bool)": "24188",
      "updateEndpointAuthorizers(bytes32,bytes32,address[])": "infinite",
      "updateProvider(bytes32,address)": "23734",
      "updateRequesterAdmin(uint256,address)": "23700"
    }
  }
}