{
  "address": "0x92E5125adF385d86beDb950793526106143b6Df1",
  "abi": [
    {
      "anonymous": false,
      "inputs": [
        {
          "indexed": true,
          "internalType": "bytes32",
          "name": "rootRole",
          "type": "bytes32"
        },
        {
          "indexed": true,
          "internalType": "address",
          "name": "manager",
          "type": "address"
        }
      ],
      "name": "InitializedManager",
      "type": "event"
    },
    {
      "anonymous": false,
      "inputs": [
        {
          "indexed": true,
          "internalType": "bytes32",
          "name": "role",
          "type": "bytes32"
        },
        {
          "indexed": true,
          "internalType": "bytes32",
          "name": "adminRole",
          "type": "bytes32"
        },
        {
          "indexed": false,
          "internalType": "string",
          "name": "description",
          "type": "string"
        },
        {
          "indexed": false,
          "internalType": "address",
          "name": "sender",
          "type": "address"
        }
      ],
      "name": "InitializedRole",
      "type": "event"
    },
    {
      "anonymous": false,
      "inputs": [
        {
          "indexed": true,
          "internalType": "bytes32",
          "name": "role",
          "type": "bytes32"
        },
        {
          "indexed": true,
          "internalType": "bytes32",
          "name": "previousAdminRole",
          "type": "bytes32"
        },
        {
          "indexed": true,
          "internalType": "bytes32",
          "name": "newAdminRole",
          "type": "bytes32"
        }
      ],
      "name": "RoleAdminChanged",
      "type": "event"
    },
    {
      "anonymous": false,
      "inputs": [
        {
          "indexed": true,
          "internalType": "bytes32",
          "name": "role",
          "type": "bytes32"
        },
        {
          "indexed": true,
          "internalType": "address",
          "name": "account",
          "type": "address"
        },
        {
          "indexed": true,
          "internalType": "address",
          "name": "sender",
          "type": "address"
        }
      ],
      "name": "RoleGranted",
      "type": "event"
    },
    {
      "anonymous": false,
      "inputs": [
        {
          "indexed": true,
          "internalType": "bytes32",
          "name": "role",
          "type": "bytes32"
        },
        {
          "indexed": true,
          "internalType": "address",
          "name": "account",
          "type": "address"
        },
        {
          "indexed": true,
          "internalType": "address",
          "name": "sender",
          "type": "address"
        }
      ],
      "name": "RoleRevoked",
      "type": "event"
    },
    {
      "inputs": [],
      "name": "DEFAULT_ADMIN_ROLE",
      "outputs": [
        {
          "internalType": "bytes32",
          "name": "",
          "type": "bytes32"
        }
      ],
      "stateMutability": "view",
      "type": "function"
    },
    {
      "inputs": [
        {
          "internalType": "bytes32",
          "name": "adminRole",
          "type": "bytes32"
        },
        {
          "internalType": "string",
          "name": "description",
          "type": "string"
        }
      ],
      "name": "deriveRole",
      "outputs": [
        {
          "internalType": "bytes32",
          "name": "role",
          "type": "bytes32"
        }
      ],
      "stateMutability": "pure",
      "type": "function"
    },
    {
      "inputs": [
        {
          "internalType": "address",
          "name": "manager",
          "type": "address"
        }
      ],
      "name": "deriveRootRole",
      "outputs": [
        {
          "internalType": "bytes32",
          "name": "rootRole",
          "type": "bytes32"
        }
      ],
      "stateMutability": "pure",
      "type": "function"
    },
    {
      "inputs": [
        {
          "internalType": "bytes32",
          "name": "role",
          "type": "bytes32"
        }
      ],
      "name": "getRoleAdmin",
      "outputs": [
        {
          "internalType": "bytes32",
          "name": "",
          "type": "bytes32"
        }
      ],
      "stateMutability": "view",
      "type": "function"
    },
    {
      "inputs": [
        {
          "internalType": "bytes32",
          "name": "role",
          "type": "bytes32"
        },
        {
          "internalType": "address",
          "name": "account",
          "type": "address"
        }
      ],
      "name": "grantRole",
      "outputs": [],
      "stateMutability": "nonpayable",
      "type": "function"
    },
    {
      "inputs": [
        {
          "internalType": "bytes32",
          "name": "role",
          "type": "bytes32"
        },
        {
          "internalType": "address",
          "name": "account",
          "type": "address"
        }
      ],
      "name": "hasRole",
      "outputs": [
        {
          "internalType": "bool",
          "name": "",
          "type": "bool"
        }
      ],
      "stateMutability": "view",
      "type": "function"
    },
    {
      "inputs": [
        {
          "internalType": "address",
          "name": "manager",
          "type": "address"
        }
      ],
      "name": "initializeManager",
      "outputs": [],
      "stateMutability": "nonpayable",
      "type": "function"
    },
    {
      "inputs": [
        {
          "internalType": "bytes32",
          "name": "adminRole",
          "type": "bytes32"
        },
        {
          "internalType": "string",
          "name": "description",
          "type": "string"
        }
      ],
      "name": "initializeRoleAndGrantToSender",
      "outputs": [
        {
          "internalType": "bytes32",
          "name": "role",
          "type": "bytes32"
        }
      ],
      "stateMutability": "nonpayable",
      "type": "function"
    },
    {
      "inputs": [
        {
          "internalType": "bytes[]",
          "name": "data",
          "type": "bytes[]"
        }
      ],
      "name": "multicall",
      "outputs": [
        {
          "internalType": "bytes[]",
          "name": "results",
          "type": "bytes[]"
        }
      ],
      "stateMutability": "nonpayable",
      "type": "function"
    },
    {
      "inputs": [
        {
          "internalType": "bytes32",
          "name": "role",
          "type": "bytes32"
        },
        {
          "internalType": "address",
          "name": "account",
          "type": "address"
        }
      ],
      "name": "renounceRole",
      "outputs": [],
      "stateMutability": "nonpayable",
      "type": "function"
    },
    {
      "inputs": [
        {
          "internalType": "bytes32",
          "name": "role",
          "type": "bytes32"
        },
        {
          "internalType": "address",
          "name": "account",
          "type": "address"
        }
      ],
      "name": "revokeRole",
      "outputs": [],
      "stateMutability": "nonpayable",
      "type": "function"
    },
    {
      "inputs": [
        {
          "internalType": "bytes4",
          "name": "interfaceId",
          "type": "bytes4"
        }
      ],
      "name": "supportsInterface",
      "outputs": [
        {
          "internalType": "bool",
          "name": "",
          "type": "bool"
        }
      ],
      "stateMutability": "view",
      "type": "function"
    }
  ],
  "transactionHash": "0xf9b4504259a698975d2b9491d25804be88e5c980231a5172b352e3a833dc1cd0",
  "args": [],
  "numDeployments": 1,
  "solcInputHash": "d8591a026515856ab7bc7dc284bf2fbe",
  "bytecode": "0x608060405234801561001057600080fd5b50611145806100206000396000f3fe608060405234801561001057600080fd5b50600436106100d45760003560e01c8063805d43fc11610081578063ac9650d81161005b578063ac9650d8146101d2578063b530b5e0146101f2578063d547741f1461020557600080fd5b8063805d43fc1461018057806391d1485414610193578063a217fddf146101ca57600080fd5b806336568abe116100b257806336568abe1461014757806373e983621461015a5780637f7120fe1461016d57600080fd5b806301ffc9a7146100d9578063248a9ca3146101015780632f2ff15d14610132575b600080fd5b6100ec6100e7366004610c90565b610218565b60405190151581526020015b60405180910390f35b61012461010f366004610cd2565b60009081526020819052604090206001015490565b6040519081526020016100f8565b610145610140366004610d07565b6102b1565b005b610145610155366004610d07565b6102dc565b610124610168366004610d33565b610347565b61014561017b366004610daf565b61042e565b61012461018e366004610daf565b6104fe565b6100ec6101a1366004610d07565b6000918252602082815260408084206001600160a01b0393909316845291905290205460ff1690565b610124600081565b6101e56101e0366004610dca565b61053e565b6040516100f89190610e9b565b610124610200366004610d33565b610633565b610145610213366004610d07565b61067d565b60007fffffffff0000000000000000000000000000000000000000000000000000000082167f7965db0b0000000000000000000000000000000000000000000000000000000014806102ab57507f01ffc9a7000000000000000000000000000000000000000000000000000000007fffffffff000000000000000000000000000000000000000000000000000000008316145b92915050565b6000828152602081905260409020600101546102cd81336106a3565b6102d78383610721565b505050565b6102e5816104fe565b8214156103395760405162461bcd60e51b815260206004820152601c60248201527f726f6c6520697320726f6f7420726f6c65206f66206163636f756e740000000060448201526064015b60405180910390fd5b61034382826107bf565b5050565b6000816103965760405162461bcd60e51b815260206004820152601660248201527f526f6c65206465736372697074696f6e20656d707479000000000000000000006044820152606401610330565b6103a1848484610633565b600081815260208190526040812060010154919250141561041d576103c5336104fe565b8414156103d5576103d53361042e565b6103df8185610847565b83817f532ead3ec09896bef1351791fbaad86ac03f3204090a8e7f173f41414b1fdac085853360405161041493929190610efd565b60405180910390a35b61042781336102b1565b9392505050565b6001600160a01b0381166104845760405162461bcd60e51b815260206004820152601460248201527f4d616e616765722061646472657373207a65726f0000000000000000000000006044820152606401610330565b600061048f826104fe565b6000818152602081815260408083206001600160a01b038716845290915290205490915060ff16610343576104c48183610721565b6040516001600160a01b0383169082907f888b171f3b02386c0e4d8c85108dcb8d0ecdad2f274ddc7ce3914282538bdd8890600090a35050565b60408051606083901b6bffffffffffffffffffffffff191660208083019190915282516014818403018152603490920190925280519101206000906102ab565b60608167ffffffffffffffff81111561055957610559610f3f565b60405190808252806020026020018201604052801561058c57816020015b60608152602001906001900390816105775790505b50905060005b8281101561062c576105fc308585848181106105b0576105b0610f55565b90506020028101906105c29190610f6b565b8080601f01602080910402602001604051908101604052809392919081815260200183838082843760009201919091525061089292505050565b82828151811061060e5761060e610f55565b6020026020010181905250808061062490610fcf565b915050610592565b5092915050565b60006106758484848080601f0160208091040260200160405190810160405280939291908181526020018383808284376000920191909152506108b792505050565b949350505050565b60008281526020819052604090206001015461069981336106a3565b6102d7838361090c565b6000828152602081815260408083206001600160a01b038516845290915290205460ff16610343576106df816001600160a01b0316601461098b565b6106ea83602061098b565b6040516020016106fb929190610fea565b60408051601f198184030181529082905262461bcd60e51b82526103309160040161106b565b6000828152602081815260408083206001600160a01b038516845290915290205460ff16610343576000828152602081815260408083206001600160a01b03851684529091529020805460ff1916600117905561077b3390565b6001600160a01b0316816001600160a01b0316837f2f8788117e7eff1d82e926ec794901d17c78024a50270940304540a733656f0d60405160405180910390a45050565b6001600160a01b038116331461083d5760405162461bcd60e51b815260206004820152602f60248201527f416363657373436f6e74726f6c3a2063616e206f6e6c792072656e6f756e636560448201527f20726f6c657320666f722073656c6600000000000000000000000000000000006064820152608401610330565b610343828261090c565b600082815260208190526040808220600101805490849055905190918391839186917fbd79b86ffe0ab8e8776151514217cd7cacd52c909f66475c3af44e129f0b00ff9190a4505050565b606061042783836040518060600160405280602781526020016110e960279139610b6c565b600061042783836040516020016108ce919061107e565b60408051601f198184030181528282528051602091820120838201949094528282019390935280518083038201815260609092019052805191012090565b6000828152602081815260408083206001600160a01b038516845290915290205460ff1615610343576000828152602081815260408083206001600160a01b0385168085529252808320805460ff1916905551339285917ff6391f5c32d9c69d2a47ea670b442974b53935d1edc7fd64eb21e047a839171b9190a45050565b6060600061099a83600261109a565b6109a59060026110b9565b67ffffffffffffffff8111156109bd576109bd610f3f565b6040519080825280601f01601f1916602001820160405280156109e7576020820181803683370190505b5090507f300000000000000000000000000000000000000000000000000000000000000081600081518110610a1e57610a1e610f55565b60200101906001600160f81b031916908160001a9053507f780000000000000000000000000000000000000000000000000000000000000081600181518110610a6957610a69610f55565b60200101906001600160f81b031916908160001a9053506000610a8d84600261109a565b610a989060016110b9565b90505b6001811115610b1d577f303132333435363738396162636465660000000000000000000000000000000085600f1660108110610ad957610ad9610f55565b1a60f81b828281518110610aef57610aef610f55565b60200101906001600160f81b031916908160001a90535060049490941c93610b16816110d1565b9050610a9b565b5083156104275760405162461bcd60e51b815260206004820181905260248201527f537472696e67733a20686578206c656e67746820696e73756666696369656e746044820152606401610330565b6060833b610be25760405162461bcd60e51b815260206004820152602660248201527f416464726573733a2064656c65676174652063616c6c20746f206e6f6e2d636f60448201527f6e747261637400000000000000000000000000000000000000000000000000006064820152608401610330565b600080856001600160a01b031685604051610bfd919061107e565b600060405180830381855af49150503d8060008114610c38576040519150601f19603f3d011682016040523d82523d6000602084013e610c3d565b606091505b5091509150610c4d828286610c57565b9695505050505050565b60608315610c66575081610427565b825115610c765782518084602001fd5b8160405162461bcd60e51b8152600401610330919061106b565b600060208284031215610ca257600080fd5b81357fffffffff000000000000000000000000000000000000000000000000000000008116811461042757600080fd5b600060208284031215610ce457600080fd5b5035919050565b80356001600160a01b0381168114610d0257600080fd5b919050565b60008060408385031215610d1a57600080fd5b82359150610d2a60208401610ceb565b90509250929050565b600080600060408486031215610d4857600080fd5b83359250602084013567ffffffffffffffff80821115610d6757600080fd5b818601915086601f830112610d7b57600080fd5b813581811115610d8a57600080fd5b876020828501011115610d9c57600080fd5b6020830194508093505050509250925092565b600060208284031215610dc157600080fd5b61042782610ceb565b60008060208385031215610ddd57600080fd5b823567ffffffffffffffff80821115610df557600080fd5b818501915085601f830112610e0957600080fd5b813581811115610e1857600080fd5b8660208260051b8501011115610e2d57600080fd5b60209290920196919550909350505050565b60005b83811015610e5a578181015183820152602001610e42565b83811115610e69576000848401525b50505050565b60008151808452610e87816020860160208601610e3f565b601f01601f19169290920160200192915050565b6000602080830181845280855180835260408601915060408160051b870101925083870160005b82811015610ef057603f19888603018452610ede858351610e6f565b94509285019290850190600101610ec2565b5092979650505050505050565b604081528260408201528284606083013760006060848301015260006060601f19601f86011683010190506001600160a01b0383166020830152949350505050565b634e487b7160e01b600052604160045260246000fd5b634e487b7160e01b600052603260045260246000fd5b6000808335601e19843603018112610f8257600080fd5b83018035915067ffffffffffffffff821115610f9d57600080fd5b602001915036819003821315610fb257600080fd5b9250929050565b634e487b7160e01b600052601160045260246000fd5b6000600019821415610fe357610fe3610fb9565b5060010190565b7f416363657373436f6e74726f6c3a206163636f756e7420000000000000000000815260008351611022816017850160208801610e3f565b7f206973206d697373696e6720726f6c6520000000000000000000000000000000601791840191820152835161105f816028840160208801610e3f565b01602801949350505050565b6020815260006104276020830184610e6f565b60008251611090818460208701610e3f565b9190910192915050565b60008160001904831182151516156110b4576110b4610fb9565b500290565b600082198211156110cc576110cc610fb9565b500190565b6000816110e0576110e0610fb9565b50600019019056fe416464726573733a206c6f772d6c6576656c2064656c65676174652063616c6c206661696c6564a26469706673582212207cc002eec550ca333e5647aeee1bec01baf44cbf2540ae519fcdad161591c81864736f6c63430008090033",
  "devdoc": {
    "details": "Each user is called a \"manager\", and is the only member of their root role. Starting from this root role, they can create an arbitrary tree of roles and grant these to accounts. Each role has a description, and roles adminned by the same role cannot have the same description.",
    "kind": "dev",
    "methods": {
      "deriveRole(bytes32,string)": {
        "details": "This implies that roles adminned by the same role cannot have the same description",
        "params": {
          "adminRole": "Admin role",
          "description": "Human-readable description of the role"
        },
        "returns": {
          "role": "Role"
        }
      },
      "deriveRootRole(address)": {
        "params": {
          "manager": "Manager address"
        },
        "returns": {
          "rootRole": "Root role"
        }
      },
      "getRoleAdmin(bytes32)": {
        "details": "Returns the admin role that controls `role`. See {grantRole} and {revokeRole}. To change a role's admin, use {_setRoleAdmin}."
      },
      "grantRole(bytes32,address)": {
        "details": "Grants `role` to `account`. If `account` had not been already granted `role`, emits a {RoleGranted} event. Requirements: - the caller must have ``role``'s admin role."
      },
      "hasRole(bytes32,address)": {
        "details": "Returns `true` if `account` has been granted `role`."
      },
      "initializeManager(address)": {
        "details": "Anyone can initialize a manager. An uninitialized manager attempting to initialize a role will be initialized automatically. Once a manager is initialized, subsequent initializations have no effect.",
        "params": {
          "manager": "Manager address to be initialized"
        }
      },
      "initializeRoleAndGrantToSender(bytes32,string)": {
        "details": "If the sender should not have the initialized role, they should explicitly renounce it after initializing it. Once a role is initialized, subsequent initializations have no effect other than granting the role to the sender. The sender must be a member of `adminRole`. `adminRole` value is not validated because the sender cannot have the `bytes32(0)` role. If the sender is an uninitialized manager that is initializing a role directly under their root role, manager initialization will happen automatically, which will grant the sender `adminRole` and allow them to initialize the role.",
        "params": {
          "adminRole": "Admin role to be assigned to the initialized role",
          "description": "Human-readable description of the initialized role"
        },
        "returns": {
          "role": "Initialized role"
        }
      },
      "multicall(bytes[])": {
        "details": "Receives and executes a batch of function calls on this contract."
      },
      "renounceRole(bytes32,address)": {
        "details": "Overriden to disallow managers to renounce their root roles. `role` and `account` are not validated because `AccessControl.renounceRole` will revert if either of them is zero.",
        "params": {
          "account": "Account to renounce the role",
          "role": "Role to be renounced"
        }
      },
      "revokeRole(bytes32,address)": {
        "details": "Revokes `role` from `account`. If `account` had been granted `role`, emits a {RoleRevoked} event. Requirements: - the caller must have ``role``'s admin role."
      },
      "supportsInterface(bytes4)": {
        "details": "See {IERC165-supportsInterface}."
      }
    },
    "title": "Contract that allows users to manage independent, tree-shaped access control tables",
    "version": 1
  },
  "userdoc": {
    "kind": "user",
    "methods": {
      "deriveRole(bytes32,string)": {
        "notice": "Derives the role using its admin role and description"
      },
      "deriveRootRole(address)": {
        "notice": "Derives the root role of the manager"
      },
      "initializeManager(address)": {
        "notice": "Initializes the manager by initializing its root role and granting it to them"
      },
      "initializeRoleAndGrantToSender(bytes32,string)": {
        "notice": "Initializes a role by setting its admin role and grants it to the sender"
      },
      "renounceRole(bytes32,address)": {
        "notice": "Called by the account to renounce the role"
      }
    },
    "notice": "Multiple contracts can refer to this contract to check if their users have granted accounts specific roles. Therefore, it aims to keep all access control roles of its users in this single contract.",
    "version": 1
  },
  "storageLayout": {
    "storage": [
      {
        "astId": 24,
        "contract": "contracts/access-control-registry/AccessControlRegistry.sol:AccessControlRegistry",
        "label": "_roles",
        "offset": 0,
        "slot": "0",
        "type": "t_mapping(t_bytes32,t_struct(RoleData)19_storage)"
      }
    ],
    "types": {
      "t_address": {
        "encoding": "inplace",
        "label": "address",
        "numberOfBytes": "20"
      },
      "t_bool": {
        "encoding": "inplace",
        "label": "bool",
        "numberOfBytes": "1"
      },
      "t_bytes32": {
        "encoding": "inplace",
        "label": "bytes32",
        "numberOfBytes": "32"
      },
      "t_mapping(t_address,t_bool)": {
        "encoding": "mapping",
        "key": "t_address",
        "label": "mapping(address => bool)",
        "numberOfBytes": "32",
        "value": "t_bool"
      },
      "t_mapping(t_bytes32,t_struct(RoleData)19_storage)": {
        "encoding": "mapping",
        "key": "t_bytes32",
        "label": "mapping(bytes32 => struct AccessControl.RoleData)",
        "numberOfBytes": "32",
        "value": "t_struct(RoleData)19_storage"
      },
      "t_struct(RoleData)19_storage": {
        "encoding": "inplace",
        "label": "struct AccessControl.RoleData",
        "members": [
          {
            "astId": 16,
            "contract": "contracts/access-control-registry/AccessControlRegistry.sol:AccessControlRegistry",
            "label": "members",
            "offset": 0,
            "slot": "0",
            "type": "t_mapping(t_address,t_bool)"
          },
          {
            "astId": 18,
            "contract": "contracts/access-control-registry/AccessControlRegistry.sol:AccessControlRegistry",
            "label": "adminRole",
            "offset": 0,
            "slot": "1",
            "type": "t_bytes32"
          }
        ],
        "numberOfBytes": "64"
      }
    }
  }
}