{
  "address": "0x3Fee217957B1b3fcA1C33d9A4557103F25C6edd5",
  "abi": [
    {
      "anonymous": false,
      "inputs": [
        {
          "indexed": true,
          "internalType": "address",
          "name": "manager",
          "type": "address"
        },
        {
          "indexed": false,
          "internalType": "bytes32",
          "name": "rootRole",
          "type": "bytes32"
        }
      ],
      "name": "InitializedManager",
      "type": "event"
    },
    {
      "anonymous": false,
      "inputs": [
        {
          "indexed": true,
          "internalType": "bytes32",
          "name": "role",
          "type": "bytes32"
        },
        {
          "indexed": true,
          "internalType": "bytes32",
          "name": "adminRole",
          "type": "bytes32"
        },
        {
          "indexed": false,
          "internalType": "string",
          "name": "description",
          "type": "string"
        },
        {
          "indexed": false,
          "internalType": "address",
          "name": "sender",
          "type": "address"
        }
      ],
      "name": "InitializedRole",
      "type": "event"
    },
    {
      "anonymous": false,
      "inputs": [
        {
          "indexed": true,
          "internalType": "bytes32",
          "name": "role",
          "type": "bytes32"
        },
        {
          "indexed": true,
          "internalType": "bytes32",
          "name": "previousAdminRole",
          "type": "bytes32"
        },
        {
          "indexed": true,
          "internalType": "bytes32",
          "name": "newAdminRole",
          "type": "bytes32"
        }
      ],
      "name": "RoleAdminChanged",
      "type": "event"
    },
    {
      "anonymous": false,
      "inputs": [
        {
          "indexed": true,
          "internalType": "bytes32",
          "name": "role",
          "type": "bytes32"
        },
        {
          "indexed": true,
          "internalType": "address",
          "name": "account",
          "type": "address"
        },
        {
          "indexed": true,
          "internalType": "address",
          "name": "sender",
          "type": "address"
        }
      ],
      "name": "RoleGranted",
      "type": "event"
    },
    {
      "anonymous": false,
      "inputs": [
        {
          "indexed": true,
          "internalType": "bytes32",
          "name": "role",
          "type": "bytes32"
        },
        {
          "indexed": true,
          "internalType": "address",
          "name": "account",
          "type": "address"
        },
        {
          "indexed": true,
          "internalType": "address",
          "name": "sender",
          "type": "address"
        }
      ],
      "name": "RoleRevoked",
      "type": "event"
    },
    {
      "inputs": [],
      "name": "DEFAULT_ADMIN_ROLE",
      "outputs": [
        {
          "internalType": "bytes32",
          "name": "",
          "type": "bytes32"
        }
      ],
      "stateMutability": "view",
      "type": "function"
    },
    {
      "inputs": [
        {
          "internalType": "bytes32",
          "name": "adminRole",
          "type": "bytes32"
        },
        {
          "internalType": "string",
          "name": "description",
          "type": "string"
        }
      ],
      "name": "deriveRole",
      "outputs": [
        {
          "internalType": "bytes32",
          "name": "role",
          "type": "bytes32"
        }
      ],
      "stateMutability": "pure",
      "type": "function"
    },
    {
      "inputs": [
        {
          "internalType": "address",
          "name": "manager",
          "type": "address"
        }
      ],
      "name": "deriveRootRole",
      "outputs": [
        {
          "internalType": "bytes32",
          "name": "rootRole",
          "type": "bytes32"
        }
      ],
      "stateMutability": "pure",
      "type": "function"
    },
    {
      "inputs": [
        {
          "internalType": "bytes32",
          "name": "role",
          "type": "bytes32"
        }
      ],
      "name": "getRoleAdmin",
      "outputs": [
        {
          "internalType": "bytes32",
          "name": "",
          "type": "bytes32"
        }
      ],
      "stateMutability": "view",
      "type": "function"
    },
    {
      "inputs": [
        {
          "internalType": "bytes32",
          "name": "role",
          "type": "bytes32"
        },
        {
          "internalType": "address",
          "name": "account",
          "type": "address"
        }
      ],
      "name": "grantRole",
      "outputs": [],
      "stateMutability": "nonpayable",
      "type": "function"
    },
    {
      "inputs": [
        {
          "internalType": "bytes32",
          "name": "role",
          "type": "bytes32"
        },
        {
          "internalType": "address",
          "name": "account",
          "type": "address"
        }
      ],
      "name": "hasRole",
      "outputs": [
        {
          "internalType": "bool",
          "name": "",
          "type": "bool"
        }
      ],
      "stateMutability": "view",
      "type": "function"
    },
    {
      "inputs": [
        {
          "internalType": "bytes32[]",
          "name": "adminRoles",
          "type": "bytes32[]"
        },
        {
          "internalType": "string[]",
          "name": "descriptions",
          "type": "string[]"
        },
        {
          "internalType": "address[]",
          "name": "accounts",
          "type": "address[]"
        }
      ],
      "name": "initializeAndGrantRoles",
      "outputs": [
        {
          "internalType": "bytes32[]",
          "name": "roles",
          "type": "bytes32[]"
        }
      ],
      "stateMutability": "nonpayable",
      "type": "function"
    },
    {
      "inputs": [
        {
          "internalType": "address",
          "name": "manager",
          "type": "address"
        }
      ],
      "name": "initializeManager",
      "outputs": [],
      "stateMutability": "nonpayable",
      "type": "function"
    },
    {
      "inputs": [
        {
          "internalType": "bytes32",
          "name": "adminRole",
          "type": "bytes32"
        },
        {
          "internalType": "string",
          "name": "description",
          "type": "string"
        }
      ],
      "name": "initializeRole",
      "outputs": [
        {
          "internalType": "bytes32",
          "name": "role",
          "type": "bytes32"
        }
      ],
      "stateMutability": "nonpayable",
      "type": "function"
    },
    {
      "inputs": [
        {
          "internalType": "bytes32",
          "name": "role",
          "type": "bytes32"
        },
        {
          "internalType": "address",
          "name": "account",
          "type": "address"
        }
      ],
      "name": "renounceRole",
      "outputs": [],
      "stateMutability": "nonpayable",
      "type": "function"
    },
    {
      "inputs": [
        {
          "internalType": "bytes32",
          "name": "role",
          "type": "bytes32"
        },
        {
          "internalType": "address",
          "name": "account",
          "type": "address"
        }
      ],
      "name": "revokeRole",
      "outputs": [],
      "stateMutability": "nonpayable",
      "type": "function"
    },
    {
      "inputs": [
        {
          "internalType": "bytes4",
          "name": "interfaceId",
          "type": "bytes4"
        }
      ],
      "name": "supportsInterface",
      "outputs": [
        {
          "internalType": "bool",
          "name": "",
          "type": "bool"
        }
      ],
      "stateMutability": "view",
      "type": "function"
    }
  ],
  "transactionHash": "0xc5b14716c64113744a7951373e00c488a5a957a95fdc342b553a659126c683a8",
  "args": [],
  "solcInputHash": "c05b7ebb130ccceddfe4d0dfdccbc692",
  "bytecode": "0x608060405234801561001057600080fd5b50611bc1806100206000396000f3fe608060405234801561001057600080fd5b50600436106100b45760003560e01c80637f7120fe116100715780637f7120fe146101b1578063805d43fc146101cd57806391d14854146101fd578063a217fddf1461022d578063b530b5e01461024b578063d547741f1461027b576100b4565b806301ffc9a7146100b95780630cad8226146100e957806318e60f0114610119578063248a9ca3146101495780632f2ff15d1461017957806336568abe14610195575b600080fd5b6100d360048036038101906100ce91906111dd565b610297565b6040516100e09190611530565b60405180910390f35b61010360048036038101906100fe919061117d565b610311565b604051610110919061154b565b60405180910390f35b610133600480360381019061012e919061105c565b6103c2565b604051610140919061150e565b60405180910390f35b610163600480360381019061015e9190611110565b6105e5565b604051610170919061154b565b60405180910390f35b610193600480360381019061018e919061113d565b610604565b005b6101af60048036038101906101aa919061113d565b61062d565b005b6101cb60048036038101906101c6919061102f565b610686565b005b6101e760048036038101906101e2919061102f565b6106fe565b6040516101f4919061154b565b60405180910390f35b6102176004803603810190610212919061113d565b610710565b6040516102249190611530565b60405180910390f35b61023561077a565b604051610242919061154b565b60405180910390f35b6102656004803603810190610260919061117d565b610781565b604051610272919061154b565b60405180910390f35b6102956004803603810190610290919061113d565b6107da565b005b60007f7965db0b000000000000000000000000000000000000000000000000000000007bffffffffffffffffffffffffffffffffffffffffffffffffffffffff1916827bffffffffffffffffffffffffffffffffffffffffffffffffffffffff1916148061030a575061030982610803565b5b9050919050565b600061031e848484610781565b90506000801b61032d826105e5565b14156103aa5761034361033e61086d565b6106fe565b84141561035b5761035a61035561086d565b610686565b5b6103658185610875565b83817f532ead3ec09896bef1351791fbaad86ac03f3204090a8e7f173f41414b1fdac0858561039261086d565b6040516103a193929190611566565b60405180910390a35b6103bb816103b661086d565b610604565b9392505050565b6060600087879050905085859050811480156103e057508383905081145b61041f576040517f08c379a0000000000000000000000000000000000000000000000000000000008152600401610416906115fa565b60405180910390fd5b6020811115610463576040517f08c379a000000000000000000000000000000000000000000000000000000000815260040161045a9061161a565b60405180910390fd5b8067ffffffffffffffff81111561047d5761047c61198c565b5b6040519080825280602002602001820160405280156104ab5781602001602082028036833780820191505090505b50915060005b818110156105d9576105008989838181106104cf576104ce61195d565b5b905060200201358888848181106104e9576104e861195d565b5b90506020028101906104fb919061165a565b610311565b8382815181106105135761051261195d565b5b602002602001018181525050600073ffffffffffffffffffffffffffffffffffffffff1685858381811061054a5761054961195d565b5b905060200201602081019061055f919061102f565b73ffffffffffffffffffffffffffffffffffffffff16146105c6576105c58382815181106105905761058f61195d565b5b60200260200101518686848181106105ab576105aa61195d565b5b90506020020160208101906105c0919061102f565b610604565b5b80806105d1906118b7565b9150506104b1565b50509695505050505050565b6000806000838152602001908152602001600020600101549050919050565b61060d826105e5565b61061e8161061961086d565b6108d0565b610628838361096d565b505050565b610636816106fe565b821415610678576040517f08c379a000000000000000000000000000000000000000000000000000000000815260040161066f906115da565b60405180910390fd5b6106828282610a4d565b5050565b6000610691826106fe565b905061069d8183610710565b6106fa576106ab8183610ad0565b8173ffffffffffffffffffffffffffffffffffffffff167fde1270394b66f6ed8207a57af9e8a75e0a472cf0e1372cb52ea7d12be43fb690826040516106f1919061154b565b60405180910390a25b5050565b600061070982610ade565b9050919050565b600080600084815260200190815260200160002060000160008373ffffffffffffffffffffffffffffffffffffffff1673ffffffffffffffffffffffffffffffffffffffff16815260200190815260200160002060009054906101000a900460ff16905092915050565b6000801b81565b60006107d18484848080601f016020809104026020016040519081016040528093929190818152602001838380828437600081840152601f19601f82011690508083019250505050505050610b0e565b90509392505050565b6107e3826105e5565b6107f4816107ef61086d565b6108d0565b6107fe8383610b48565b505050565b60007f01ffc9a7000000000000000000000000000000000000000000000000000000007bffffffffffffffffffffffffffffffffffffffffffffffffffffffff1916827bffffffffffffffffffffffffffffffffffffffffffffffffffffffff1916149050919050565b600033905090565b6000610880836105e5565b905081600080858152602001908152602001600020600101819055508181847fbd79b86ffe0ab8e8776151514217cd7cacd52c909f66475c3af44e129f0b00ff60405160405180910390a4505050565b6108da8282610710565b610969576108ff8173ffffffffffffffffffffffffffffffffffffffff166014610c29565b61090d8360001c6020610c29565b60405160200161091e9291906114d4565b6040516020818303038152906040526040517f08c379a00000000000000000000000000000000000000000000000000000000081526004016109609190611598565b60405180910390fd5b5050565b6109778282610710565b610a4957600160008084815260200190815260200160002060000160008373ffffffffffffffffffffffffffffffffffffffff1673ffffffffffffffffffffffffffffffffffffffff16815260200190815260200160002060006101000a81548160ff0219169083151502179055506109ee61086d565b73ffffffffffffffffffffffffffffffffffffffff168173ffffffffffffffffffffffffffffffffffffffff16837f2f8788117e7eff1d82e926ec794901d17c78024a50270940304540a733656f0d60405160405180910390a45b5050565b610a5561086d565b73ffffffffffffffffffffffffffffffffffffffff168173ffffffffffffffffffffffffffffffffffffffff1614610ac2576040517f08c379a0000000000000000000000000000000000000000000000000000000008152600401610ab99061163a565b60405180910390fd5b610acc8282610b48565b5050565b610ada828261096d565b5050565b600081604051602001610af19190611476565b604051602081830303815290604052805190602001209050919050565b6000610b408383604051602001610b2591906114bd565b60405160208183030381529060405280519060200120610e65565b905092915050565b610b528282610710565b15610c2557600080600084815260200190815260200160002060000160008373ffffffffffffffffffffffffffffffffffffffff1673ffffffffffffffffffffffffffffffffffffffff16815260200190815260200160002060006101000a81548160ff021916908315150217905550610bca61086d565b73ffffffffffffffffffffffffffffffffffffffff168173ffffffffffffffffffffffffffffffffffffffff16837ff6391f5c32d9c69d2a47ea670b442974b53935d1edc7fd64eb21e047a839171b60405160405180910390a45b5050565b606060006002836002610c3c9190611773565b610c46919061171d565b67ffffffffffffffff811115610c5f57610c5e61198c565b5b6040519080825280601f01601f191660200182016040528015610c915781602001600182028036833780820191505090505b5090507f300000000000000000000000000000000000000000000000000000000000000081600081518110610cc957610cc861195d565b5b60200101907effffffffffffffffffffffffffffffffffffffffffffffffffffffffffffff1916908160001a9053507f780000000000000000000000000000000000000000000000000000000000000081600181518110610d2d57610d2c61195d565b5b60200101907effffffffffffffffffffffffffffffffffffffffffffffffffffffffffffff1916908160001a90535060006001846002610d6d9190611773565b610d77919061171d565b90505b6001811115610e17577f3031323334353637383961626364656600000000000000000000000000000000600f861660108110610db957610db861195d565b5b1a60f81b828281518110610dd057610dcf61195d565b5b60200101907effffffffffffffffffffffffffffffffffffffffffffffffffffffffffffff1916908160001a905350600485901c945080610e109061188d565b9050610d7a565b5060008414610e5b576040517f08c379a0000000000000000000000000000000000000000000000000000000008152600401610e52906115ba565b60405180910390fd5b8091505092915050565b60008282604051602001610e7a929190611491565b60405160208183030381529060405280519060200120905092915050565b600081359050610ea781611b46565b92915050565b60008083601f840112610ec357610ec26119c0565b5b8235905067ffffffffffffffff811115610ee057610edf6119bb565b5b602083019150836020820283011115610efc57610efb6119cf565b5b9250929050565b60008083601f840112610f1957610f186119c0565b5b8235905067ffffffffffffffff811115610f3657610f356119bb565b5b602083019150836020820283011115610f5257610f516119cf565b5b9250929050565b60008083601f840112610f6f57610f6e6119c0565b5b8235905067ffffffffffffffff811115610f8c57610f8b6119bb565b5b602083019150836020820283011115610fa857610fa76119cf565b5b9250929050565b600081359050610fbe81611b5d565b92915050565b600081359050610fd381611b74565b92915050565b60008083601f840112610fef57610fee6119c0565b5b8235905067ffffffffffffffff81111561100c5761100b6119bb565b5b602083019150836001820283011115611028576110276119cf565b5b9250929050565b600060208284031215611045576110446119de565b5b600061105384828501610e98565b91505092915050565b60008060008060008060608789031215611079576110786119de565b5b600087013567ffffffffffffffff811115611097576110966119d9565b5b6110a389828a01610f03565b9650965050602087013567ffffffffffffffff8111156110c6576110c56119d9565b5b6110d289828a01610f59565b9450945050604087013567ffffffffffffffff8111156110f5576110f46119d9565b5b61110189828a01610ead565b92509250509295509295509295565b600060208284031215611126576111256119de565b5b600061113484828501610faf565b91505092915050565b60008060408385031215611154576111536119de565b5b600061116285828601610faf565b925050602061117385828601610e98565b9150509250929050565b600080600060408486031215611196576111956119de565b5b60006111a486828701610faf565b935050602084013567ffffffffffffffff8111156111c5576111c46119d9565b5b6111d186828701610fd9565b92509250509250925092565b6000602082840312156111f3576111f26119de565b5b600061120184828501610fc4565b91505092915050565b600061121683836112b5565b60208301905092915050565b61122b816117cd565b82525050565b61124261123d826117cd565b611900565b82525050565b6000611253826116cd565b61125d81856116f0565b9350611268836116bd565b8060005b83811015611299578151611280888261120a565b975061128b836116e3565b92505060018101905061126c565b5085935050505092915050565b6112af816117df565b82525050565b6112be816117eb565b82525050565b6112cd816117eb565b82525050565b6112e46112df826117eb565b611912565b82525050565b60006112f68385611701565b935061130383858461184b565b61130c836119e3565b840190509392505050565b6000611322826116d8565b61132c8185611701565b935061133c81856020860161185a565b611345816119e3565b840191505092915050565b600061135b826116d8565b6113658185611712565b935061137581856020860161185a565b80840191505092915050565b600061138e602083611701565b915061139982611a01565b602082019050919050565b60006113b1601c83611701565b91506113bc82611a2a565b602082019050919050565b60006113d4601783611712565b91506113df82611a53565b601782019050919050565b60006113f7601883611701565b915061140282611a7c565b602082019050919050565b600061141a601283611701565b915061142582611aa5565b602082019050919050565b600061143d601183611712565b915061144882611ace565b601182019050919050565b6000611460602f83611701565b915061146b82611af7565b604082019050919050565b60006114828284611231565b60148201915081905092915050565b600061149d82856112d3565b6020820191506114ad82846112d3565b6020820191508190509392505050565b60006114c98284611350565b915081905092915050565b60006114df826113c7565b91506114eb8285611350565b91506114f682611430565b91506115028284611350565b91508190509392505050565b600060208201905081810360008301526115288184611248565b905092915050565b600060208201905061154560008301846112a6565b92915050565b600060208201905061156060008301846112c4565b92915050565b600060408201905081810360008301526115818185876112ea565b90506115906020830184611222565b949350505050565b600060208201905081810360008301526115b28184611317565b905092915050565b600060208201905081810360008301526115d381611381565b9050919050565b600060208201905081810360008301526115f3816113a4565b9050919050565b60006020820190508181036000830152611613816113ea565b9050919050565b600060208201905081810360008301526116338161140d565b9050919050565b6000602082019050818103600083015261165381611453565b9050919050565b60008083356001602003843603038112611677576116766119ca565b5b80840192508235915067ffffffffffffffff821115611699576116986119c5565b5b6020830192506001820236038313156116b5576116b46119d4565b5b509250929050565b6000819050602082019050919050565b600081519050919050565b600081519050919050565b6000602082019050919050565b600082825260208201905092915050565b600082825260208201905092915050565b600081905092915050565b600061172882611841565b915061173383611841565b9250827fffffffffffffffffffffffffffffffffffffffffffffffffffffffffffffffff038211156117685761176761192e565b5b828201905092915050565b600061177e82611841565b915061178983611841565b9250817fffffffffffffffffffffffffffffffffffffffffffffffffffffffffffffffff04831182151516156117c2576117c161192e565b5b828202905092915050565b60006117d882611821565b9050919050565b60008115159050919050565b6000819050919050565b60007fffffffff0000000000000000000000000000000000000000000000000000000082169050919050565b600073ffffffffffffffffffffffffffffffffffffffff82169050919050565b6000819050919050565b82818337600083830152505050565b60005b8381101561187857808201518184015260208101905061185d565b83811115611887576000848401525b50505050565b600061189882611841565b915060008214156118ac576118ab61192e565b5b600182039050919050565b60006118c282611841565b91507fffffffffffffffffffffffffffffffffffffffffffffffffffffffffffffffff8214156118f5576118f461192e565b5b600182019050919050565b600061190b8261191c565b9050919050565b6000819050919050565b6000611927826119f4565b9050919050565b7f4e487b7100000000000000000000000000000000000000000000000000000000600052601160045260246000fd5b7f4e487b7100000000000000000000000000000000000000000000000000000000600052603260045260246000fd5b7f4e487b7100000000000000000000000000000000000000000000000000000000600052604160045260246000fd5b600080fd5b600080fd5b600080fd5b600080fd5b600080fd5b600080fd5b600080fd5b600080fd5b6000601f19601f8301169050919050565b60008160601b9050919050565b7f537472696e67733a20686578206c656e67746820696e73756666696369656e74600082015250565b7f726f6c6520697320726f6f7420726f6c65206f66206163636f756e7400000000600082015250565b7f416363657373436f6e74726f6c3a206163636f756e7420000000000000000000600082015250565b7f417267756d656e74206c656e677468206d69736d617463680000000000000000600082015250565b7f417267756d656e747320746f6f206c6f6e670000000000000000000000000000600082015250565b7f206973206d697373696e6720726f6c6520000000000000000000000000000000600082015250565b7f416363657373436f6e74726f6c3a2063616e206f6e6c792072656e6f756e636560008201527f20726f6c657320666f722073656c660000000000000000000000000000000000602082015250565b611b4f816117cd565b8114611b5a57600080fd5b50565b611b66816117eb565b8114611b7157600080fd5b50565b611b7d816117f5565b8114611b8857600080fd5b5056fea26469706673582212209efcb21f21ef0b0062215ab4e61107461a14c17481e36fc136ed0757682a3a3c64736f6c63430008060033",
  "devdoc": {
    "details": "Each user is called a \"manager\", and are the only member of their root role. Starting from this root role, one can create an arbitrary tree of roles and grant these to accounts. Each role has a description, and roles adminned by the same role cannot have the same description.",
    "kind": "dev",
    "methods": {
      "deriveRole(bytes32,string)": {
        "details": "This implies that roles adminned by the same role cannot have the same description",
        "params": {
          "adminRole": "Admin role",
          "description": "Description"
        },
        "returns": {
          "role": "Role"
        }
      },
      "deriveRootRole(address)": {
        "params": {
          "manager": "Manager address"
        },
        "returns": {
          "rootRole": "Root role"
        }
      },
      "getRoleAdmin(bytes32)": {
        "details": "Returns the admin role that controls `role`. See {grantRole} and {revokeRole}. To change a role's admin, use {_setRoleAdmin}."
      },
      "grantRole(bytes32,address)": {
        "details": "Grants `role` to `account`. If `account` had not been already granted `role`, emits a {RoleGranted} event. Requirements: - the caller must have ``role``'s admin role."
      },
      "hasRole(bytes32,address)": {
        "details": "Returns `true` if `account` has been granted `role`."
      },
      "initializeAndGrantRoles(bytes32[],string[],address[])": {
        "details": "If a specific role should be initialized but not granted to an account, the respective account parameter can be left as `address(0)`. Lengths of the arguments must be equal, and less than 33.",
        "params": {
          "accounts": "Accounts the initialized roles will be granted to",
          "adminRoles": "Admin role to be assigned to the initialized roles",
          "descriptions": "Human-readable descriptions of the initialized roles"
        },
        "returns": {
          "roles": "Initialized roles"
        }
      },
      "initializeManager(address)": {
        "details": "Anyone can initialize a manager. An uninitialized manager attempting to initialize a role will be initialized automatically. Once a manager is initialized, subsequent initializations have no effect.",
        "params": {
          "manager": "Manager address to be initialized"
        }
      },
      "initializeRole(bytes32,string)": {
        "details": "If the sender should not have the initialized role, they should explicitly renounce it afterwards. Once a role is initialized, subsequent initialization have no effect, other than granting the role to the sender. The sender must be a member of `adminRole`. If the sender is an uninitialized manager that is initializing a role directly under their root role, manager initialization will happen automatically, which will grant the sender `adminRole`.",
        "params": {
          "adminRole": "Admin role to be assigned to the initialized role",
          "description": "Human-readable description of the initialized role"
        },
        "returns": {
          "role": "Initialized role"
        }
      },
      "renounceRole(bytes32,address)": {
        "details": "Overriden to disallow managers from renouncing their root roles",
        "params": {
          "account": "Account to renounce the role",
          "role": "Role to be renounced"
        }
      },
      "revokeRole(bytes32,address)": {
        "details": "Revokes `role` from `account`. If `account` had been granted `role`, emits a {RoleRevoked} event. Requirements: - the caller must have ``role``'s admin role."
      },
      "supportsInterface(bytes4)": {
        "details": "See {IERC165-supportsInterface}."
      }
    },
    "title": "Contract that allows users to manage independent, tree-shaped access control tables",
    "version": 1
  },
  "userdoc": {
    "kind": "user",
    "methods": {
      "deriveRole(bytes32,string)": {
        "notice": "Derives the role using its admin role and description"
      },
      "deriveRootRole(address)": {
        "notice": "Derives the root role of the manager"
      },
      "initializeAndGrantRoles(bytes32[],string[],address[])": {
        "notice": "Initializes roles and grants them to the respective accounts"
      },
      "initializeManager(address)": {
        "notice": "Initializes the manager by initializing its root role and granting it to them"
      },
      "initializeRole(bytes32,string)": {
        "notice": "Initializes a role, which includes setting its admin, associating it with its manager and granting it to the sender"
      },
      "renounceRole(bytes32,address)": {
        "notice": "Called for the account to renounce the role"
      }
    },
    "notice": "Multiple contracts can refer to this contract to check if their users have granted accounts with specific roles. Therefore, it aims to keep all access control roles of its users in this single contract.",
    "version": 1
  },
  "storageLayout": {
    "storage": [
      {
        "astId": 24,
        "contract": "contracts/access-control-registry/AccessControlRegistry.sol:AccessControlRegistry",
        "label": "_roles",
        "offset": 0,
        "slot": "0",
        "type": "t_mapping(t_bytes32,t_struct(RoleData)19_storage)"
      }
    ],
    "types": {
      "t_address": {
        "encoding": "inplace",
        "label": "address",
        "numberOfBytes": "20"
      },
      "t_bool": {
        "encoding": "inplace",
        "label": "bool",
        "numberOfBytes": "1"
      },
      "t_bytes32": {
        "encoding": "inplace",
        "label": "bytes32",
        "numberOfBytes": "32"
      },
      "t_mapping(t_address,t_bool)": {
        "encoding": "mapping",
        "key": "t_address",
        "label": "mapping(address => bool)",
        "numberOfBytes": "32",
        "value": "t_bool"
      },
      "t_mapping(t_bytes32,t_struct(RoleData)19_storage)": {
        "encoding": "mapping",
        "key": "t_bytes32",
        "label": "mapping(bytes32 => struct AccessControl.RoleData)",
        "numberOfBytes": "32",
        "value": "t_struct(RoleData)19_storage"
      },
      "t_struct(RoleData)19_storage": {
        "encoding": "inplace",
        "label": "struct AccessControl.RoleData",
        "members": [
          {
            "astId": 16,
            "contract": "contracts/access-control-registry/AccessControlRegistry.sol:AccessControlRegistry",
            "label": "members",
            "offset": 0,
            "slot": "0",
            "type": "t_mapping(t_address,t_bool)"
          },
          {
            "astId": 18,
            "contract": "contracts/access-control-registry/AccessControlRegistry.sol:AccessControlRegistry",
            "label": "adminRole",
            "offset": 0,
            "slot": "1",
            "type": "t_bytes32"
          }
        ],
        "numberOfBytes": "64"
      }
    }
  }
}