{
  "address": "0xF48a04adff560Cc6F7848B5A2aB2F497e7E74130",
  "abi": [
    {
      "anonymous": false,
      "inputs": [
        {
          "indexed": true,
          "internalType": "bytes32",
          "name": "templateId",
          "type": "bytes32"
        },
        {
          "indexed": false,
          "internalType": "address",
          "name": "airnode",
          "type": "address"
        },
        {
          "indexed": false,
          "internalType": "bytes32",
          "name": "endpointId",
          "type": "bytes32"
        },
        {
          "indexed": false,
          "internalType": "bytes",
          "name": "parameters",
          "type": "bytes"
        }
      ],
      "name": "CreatedTemplate",
      "type": "event"
    },
    {
      "anonymous": false,
      "inputs": [
        {
          "indexed": true,
          "internalType": "address",
          "name": "airnode",
          "type": "address"
        },
        {
          "indexed": true,
          "internalType": "bytes32",
          "name": "requestId",
          "type": "bytes32"
        },
        {
          "indexed": false,
          "internalType": "string",
          "name": "errorMessage",
          "type": "string"
        }
      ],
      "name": "FailedRequest",
      "type": "event"
    },
    {
      "anonymous": false,
      "inputs": [
        {
          "indexed": true,
          "internalType": "address",
          "name": "airnode",
          "type": "address"
        },
        {
          "indexed": true,
          "internalType": "bytes32",
          "name": "requestId",
          "type": "bytes32"
        },
        {
          "indexed": false,
          "internalType": "bytes",
          "name": "data",
          "type": "bytes"
        }
      ],
      "name": "FulfilledRequest",
      "type": "event"
    },
    {
      "anonymous": false,
      "inputs": [
        {
          "indexed": true,
          "internalType": "address",
          "name": "airnode",
          "type": "address"
        },
        {
          "indexed": true,
          "internalType": "address",
          "name": "sponsor",
          "type": "address"
        },
        {
          "indexed": true,
          "internalType": "bytes32",
          "name": "withdrawalRequestId",
          "type": "bytes32"
        },
        {
          "indexed": false,
          "internalType": "address",
          "name": "sponsorWallet",
          "type": "address"
        },
        {
          "indexed": false,
          "internalType": "uint256",
          "name": "amount",
          "type": "uint256"
        }
      ],
      "name": "FulfilledWithdrawal",
      "type": "event"
    },
    {
      "anonymous": false,
      "inputs": [
        {
          "indexed": true,
          "internalType": "address",
          "name": "airnode",
          "type": "address"
        },
        {
          "indexed": true,
          "internalType": "bytes32",
          "name": "requestId",
          "type": "bytes32"
        },
        {
          "indexed": false,
          "internalType": "uint256",
          "name": "requesterRequestCount",
          "type": "uint256"
        },
        {
          "indexed": false,
          "internalType": "uint256",
          "name": "chainId",
          "type": "uint256"
        },
        {
          "indexed": false,
          "internalType": "address",
          "name": "requester",
          "type": "address"
        },
        {
          "indexed": false,
          "internalType": "bytes32",
          "name": "endpointId",
          "type": "bytes32"
        },
        {
          "indexed": false,
          "internalType": "address",
          "name": "sponsor",
          "type": "address"
        },
        {
          "indexed": false,
          "internalType": "address",
          "name": "sponsorWallet",
          "type": "address"
        },
        {
          "indexed": false,
          "internalType": "address",
          "name": "fulfillAddress",
          "type": "address"
        },
        {
          "indexed": false,
          "internalType": "bytes4",
          "name": "fulfillFunctionId",
          "type": "bytes4"
        },
        {
          "indexed": false,
          "internalType": "bytes",
          "name": "parameters",
          "type": "bytes"
        }
      ],
      "name": "MadeFullRequest",
      "type": "event"
    },
    {
      "anonymous": false,
      "inputs": [
        {
          "indexed": true,
          "internalType": "address",
          "name": "airnode",
          "type": "address"
        },
        {
          "indexed": true,
          "internalType": "bytes32",
          "name": "requestId",
          "type": "bytes32"
        },
        {
          "indexed": false,
          "internalType": "uint256",
          "name": "requesterRequestCount",
          "type": "uint256"
        },
        {
          "indexed": false,
          "internalType": "uint256",
          "name": "chainId",
          "type": "uint256"
        },
        {
          "indexed": false,
          "internalType": "address",
          "name": "requester",
          "type": "address"
        },
        {
          "indexed": false,
          "internalType": "bytes32",
          "name": "templateId",
          "type": "bytes32"
        },
        {
          "indexed": false,
          "internalType": "address",
          "name": "sponsor",
          "type": "address"
        },
        {
          "indexed": false,
          "internalType": "address",
          "name": "sponsorWallet",
          "type": "address"
        },
        {
          "indexed": false,
          "internalType": "address",
          "name": "fulfillAddress",
          "type": "address"
        },
        {
          "indexed": false,
          "internalType": "bytes4",
          "name": "fulfillFunctionId",
          "type": "bytes4"
        },
        {
          "indexed": false,
          "internalType": "bytes",
          "name": "parameters",
          "type": "bytes"
        }
      ],
      "name": "MadeTemplateRequest",
      "type": "event"
    },
    {
      "anonymous": false,
      "inputs": [
        {
          "indexed": true,
          "internalType": "address",
          "name": "airnode",
          "type": "address"
        },
        {
          "indexed": true,
          "internalType": "address",
          "name": "sponsor",
          "type": "address"
        },
        {
          "indexed": true,
          "internalType": "bytes32",
          "name": "withdrawalRequestId",
          "type": "bytes32"
        },
        {
          "indexed": false,
          "internalType": "address",
          "name": "sponsorWallet",
          "type": "address"
        }
      ],
      "name": "RequestedWithdrawal",
      "type": "event"
    },
    {
      "anonymous": false,
      "inputs": [
        {
          "indexed": true,
          "internalType": "address",
          "name": "sponsor",
          "type": "address"
        },
        {
          "indexed": true,
          "internalType": "address",
          "name": "requester",
          "type": "address"
        },
        {
          "indexed": false,
          "internalType": "bool",
          "name": "sponsorshipStatus",
          "type": "bool"
        }
      ],
      "name": "SetSponsorshipStatus",
      "type": "event"
    },
    {
      "inputs": [
        {
          "internalType": "address[]",
          "name": "authorizers",
          "type": "address[]"
        },
        {
          "internalType": "address",
          "name": "airnode",
          "type": "address"
        },
        {
          "internalType": "bytes32",
          "name": "requestId",
          "type": "bytes32"
        },
        {
          "internalType": "bytes32",
          "name": "endpointId",
          "type": "bytes32"
        },
        {
          "internalType": "address",
          "name": "sponsor",
          "type": "address"
        },
        {
          "internalType": "address",
          "name": "requester",
          "type": "address"
        }
      ],
      "name": "checkAuthorizationStatus",
      "outputs": [
        {
          "internalType": "bool",
          "name": "status",
          "type": "bool"
        }
      ],
      "stateMutability": "view",
      "type": "function"
    },
    {
      "inputs": [
        {
          "internalType": "address[]",
          "name": "authorizers",
          "type": "address[]"
        },
        {
          "internalType": "address",
          "name": "airnode",
          "type": "address"
        },
        {
          "internalType": "bytes32[]",
          "name": "requestIds",
          "type": "bytes32[]"
        },
        {
          "internalType": "bytes32[]",
          "name": "endpointIds",
          "type": "bytes32[]"
        },
        {
          "internalType": "address[]",
          "name": "sponsors",
          "type": "address[]"
        },
        {
          "internalType": "address[]",
          "name": "requesters",
          "type": "address[]"
        }
      ],
      "name": "checkAuthorizationStatuses",
      "outputs": [
        {
          "internalType": "bool[]",
          "name": "statuses",
          "type": "bool[]"
        }
      ],
      "stateMutability": "view",
      "type": "function"
    },
    {
      "inputs": [
        {
          "internalType": "address",
          "name": "airnode",
          "type": "address"
        },
        {
          "internalType": "bytes32",
          "name": "endpointId",
          "type": "bytes32"
        },
        {
          "internalType": "bytes",
          "name": "parameters",
          "type": "bytes"
        }
      ],
      "name": "createTemplate",
      "outputs": [
        {
          "internalType": "bytes32",
          "name": "templateId",
          "type": "bytes32"
        }
      ],
      "stateMutability": "nonpayable",
      "type": "function"
    },
    {
      "inputs": [
        {
          "internalType": "bytes32",
          "name": "requestId",
          "type": "bytes32"
        },
        {
          "internalType": "address",
          "name": "airnode",
          "type": "address"
        },
        {
          "internalType": "address",
          "name": "fulfillAddress",
          "type": "address"
        },
        {
          "internalType": "bytes4",
          "name": "fulfillFunctionId",
          "type": "bytes4"
        },
        {
          "internalType": "string",
          "name": "errorMessage",
          "type": "string"
        }
      ],
      "name": "fail",
      "outputs": [],
      "stateMutability": "nonpayable",
      "type": "function"
    },
    {
      "inputs": [
        {
          "internalType": "bytes32",
          "name": "requestId",
          "type": "bytes32"
        },
        {
          "internalType": "address",
          "name": "airnode",
          "type": "address"
        },
        {
          "internalType": "address",
          "name": "fulfillAddress",
          "type": "address"
        },
        {
          "internalType": "bytes4",
          "name": "fulfillFunctionId",
          "type": "bytes4"
        },
        {
          "internalType": "bytes",
          "name": "data",
          "type": "bytes"
        },
        {
          "internalType": "bytes",
          "name": "signature",
          "type": "bytes"
        }
      ],
      "name": "fulfill",
      "outputs": [
        {
          "internalType": "bool",
          "name": "callSuccess",
          "type": "bool"
        },
        {
          "internalType": "bytes",
          "name": "callData",
          "type": "bytes"
        }
      ],
      "stateMutability": "nonpayable",
      "type": "function"
    },
    {
      "inputs": [
        {
          "internalType": "bytes32",
          "name": "withdrawalRequestId",
          "type": "bytes32"
        },
        {
          "internalType": "address",
          "name": "airnode",
          "type": "address"
        },
        {
          "internalType": "address",
          "name": "sponsor",
          "type": "address"
        }
      ],
      "name": "fulfillWithdrawal",
      "outputs": [],
      "stateMutability": "payable",
      "type": "function"
    },
    {
      "inputs": [
        {
          "internalType": "bytes32[]",
          "name": "templateIds",
          "type": "bytes32[]"
        }
      ],
      "name": "getTemplates",
      "outputs": [
        {
          "internalType": "address[]",
          "name": "airnodes",
          "type": "address[]"
        },
        {
          "internalType": "bytes32[]",
          "name": "endpointIds",
          "type": "bytes32[]"
        },
        {
          "internalType": "bytes[]",
          "name": "parameters",
          "type": "bytes[]"
        }
      ],
      "stateMutability": "view",
      "type": "function"
    },
    {
      "inputs": [
        {
          "internalType": "address",
          "name": "airnode",
          "type": "address"
        },
        {
          "internalType": "bytes32",
          "name": "endpointId",
          "type": "bytes32"
        },
        {
          "internalType": "address",
          "name": "sponsor",
          "type": "address"
        },
        {
          "internalType": "address",
          "name": "sponsorWallet",
          "type": "address"
        },
        {
          "internalType": "address",
          "name": "fulfillAddress",
          "type": "address"
        },
        {
          "internalType": "bytes4",
          "name": "fulfillFunctionId",
          "type": "bytes4"
        },
        {
          "internalType": "bytes",
          "name": "parameters",
          "type": "bytes"
        }
      ],
      "name": "makeFullRequest",
      "outputs": [
        {
          "internalType": "bytes32",
          "name": "requestId",
          "type": "bytes32"
        }
      ],
      "stateMutability": "nonpayable",
      "type": "function"
    },
    {
      "inputs": [
        {
          "internalType": "bytes32",
          "name": "templateId",
          "type": "bytes32"
        },
        {
          "internalType": "address",
          "name": "sponsor",
          "type": "address"
        },
        {
          "internalType": "address",
          "name": "sponsorWallet",
          "type": "address"
        },
        {
          "internalType": "address",
          "name": "fulfillAddress",
          "type": "address"
        },
        {
          "internalType": "bytes4",
          "name": "fulfillFunctionId",
          "type": "bytes4"
        },
        {
          "internalType": "bytes",
          "name": "parameters",
          "type": "bytes"
        }
      ],
      "name": "makeTemplateRequest",
      "outputs": [
        {
          "internalType": "bytes32",
          "name": "requestId",
          "type": "bytes32"
        }
      ],
      "stateMutability": "nonpayable",
      "type": "function"
    },
    {
      "inputs": [
        {
          "internalType": "bytes32",
          "name": "requestId",
          "type": "bytes32"
        }
      ],
      "name": "requestIsAwaitingFulfillment",
      "outputs": [
        {
          "internalType": "bool",
          "name": "isAwaitingFulfillment",
          "type": "bool"
        }
      ],
      "stateMutability": "view",
      "type": "function"
    },
    {
      "inputs": [
        {
          "internalType": "address",
          "name": "airnode",
          "type": "address"
        },
        {
          "internalType": "address",
          "name": "sponsorWallet",
          "type": "address"
        }
      ],
      "name": "requestWithdrawal",
      "outputs": [],
      "stateMutability": "nonpayable",
      "type": "function"
    },
    {
      "inputs": [
        {
          "internalType": "address",
          "name": "",
          "type": "address"
        }
      ],
      "name": "requesterToRequestCountPlusOne",
      "outputs": [
        {
          "internalType": "uint256",
          "name": "",
          "type": "uint256"
        }
      ],
      "stateMutability": "view",
      "type": "function"
    },
    {
      "inputs": [
        {
          "internalType": "address",
          "name": "requester",
          "type": "address"
        },
        {
          "internalType": "bool",
          "name": "sponsorshipStatus",
          "type": "bool"
        }
      ],
      "name": "setSponsorshipStatus",
      "outputs": [],
      "stateMutability": "nonpayable",
      "type": "function"
    },
    {
      "inputs": [
        {
          "internalType": "address",
          "name": "",
          "type": "address"
        },
        {
          "internalType": "address",
          "name": "",
          "type": "address"
        }
      ],
      "name": "sponsorToRequesterToSponsorshipStatus",
      "outputs": [
        {
          "internalType": "bool",
          "name": "",
          "type": "bool"
        }
      ],
      "stateMutability": "view",
      "type": "function"
    },
    {
      "inputs": [
        {
          "internalType": "address",
          "name": "",
          "type": "address"
        }
      ],
      "name": "sponsorToWithdrawalRequestCount",
      "outputs": [
        {
          "internalType": "uint256",
          "name": "",
          "type": "uint256"
        }
      ],
      "stateMutability": "view",
      "type": "function"
    },
    {
      "inputs": [
        {
          "internalType": "bytes32",
          "name": "",
          "type": "bytes32"
        }
      ],
      "name": "templates",
      "outputs": [
        {
          "internalType": "address",
          "name": "airnode",
          "type": "address"
        },
        {
          "internalType": "bytes32",
          "name": "endpointId",
          "type": "bytes32"
        },
        {
          "internalType": "bytes",
          "name": "parameters",
          "type": "bytes"
        }
      ],
      "stateMutability": "view",
      "type": "function"
    }
  ],
  "transactionHash": "0x842764bb2559ec86eafdf0f992192d952caf98147d8813c3d3fd0d9497822bda",
  "args": [],
  "solcInputHash": "c05b7ebb130ccceddfe4d0dfdccbc692",
  "bytecode": "0x608060405234801561001057600080fd5b50613ea5806100206000396000f3fe6080604052600436106100f35760003560e01c806376428c9b1161008a578063acbe180011610059578063acbe180014610390578063addf027c146103cd578063ca31d586146103f6578063f8fa73a114610433576100f3565b806376428c9b1461029a5780637e7166f3146102d95780638a33be0114610316578063a81e9f7914610353576100f3565b80633c7fe5e3116100c65780633c7fe5e3146101db57806350743bb9146101f757806352e41f99146102345780636e6be03f1461025d576100f3565b80630a631576146100f85780631d414cbd146101375780631decbf181461016057806332393f2b1461019e575b600080fd5b34801561010457600080fd5b5061011f600480360381019061011a91906126a3565b610470565b60405161012e939291906132bb565b60405180910390f35b34801561014357600080fd5b5061015e60048036038101906101599190612293565b610542565b005b34801561016c57600080fd5b50610187600480360381019061018291906127d2565b610671565b6040516101959291906133ab565b60405180910390f35b3480156101aa57600080fd5b506101c560048036038101906101c091906123d5565b61099c565b6040516101d291906133db565b60405180910390f35b6101f560048036038101906101f091906126d0565b610b7a565b005b34801561020357600080fd5b5061021e600480360381019061021991906126a3565b610d2a565b60405161022b9190613390565b60405180910390f35b34801561024057600080fd5b5061025b600480360381019061025691906128a1565b610d4d565b005b34801561026957600080fd5b50610284600480360381019061027f9190612313565b610e3e565b60405161029191906133db565b60405180910390f35b3480156102a657600080fd5b506102c160048036038101906102bc9190612629565b611171565b6040516102d093929190613322565b60405180910390f35b3480156102e557600080fd5b5061030060048036038101906102fb9190612266565b6113ff565b60405161030d91906136c8565b60405180910390f35b34801561032257600080fd5b5061033d6004803603810190610338919061257a565b611417565b60405161034a9190613390565b60405180910390f35b34801561035f57600080fd5b5061037a60048036038101906103759190612293565b61151c565b6040516103879190613390565b60405180910390f35b34801561039c57600080fd5b506103b760048036038101906103b29190612723565b61154b565b6040516103c491906133db565b60405180910390f35b3480156103d957600080fd5b506103f460048036038101906103ef91906122d3565b6118b6565b005b34801561040257600080fd5b5061041d60048036038101906104189190612449565b611a41565b60405161042a919061336e565b60405180910390f35b34801561043f57600080fd5b5061045a60048036038101906104559190612266565b611be0565b60405161046791906136c8565b60405180910390f35b60006020528060005260406000206000915090508060000160009054906101000a900473ffffffffffffffffffffffffffffffffffffffff16908060010154908060020180546104bf9061397e565b80601f01602080910402602001604051908101604052809291908181526020018280546104eb9061397e565b80156105385780601f1061050d57610100808354040283529160200191610538565b820191906000526020600020905b81548152906001019060200180831161051b57829003601f168201915b5050505050905083565b6000463033600160003373ffffffffffffffffffffffffffffffffffffffff1673ffffffffffffffffffffffffffffffffffffffff16815260200190815260200160002060008154610593906139b0565b9190508190556040516020016105ac949392919061309d565b6040516020818303038152906040528051906020012090508233836040516020016105d993929190612f5b565b604051602081830303815290604052805190602001206002600083815260200190815260200160002081905550803373ffffffffffffffffffffffffffffffffffffffff168473ffffffffffffffffffffffffffffffffffffffff167fd48d52c7c6d0c940f3f8d07591e1800ef3a70daf79929a97ccd80b4494769fc7856040516106649190613260565b60405180910390a4505050565b60006060600560008b81526020019081526020016000205489338a8a6040516020016106a09493929190612f98565b60405160208183030381529060405280519060200120146106f6576040517f08c379a00000000000000000000000000000000000000000000000000000000081526004016106ed90613668565b60405180910390fd5b8873ffffffffffffffffffffffffffffffffffffffff1661079685858080601f016020809104026020016040519081016040528093929190818152602001838380828437600081840152601f19601f820116905080830192505050505050506107888d8a8a60405160200161076d93929190613021565b60405160208183030381529060405280519060200120611bf8565b611c2890919063ffffffff16565b73ffffffffffffffffffffffffffffffffffffffff16146107ec576040517f08c379a00000000000000000000000000000000000000000000000000000000081526004016107e390613568565b60405180910390fd5b600560008b8152602001908152602001600020600090558773ffffffffffffffffffffffffffffffffffffffff16878b888860405160240161083093929190613449565b604051602081830303815290604052907bffffffffffffffffffffffffffffffffffffffffffffffffffffffff19166020820180517bffffffffffffffffffffffffffffffffffffffffffffffffffffffff838183161783525050505060405161089a919061304b565b6000604051808303816000865af19150503d80600081146108d7576040519150601f19603f3d011682016040523d82523d6000602084013e6108dc565b606091505b508092508193505050811561094157898973ffffffffffffffffffffffffffffffffffffffff167fc0977dab79883641ece94bb6a932ca83049f561ffff8d8daaeafdbc1acce9e0a88886040516109349291906134c0565b60405180910390a361098f565b898973ffffffffffffffffffffffffffffffffffffffff167fc7143b2270cddda57e0087ca5e2a4325657dcab10d10f6b1f9d5ce6b41cb97fc604051610986906135e8565b60405180910390a35b9850989650505050505050565b60008073ffffffffffffffffffffffffffffffffffffffff168573ffffffffffffffffffffffffffffffffffffffff161415610a0d576040517f08c379a0000000000000000000000000000000000000000000000000000000008152600401610a0490613688565b60405180910390fd5b84848484604051602001610a249493929190612fe6565b60405160208183030381529060405280519060200120905060405180606001604052808673ffffffffffffffffffffffffffffffffffffffff16815260200185815260200184848080601f016020809104026020016040519081016040528093929190818152602001838380828437600081840152601f19601f8201169050808301925050505050505081525060008083815260200190815260200160002060008201518160000160006101000a81548173ffffffffffffffffffffffffffffffffffffffff021916908373ffffffffffffffffffffffffffffffffffffffff160217905550602082015181600101556040820151816002019080519060200190610b30929190612002565b50905050807fba204bad31c4ec4b9b54164af94ae10c4e7312f22c0f9c065d6319c928ec9e7a86868686604051610b6a949392919061327b565b60405180910390a2949350505050565b818133604051602001610b8f93929190612f5b565b60405160208183030381529060405280519060200120600260008581526020019081526020016000205414610bf9576040517f08c379a0000000000000000000000000000000000000000000000000000000008152600401610bf0906135c8565b60405180910390fd5b6002600084815260200190815260200160002060009055828173ffffffffffffffffffffffffffffffffffffffff168373ffffffffffffffffffffffffffffffffffffffff167fadb4840bbd5f924665ae7e0e0c83de5c0fb40a98c9b57dba53a6c978127a622e3334604051610c709291906132f9565b60405180910390a460008173ffffffffffffffffffffffffffffffffffffffff1634604051610c9e90613088565b60006040518083038185875af1925050503d8060008114610cdb576040519150601f19603f3d011682016040523d82523d6000602084013e610ce0565b606091505b5050905080610d24576040517f08c379a0000000000000000000000000000000000000000000000000000000008152600401610d1b90613548565b60405180910390fd5b50505050565b60008060001b600560008481526020019081526020016000205414159050919050565b600560008781526020019081526020016000205485338686604051602001610d789493929190612f98565b6040516020818303038152906040528051906020012014610dce576040517f08c379a0000000000000000000000000000000000000000000000000000000008152600401610dc590613668565b60405180910390fd5b6005600087815260200190815260200160002060009055858573ffffffffffffffffffffffffffffffffffffffff167fc7143b2270cddda57e0087ca5e2a4325657dcab10d10f6b1f9d5ce6b41cb97fc8484604051610e2e9291906134e4565b60405180910390a3505050505050565b60008073ffffffffffffffffffffffffffffffffffffffff168973ffffffffffffffffffffffffffffffffffffffff161415610eaf576040517f08c379a0000000000000000000000000000000000000000000000000000000008152600401610ea690613688565b60405180910390fd5b3073ffffffffffffffffffffffffffffffffffffffff168573ffffffffffffffffffffffffffffffffffffffff161415610f1e576040517f08c379a0000000000000000000000000000000000000000000000000000000008152600401610f1590613648565b60405180910390fd5b600360008873ffffffffffffffffffffffffffffffffffffffff1673ffffffffffffffffffffffffffffffffffffffff16815260200190815260200160002060003373ffffffffffffffffffffffffffffffffffffffff1673ffffffffffffffffffffffffffffffffffffffff16815260200190815260200160002060009054906101000a900460ff16610fe7576040517f08c379a0000000000000000000000000000000000000000000000000000000008152600401610fde906136a8565b60405180910390fd5b6000600460003373ffffffffffffffffffffffffffffffffffffffff1673ffffffffffffffffffffffffffffffffffffffff168152602001908152602001600020549050463033838d8d8d8d8d8d8d8d6040516020016110529c9b9a999897969594939291906130eb565b604051602081830303815290604052805190602001209150898787876040516020016110819493929190612f98565b604051602081830303815290604052805190602001206005600084815260200190815260200160002081905550600460003373ffffffffffffffffffffffffffffffffffffffff1673ffffffffffffffffffffffffffffffffffffffff16815260200190815260200160002060008154809291906110fe906139b0565b9190505550818a73ffffffffffffffffffffffffffffffffffffffff167f3a52c462346de2e9436a3868970892956828a11b9c43da1ed43740b12e1125ae8346338e8e8e8e8e8e8e60405161115c9a999897969594939291906136e3565b60405180910390a35098975050505050505050565b60608060608484905067ffffffffffffffff81111561119357611192613af7565b5b6040519080825280602002602001820160405280156111c15781602001602082028036833780820191505090505b5092508484905067ffffffffffffffff8111156111e1576111e0613af7565b5b60405190808252806020026020018201604052801561120f5781602001602082028036833780820191505090505b5091508484905067ffffffffffffffff81111561122f5761122e613af7565b5b60405190808252806020026020018201604052801561126257816020015b606081526020019060019003908161124d5790505b50905060005b858590508110156113f757600080600088888581811061128b5761128a613ac8565b5b90506020020135815260200190815260200160002090508060000160009054906101000a900473ffffffffffffffffffffffffffffffffffffffff168583815181106112da576112d9613ac8565b5b602002602001019073ffffffffffffffffffffffffffffffffffffffff16908173ffffffffffffffffffffffffffffffffffffffff1681525050806001015484838151811061132c5761132b613ac8565b5b6020026020010181815250508060020180546113479061397e565b80601f01602080910402602001604051908101604052809291908181526020018280546113739061397e565b80156113c05780601f10611395576101008083540402835291602001916113c0565b820191906000526020600020905b8154815290600101906020018083116113a357829003601f168201915b50505050508383815181106113d8576113d7613ac8565b5b60200260200101819052505080806113ef906139b0565b915050611268565b509250925092565b60046020528060005260406000206000915090505481565b600080600090505b8888905081101561150b57600089898381811061143f5761143e613ac8565b5b90506020020160208101906114549190612266565b90508073ffffffffffffffffffffffffffffffffffffffff16635d51dbdc888a8989896040518663ffffffff1660e01b81526004016114979594939291906133f6565b60206040518083038186803b1580156114af57600080fd5b505afa1580156114c3573d6000803e3d6000fd5b505050506040513d601f19601f820116820180604052508101906114e79190612676565b156114f757600192505050611511565b508080611503906139b0565b91505061141f565b50600090505b979650505050505050565b60036020528160005260406000206020528060005260406000206000915091509054906101000a900460ff1681565b6000806000808a815260200190815260200160002060000160009054906101000a900473ffffffffffffffffffffffffffffffffffffffff169050600073ffffffffffffffffffffffffffffffffffffffff168173ffffffffffffffffffffffffffffffffffffffff1614156115f6576040517f08c379a00000000000000000000000000000000000000000000000000000000081526004016115ed90613608565b60405180910390fd5b3073ffffffffffffffffffffffffffffffffffffffff168673ffffffffffffffffffffffffffffffffffffffff161415611665576040517f08c379a000000000000000000000000000000000000000000000000000000000815260040161165c90613648565b60405180910390fd5b600360008973ffffffffffffffffffffffffffffffffffffffff1673ffffffffffffffffffffffffffffffffffffffff16815260200190815260200160002060003373ffffffffffffffffffffffffffffffffffffffff1673ffffffffffffffffffffffffffffffffffffffff16815260200190815260200160002060009054906101000a900460ff1661172e576040517f08c379a0000000000000000000000000000000000000000000000000000000008152600401611725906136a8565b60405180910390fd5b6000600460003373ffffffffffffffffffffffffffffffffffffffff1673ffffffffffffffffffffffffffffffffffffffff168152602001908152602001600020549050463033838d8d8d8d8d8d8d6040516020016117979b9a999897969594939291906131ae565b604051602081830303815290604052805190602001209250818888886040516020016117c69493929190612f98565b604051602081830303815290604052805190602001206005600085815260200190815260200160002081905550600460003373ffffffffffffffffffffffffffffffffffffffff1673ffffffffffffffffffffffffffffffffffffffff1681526020019081526020016000206000815480929190611843906139b0565b9190505550828273ffffffffffffffffffffffffffffffffffffffff167feb39930cdcbb560e6422558a2468b93a215af60063622e63cbb165eba14c32038346338f8f8f8f8f8f8f6040516118a19a999897969594939291906136e3565b60405180910390a35050979650505050505050565b6000600460008473ffffffffffffffffffffffffffffffffffffffff1673ffffffffffffffffffffffffffffffffffffffff168152602001908152602001600020541415611944576001600460008473ffffffffffffffffffffffffffffffffffffffff1673ffffffffffffffffffffffffffffffffffffffff168152602001908152602001600020819055505b80600360003373ffffffffffffffffffffffffffffffffffffffff1673ffffffffffffffffffffffffffffffffffffffff16815260200190815260200160002060008473ffffffffffffffffffffffffffffffffffffffff1673ffffffffffffffffffffffffffffffffffffffff16815260200190815260200160002060006101000a81548160ff0219169083151502179055508173ffffffffffffffffffffffffffffffffffffffff163373ffffffffffffffffffffffffffffffffffffffff167fc2e532a12bbcce2bfa2ef9e4bee80180e4e1b1f78618f0d20bc49a648b577c5683604051611a359190613390565b60405180910390a35050565b60608686905089899050148015611a5d57508484905089899050145b8015611a6e57508282905089899050145b611aad576040517f08c379a0000000000000000000000000000000000000000000000000000000008152600401611aa490613628565b60405180910390fd5b8888905067ffffffffffffffff811115611aca57611ac9613af7565b5b604051908082528060200260200182016040528015611af85781602001602082028036833780820191505090505b50905060005b89899050811015611bd057611b988d8d8d8d8d86818110611b2257611b21613ac8565b5b905060200201358c8c87818110611b3c57611b3b613ac8565b5b905060200201358b8b88818110611b5657611b55613ac8565b5b9050602002016020810190611b6b9190612266565b8a8a89818110611b7e57611b7d613ac8565b5b9050602002016020810190611b939190612266565b611417565b828281518110611bab57611baa613ac8565b5b6020026020010190151590811515815250508080611bc8906139b0565b915050611afe565b509b9a5050505050505050505050565b60016020528060005260406000206000915090505481565b600081604051602001611c0b9190613062565b604051602081830303815290604052805190602001209050919050565b6000806000611c378585611c4f565b91509150611c4481611cd2565b819250505092915050565b600080604183511415611c915760008060006020860151925060408601519150606086015160001a9050611c8587828585611ea7565b94509450505050611ccb565b604083511415611cc2576000806020850151915060408501519050611cb7868383611fb4565b935093505050611ccb565b60006002915091505b9250929050565b60006004811115611ce657611ce5613a6a565b5b816004811115611cf957611cf8613a6a565b5b1415611d0457611ea4565b60016004811115611d1857611d17613a6a565b5b816004811115611d2b57611d2a613a6a565b5b1415611d6c576040517f08c379a0000000000000000000000000000000000000000000000000000000008152600401611d6390613508565b60405180910390fd5b60026004811115611d8057611d7f613a6a565b5b816004811115611d9357611d92613a6a565b5b1415611dd4576040517f08c379a0000000000000000000000000000000000000000000000000000000008152600401611dcb90613528565b60405180910390fd5b60036004811115611de857611de7613a6a565b5b816004811115611dfb57611dfa613a6a565b5b1415611e3c576040517f08c379a0000000000000000000000000000000000000000000000000000000008152600401611e3390613588565b60405180910390fd5b600480811115611e4f57611e4e613a6a565b5b816004811115611e6257611e61613a6a565b5b1415611ea3576040517f08c379a0000000000000000000000000000000000000000000000000000000008152600401611e9a906135a8565b60405180910390fd5b5b50565b6000807f7fffffffffffffffffffffffffffffff5d576e7357a4501ddfe92f46681b20a08360001c1115611ee2576000600391509150611fab565b601b8560ff1614158015611efa5750601c8560ff1614155b15611f0c576000600491509150611fab565b600060018787878760405160008152602001604052604051611f31949392919061347b565b6020604051602081039080840390855afa158015611f53573d6000803e3d6000fd5b505050602060405103519050600073ffffffffffffffffffffffffffffffffffffffff168173ffffffffffffffffffffffffffffffffffffffff161415611fa257600060019250925050611fab565b80600092509250505b94509492505050565b6000806000807f7fffffffffffffffffffffffffffffffffffffffffffffffffffffffffffffff85169150601b8560ff1c019050611ff487828885611ea7565b935093505050935093915050565b82805461200e9061397e565b90600052602060002090601f0160209004810192826120305760008555612077565b82601f1061204957805160ff1916838001178555612077565b82800160010185558215612077579182015b8281111561207657825182559160200191906001019061205b565b5b5090506120849190612088565b5090565b5b808211156120a1576000816000905550600101612089565b5090565b6000813590506120b481613e13565b92915050565b60008083601f8401126120d0576120cf613b2b565b5b8235905067ffffffffffffffff8111156120ed576120ec613b26565b5b60208301915083602082028301111561210957612108613b30565b5b9250929050565b60008083601f84011261212657612125613b2b565b5b8235905067ffffffffffffffff81111561214357612142613b26565b5b60208301915083602082028301111561215f5761215e613b30565b5b9250929050565b60008135905061217581613e2a565b92915050565b60008151905061218a81613e2a565b92915050565b60008135905061219f81613e41565b92915050565b6000813590506121b481613e58565b92915050565b60008083601f8401126121d0576121cf613b2b565b5b8235905067ffffffffffffffff8111156121ed576121ec613b26565b5b60208301915083600182028301111561220957612208613b30565b5b9250929050565b60008083601f84011261222657612225613b2b565b5b8235905067ffffffffffffffff81111561224357612242613b26565b5b60208301915083600182028301111561225f5761225e613b30565b5b9250929050565b60006020828403121561227c5761227b613b3a565b5b600061228a848285016120a5565b91505092915050565b600080604083850312156122aa576122a9613b3a565b5b60006122b8858286016120a5565b92505060206122c9858286016120a5565b9150509250929050565b600080604083850312156122ea576122e9613b3a565b5b60006122f8858286016120a5565b925050602061230985828601612166565b9150509250929050565b60008060008060008060008060e0898b03121561233357612332613b3a565b5b60006123418b828c016120a5565b98505060206123528b828c01612190565b97505060406123638b828c016120a5565b96505060606123748b828c016120a5565b95505060806123858b828c016120a5565b94505060a06123968b828c016121a5565b93505060c089013567ffffffffffffffff8111156123b7576123b6613b35565b5b6123c38b828c016121ba565b92509250509295985092959890939650565b600080600080606085870312156123ef576123ee613b3a565b5b60006123fd878288016120a5565b945050602061240e87828801612190565b935050604085013567ffffffffffffffff81111561242f5761242e613b35565b5b61243b878288016121ba565b925092505092959194509250565b600080600080600080600080600080600060c08c8e03121561246e5761246d613b3a565b5b60008c013567ffffffffffffffff81111561248c5761248b613b35565b5b6124988e828f016120ba565b9b509b505060206124ab8e828f016120a5565b99505060408c013567ffffffffffffffff8111156124cc576124cb613b35565b5b6124d88e828f01612110565b985098505060608c013567ffffffffffffffff8111156124fb576124fa613b35565b5b6125078e828f01612110565b965096505060808c013567ffffffffffffffff81111561252a57612529613b35565b5b6125368e828f016120ba565b945094505060a08c013567ffffffffffffffff81111561255957612558613b35565b5b6125658e828f016120ba565b92509250509295989b509295989b9093969950565b600080600080600080600060c0888a03121561259957612598613b3a565b5b600088013567ffffffffffffffff8111156125b7576125b6613b35565b5b6125c38a828b016120ba565b975097505060206125d68a828b016120a5565b95505060406125e78a828b01612190565b94505060606125f88a828b01612190565b93505060806126098a828b016120a5565b92505060a061261a8a828b016120a5565b91505092959891949750929550565b600080602083850312156126405761263f613b3a565b5b600083013567ffffffffffffffff81111561265e5761265d613b35565b5b61266a85828601612110565b92509250509250929050565b60006020828403121561268c5761268b613b3a565b5b600061269a8482850161217b565b91505092915050565b6000602082840312156126b9576126b8613b3a565b5b60006126c784828501612190565b91505092915050565b6000806000606084860312156126e9576126e8613b3a565b5b60006126f786828701612190565b9350506020612708868287016120a5565b9250506040612719868287016120a5565b9150509250925092565b600080600080600080600060c0888a03121561274257612741613b3a565b5b60006127508a828b01612190565b97505060206127618a828b016120a5565b96505060406127728a828b016120a5565b95505060606127838a828b016120a5565b94505060806127948a828b016121a5565b93505060a088013567ffffffffffffffff8111156127b5576127b4613b35565b5b6127c18a828b016121ba565b925092505092959891949750929550565b60008060008060008060008060c0898b0312156127f2576127f1613b3a565b5b60006128008b828c01612190565b98505060206128118b828c016120a5565b97505060406128228b828c016120a5565b96505060606128338b828c016121a5565b955050608089013567ffffffffffffffff81111561285457612853613b35565b5b6128608b828c016121ba565b945094505060a089013567ffffffffffffffff81111561288357612882613b35565b5b61288f8b828c016121ba565b92509250509295985092959890939650565b60008060008060008060a087890312156128be576128bd613b3a565b5b60006128cc89828a01612190565b96505060206128dd89828a016120a5565b95505060406128ee89828a016120a5565b94505060606128ff89828a016121a5565b935050608087013567ffffffffffffffff8111156129205761291f613b35565b5b61292c89828a01612210565b92509250509295509295509295565b60006129478383612997565b60208301905092915050565b600061295f8383612b5b565b60208301905092915050565b60006129778383612b79565b60208301905092915050565b600061298f8383612c26565b905092915050565b6129a0816138b1565b82525050565b6129af816138b1565b82525050565b6129c66129c1826138b1565b6139f9565b82525050565b60006129d7826137b9565b6129e18185613824565b93506129ec83613779565b8060005b83811015612a1d578151612a04888261293b565b9750612a0f836137f0565b9250506001810190506129f0565b5085935050505092915050565b6000612a35826137c4565b612a3f8185613835565b9350612a4a83613789565b8060005b83811015612a7b578151612a628882612953565b9750612a6d836137fd565b925050600181019050612a4e565b5085935050505092915050565b6000612a93826137cf565b612a9d8185613846565b9350612aa883613799565b8060005b83811015612ad9578151612ac0888261296b565b9750612acb8361380a565b925050600181019050612aac565b5085935050505092915050565b6000612af1826137da565b612afb8185613857565b935083602082028501612b0d856137a9565b8060005b85811015612b495784840389528151612b2a8582612983565b9450612b3583613817565b925060208a01995050600181019050612b11565b50829750879550505050505092915050565b612b64816138c3565b82525050565b612b73816138c3565b82525050565b612b82816138cf565b82525050565b612b91816138cf565b82525050565b612ba8612ba3826138cf565b613a0b565b82525050565b612bb7816138d9565b82525050565b612bce612bc9826138d9565b613a15565b82525050565b6000612be08385613879565b9350612bed83858461393c565b612bf683613b3f565b840190509392505050565b6000612c0d838561388a565b9350612c1a83858461393c565b82840190509392505050565b6000612c31826137e5565b612c3b8185613868565b9350612c4b81856020860161394b565b612c5481613b3f565b840191505092915050565b6000612c6a826137e5565b612c748185613879565b9350612c8481856020860161394b565b612c8d81613b3f565b840191505092915050565b6000612ca3826137e5565b612cad818561388a565b9350612cbd81856020860161394b565b80840191505092915050565b6000612cd58385613895565b9350612ce283858461393c565b612ceb83613b3f565b840190509392505050565b6000612d03601883613895565b9150612d0e82613b5d565b602082019050919050565b6000612d26601f83613895565b9150612d3182613b86565b602082019050919050565b6000612d49601c836138a6565b9150612d5482613baf565b601c82019050919050565b6000612d6c600f83613895565b9150612d7782613bd8565b602082019050919050565b6000612d8f601183613895565b9150612d9a82613c01565b602082019050919050565b6000612db2602283613895565b9150612dbd82613c2a565b604082019050919050565b6000612dd5602283613895565b9150612de082613c79565b604082019050919050565b6000612df8601e83613895565b9150612e0382613cc8565b602082019050919050565b6000612e1b601f83613895565b9150612e2682613cf1565b602082019050919050565b6000612e3e601783613895565b9150612e4982613d1a565b602082019050919050565b6000612e61601983613895565b9150612e6c82613d43565b602082019050919050565b6000612e84601a83613895565b9150612e8f82613d6c565b602082019050919050565b6000612ea760008361388a565b9150612eb282613d95565b600082019050919050565b6000612eca601b83613895565b9150612ed582613d98565b602082019050919050565b6000612eed601483613895565b9150612ef882613dc1565b602082019050919050565b6000612f10601783613895565b9150612f1b82613dea565b602082019050919050565b612f2f81613925565b82525050565b612f46612f4182613925565b613a31565b82525050565b612f558161392f565b82525050565b6000612f6782866129b5565b601482019150612f7782856129b5565b601482019150612f8782846129b5565b601482019150819050949350505050565b6000612fa482876129b5565b601482019150612fb482866129b5565b601482019150612fc482856129b5565b601482019150612fd48284612bbd565b60048201915081905095945050505050565b6000612ff282876129b5565b6014820191506130028286612b97565b602082019150613013828486612c01565b915081905095945050505050565b600061302d8286612b97565b60208201915061303e828486612c01565b9150819050949350505050565b60006130578284612c98565b915081905092915050565b600061306d82612d3c565b91506130798284612b97565b60208201915081905092915050565b600061309382612e9a565b9150819050919050565b60006130a98287612f35565b6020820191506130b982866129b5565b6014820191506130c982856129b5565b6014820191506130d98284612f35565b60208201915081905095945050505050565b60006130f7828f612f35565b602082019150613107828e6129b5565b601482019150613117828d6129b5565b601482019150613127828c612f35565b602082019150613137828b6129b5565b601482019150613147828a612b97565b60208201915061315782896129b5565b60148201915061316782886129b5565b60148201915061317782876129b5565b6014820191506131878286612bbd565b600482019150613198828486612c01565b91508190509d9c50505050505050505050505050565b60006131ba828e612f35565b6020820191506131ca828d6129b5565b6014820191506131da828c6129b5565b6014820191506131ea828b612f35565b6020820191506131fa828a612b97565b60208201915061320a82896129b5565b60148201915061321a82886129b5565b60148201915061322a82876129b5565b60148201915061323a8286612bbd565b60048201915061324b828486612c01565b91508190509c9b505050505050505050505050565b600060208201905061327560008301846129a6565b92915050565b600060608201905061329060008301876129a6565b61329d6020830186612b88565b81810360408301526132b0818486612bd4565b905095945050505050565b60006060820190506132d060008301866129a6565b6132dd6020830185612b88565b81810360408301526132ef8184612c5f565b9050949350505050565b600060408201905061330e60008301856129a6565b61331b6020830184612f26565b9392505050565b6000606082019050818103600083015261333c81866129cc565b905081810360208301526133508185612a88565b905081810360408301526133648184612ae6565b9050949350505050565b600060208201905081810360008301526133888184612a2a565b905092915050565b60006020820190506133a56000830184612b6a565b92915050565b60006040820190506133c06000830185612b6a565b81810360208301526133d28184612c5f565b90509392505050565b60006020820190506133f06000830184612b88565b92915050565b600060a08201905061340b6000830188612b88565b61341860208301876129a6565b6134256040830186612b88565b61343260608301856129a6565b61343f60808301846129a6565b9695505050505050565b600060408201905061345e6000830186612b88565b8181036020830152613471818486612bd4565b9050949350505050565b60006080820190506134906000830187612b88565b61349d6020830186612f4c565b6134aa6040830185612b88565b6134b76060830184612b88565b95945050505050565b600060208201905081810360008301526134db818486612bd4565b90509392505050565b600060208201905081810360008301526134ff818486612cc9565b90509392505050565b6000602082019050818103600083015261352181612cf6565b9050919050565b6000602082019050818103600083015261354181612d19565b9050919050565b6000602082019050818103600083015261356181612d5f565b9050919050565b6000602082019050818103600083015261358181612d82565b9050919050565b600060208201905081810360008301526135a181612da5565b9050919050565b600060208201905081810360008301526135c181612dc8565b9050919050565b600060208201905081810360008301526135e181612deb565b9050919050565b6000602082019050818103600083015261360181612e0e565b9050919050565b6000602082019050818103600083015261362181612e31565b9050919050565b6000602082019050818103600083015261364181612e54565b9050919050565b6000602082019050818103600083015261366181612e77565b9050919050565b6000602082019050818103600083015261368181612ebd565b9050919050565b600060208201905081810360008301526136a181612ee0565b9050919050565b600060208201905081810360008301526136c181612f03565b9050919050565b60006020820190506136dd6000830184612f26565b92915050565b6000610120820190506136f9600083018d612f26565b613706602083018c612f26565b613713604083018b6129a6565b613720606083018a612b88565b61372d60808301896129a6565b61373a60a08301886129a6565b61374760c08301876129a6565b61375460e0830186612bae565b818103610100830152613768818486612bd4565b90509b9a5050505050505050505050565b6000819050602082019050919050565b6000819050602082019050919050565b6000819050602082019050919050565b6000819050602082019050919050565b600081519050919050565b600081519050919050565b600081519050919050565b600081519050919050565b600081519050919050565b6000602082019050919050565b6000602082019050919050565b6000602082019050919050565b6000602082019050919050565b600082825260208201905092915050565b600082825260208201905092915050565b600082825260208201905092915050565b600082825260208201905092915050565b600082825260208201905092915050565b600082825260208201905092915050565b600081905092915050565b600082825260208201905092915050565b600081905092915050565b60006138bc82613905565b9050919050565b60008115159050919050565b6000819050919050565b60007fffffffff0000000000000000000000000000000000000000000000000000000082169050919050565b600073ffffffffffffffffffffffffffffffffffffffff82169050919050565b6000819050919050565b600060ff82169050919050565b82818337600083830152505050565b60005b8381101561396957808201518184015260208101905061394e565b83811115613978576000848401525b50505050565b6000600282049050600182168061399657607f821691505b602082108114156139aa576139a9613a99565b5b50919050565b60006139bb82613925565b91507fffffffffffffffffffffffffffffffffffffffffffffffffffffffffffffffff8214156139ee576139ed613a3b565b5b600182019050919050565b6000613a0482613a1f565b9050919050565b6000819050919050565b6000819050919050565b6000613a2a82613b50565b9050919050565b6000819050919050565b7f4e487b7100000000000000000000000000000000000000000000000000000000600052601160045260246000fd5b7f4e487b7100000000000000000000000000000000000000000000000000000000600052602160045260246000fd5b7f4e487b7100000000000000000000000000000000000000000000000000000000600052602260045260246000fd5b7f4e487b7100000000000000000000000000000000000000000000000000000000600052603260045260246000fd5b7f4e487b7100000000000000000000000000000000000000000000000000000000600052604160045260246000fd5b600080fd5b600080fd5b600080fd5b600080fd5b600080fd5b6000601f19601f8301169050919050565b60008160601b9050919050565b7f45434453413a20696e76616c6964207369676e61747572650000000000000000600082015250565b7f45434453413a20696e76616c6964207369676e6174757265206c656e67746800600082015250565b7f19457468657265756d205369676e6564204d6573736167653a0a333200000000600082015250565b7f5472616e73666572206661696c65640000000000000000000000000000000000600082015250565b7f496e76616c6964207369676e6174757265000000000000000000000000000000600082015250565b7f45434453413a20696e76616c6964207369676e6174757265202773272076616c60008201527f7565000000000000000000000000000000000000000000000000000000000000602082015250565b7f45434453413a20696e76616c6964207369676e6174757265202776272076616c60008201527f7565000000000000000000000000000000000000000000000000000000000000602082015250565b7f496e76616c6964207769746864726177616c2066756c66696c6c6d656e740000600082015250565b7f46756c66696c6c6d656e74206661696c656420756e65787065637465646c7900600082015250565b7f54656d706c61746520646f6573206e6f74206578697374000000000000000000600082015250565b7f556e657175616c20706172616d65746572206c656e6774687300000000000000600082015250565b7f46756c66696c6c2061646472657373204169726e6f6465527270000000000000600082015250565b50565b7f496e76616c696420726571756573742066756c66696c6c6d656e740000000000600082015250565b7f4169726e6f64652061646472657373207a65726f000000000000000000000000600082015250565b7f526571756573746572206e6f742073706f6e736f726564000000000000000000600082015250565b613e1c816138b1565b8114613e2757600080fd5b50565b613e33816138c3565b8114613e3e57600080fd5b50565b613e4a816138cf565b8114613e5557600080fd5b50565b613e61816138d9565b8114613e6c57600080fd5b5056fea2646970667358221220eda3d5e4de286a2d7dabf9eddf16cfac04763bccbb3e950900f926fdf258824164736f6c63430008060033",
  "devdoc": {
    "kind": "dev",
    "methods": {
      "checkAuthorizationStatus(address[],address,bytes32,bytes32,address,address)": {
        "details": "This method is meant to be called off-chain, statically by the Airnode to decide if it should respond to a request. The requester can also call it, yet this function returning true should not be taken as a guarantee of the subsequent request being fulfilled. It is enough for only one of the authorizer contracts to return true for the request to be authorized.",
        "params": {
          "airnode": "Airnode address",
          "authorizers": "Authorizer contract addresses",
          "endpointId": "Endpoint ID",
          "requestId": "Request ID",
          "requester": "Requester address",
          "sponsor": "Sponsor address"
        },
        "returns": {
          "status": "Authorization status of the request"
        }
      },
      "checkAuthorizationStatuses(address[],address,bytes32[],bytes32[],address[],address[])": {
        "params": {
          "airnode": "Airnode address",
          "authorizers": "Authorizer contract addresses",
          "endpointIds": "Endpoint IDs",
          "requestIds": "Request IDs",
          "requesters": "Requester addresses",
          "sponsors": "Sponsor addresses"
        },
        "returns": {
          "statuses": "Authorization statuses of the request"
        }
      },
      "createTemplate(address,bytes32,bytes)": {
        "details": "A specific set of request parameters will always have the same template ID. This means a few things: (1) You can compute the expected ID of a template before creating it, (2) Creating a new template with the same parameters will overwrite the old one and return the same ID, (3) After you query a template with its ID, you can verify its integrity by applying the hash and comparing the result with the ID.",
        "params": {
          "airnode": "Airnode address",
          "endpointId": "Endpoint ID (allowed to be `bytes32(0)`)",
          "parameters": "Static request parameters (i.e., parameters that will not change between requests, unlike the dynamic parameters determined at request-time)"
        },
        "returns": {
          "templateId": "Request template ID"
        }
      },
      "fail(bytes32,address,address,bytes4,string)": {
        "details": "Airnode should fall back to this if a request cannot be fulfilled because static call to `fulfill()` returns `false` for `callSuccess`",
        "params": {
          "airnode": "Airnode address",
          "errorMessage": "A message that explains why the request has failed",
          "fulfillAddress": "Address that will be called to fulfill",
          "fulfillFunctionId": "Signature of the function that will be called to fulfill",
          "requestId": "Request ID"
        }
      },
      "fulfill(bytes32,address,address,bytes4,bytes,bytes)": {
        "details": "The data is ABI-encoded as a `bytes` type, with its format depending on the request specifications. This will not revert depending on the external call. However, it will return `false` if the external call reverts or if there is no function with a matching signature at `fulfillAddress`. On the other hand, it will return `true` if the external call returns successfully or if there is no contract deployed at `fulfillAddress`. If `callSuccess` is `false`, `callData` can be decoded to retrieve the revert string.",
        "params": {
          "airnode": "Airnode address",
          "data": "Fulfillment data",
          "fulfillAddress": "Address that will be called to fulfill",
          "fulfillFunctionId": "Signature of the function that will be called to fulfill",
          "requestId": "Request ID"
        },
        "returns": {
          "callData": "Data returned by the fulfillment call (if there is any)",
          "callSuccess": "If the fulfillment call succeeded"
        }
      },
      "fulfillWithdrawal(bytes32,address,address)": {
        "details": "The Airnode sends the funds to the sponsor through this method to emit an event that indicates that the withdrawal request has been fulfilled",
        "params": {
          "airnode": "Airnode address",
          "sponsor": "Sponsor address",
          "withdrawalRequestId": "Withdrawal request ID"
        }
      },
      "getTemplates(bytes32[])": {
        "details": "Does not revert if the templates being indexed do not exist",
        "params": {
          "templateIds": "Request template IDs"
        },
        "returns": {
          "airnodes": "Array of Airnode addresses",
          "endpointIds": "Array of endpoint IDs",
          "parameters": "Array of request parameters"
        }
      },
      "makeFullRequest(address,bytes32,address,address,address,bytes4,bytes)": {
        "details": "`fulfillAddress` is not allowed to be the address of this contract. This is not actually needed to protect users that use the protocol as intended, but it is done for good measure.",
        "params": {
          "airnode": "Airnode address",
          "endpointId": "Endpoint ID (allowed to be `bytes32(0)`)",
          "fulfillAddress": "Address that will be called to fulfill",
          "fulfillFunctionId": "Signature of the function that will be called to fulfill",
          "parameters": "All request parameters",
          "sponsor": "Sponsor address",
          "sponsorWallet": "Sponsor wallet that is requested to fulfill the request"
        },
        "returns": {
          "requestId": "Request ID"
        }
      },
      "makeTemplateRequest(bytes32,address,address,address,bytes4,bytes)": {
        "details": "`fulfillAddress` is not allowed to be the address of this contract. This is not actually needed to protect users that use the protocol as intended, but it is done for good measure.",
        "params": {
          "fulfillAddress": "Address that will be called to fulfill",
          "fulfillFunctionId": "Signature of the function that will be called to fulfill",
          "parameters": "Parameters provided by the requester in addition to the parameters in the template",
          "sponsor": "Sponsor address",
          "sponsorWallet": "Sponsor wallet that is requested to fulfill the request",
          "templateId": "Template ID"
        },
        "returns": {
          "requestId": "Request ID"
        }
      },
      "requestIsAwaitingFulfillment(bytes32)": {
        "details": "If a requester has made a request, received a request ID but did not hear back, it can call this method to check if the Airnode has called back `fail()` instead.",
        "params": {
          "requestId": "Request ID"
        },
        "returns": {
          "isAwaitingFulfillment": "If the request is awaiting fulfillment (i.e., `true` if `fulfill()` or `fail()` is not called back yet, `false` otherwise)"
        }
      },
      "requestWithdrawal(address,address)": {
        "details": "We do not need to use the withdrawal request parameters in the request ID hash to validate them at the node-side because all of the parameters are used during fulfillment and will get validated on-chain. The first withdrawal request a sponsor will make will cost slightly higher gas than the rest due to how the request counter is implemented.",
        "params": {
          "airnode": "Airnode address",
          "sponsorWallet": "Sponsor wallet that the withdrawal is requested from"
        }
      },
      "setSponsorshipStatus(address,bool)": {
        "details": "This is not Airnode-specific, i.e., the sponsor allows the requester's requests to be fulfilled through its sponsor wallets across all Airnodes",
        "params": {
          "requester": "Requester address",
          "sponsorshipStatus": "Sponsorship status"
        }
      }
    },
    "stateVariables": {
      "requestIdToFulfillmentParameters": {
        "details": "Hash of expected fulfillment parameters are kept to verify that the fulfillment will be done with the correct parameters. This value is also used to check if the fulfillment for the particular request is expected (i.e., if there are recorded fulfillment parameters)"
      },
      "requesterToRequestCountPlusOne": {
        "details": "Can be used to calculate the ID of the next request the requester will make"
      }
    },
    "title": "Contract that implements the Airnode requestresponse protocol (RRP)",
    "version": 1
  },
  "userdoc": {
    "kind": "user",
    "methods": {
      "checkAuthorizationStatus(address[],address,bytes32,bytes32,address,address)": {
        "notice": "Uses the authorizer contracts of an Airnode to decide if a request is authorized. Once an Airnode receives a request, it calls this method to determine if it should respond. Similarly, third parties can use this method to determine if a particular request would be authorized."
      },
      "checkAuthorizationStatuses(address[],address,bytes32[],bytes32[],address[],address[])": {
        "notice": "A convenience function to make multiple authorization status checks with a single call"
      },
      "createTemplate(address,bytes32,bytes)": {
        "notice": "Creates a request template with the given parameters, addressable by the ID it returns"
      },
      "fail(bytes32,address,address,bytes4,string)": {
        "notice": "Called by Airnode if the request cannot be fulfilled"
      },
      "fulfill(bytes32,address,address,bytes4,bytes,bytes)": {
        "notice": "Called by Airnode to fulfill the request (template or full)"
      },
      "fulfillWithdrawal(bytes32,address,address)": {
        "notice": "Called by the Airnode using the sponsor wallet to fulfill the withdrawal request made by the sponsor"
      },
      "getTemplates(bytes32[])": {
        "notice": "A convenience method to retrieve multiple templates with a single call"
      },
      "makeFullRequest(address,bytes32,address,address,address,bytes4,bytes)": {
        "notice": "Called by the requester to make a full request, which provides all of its parameters as arguments and does not refer to a template"
      },
      "makeTemplateRequest(bytes32,address,address,address,bytes4,bytes)": {
        "notice": "Called by the requester to make a request that refers to a template for the Airnode address, endpoint ID and parameters"
      },
      "requestIsAwaitingFulfillment(bytes32)": {
        "notice": "Called to check if the request with the ID is made but not fulfilled/failed yet"
      },
      "requestWithdrawal(address,address)": {
        "notice": "Called by a sponsor to create a request for the Airnode to send the funds kept in the respective sponsor wallet to the sponsor"
      },
      "requesterToRequestCountPlusOne(address)": {
        "notice": "Called to get the request count of the requester plus one"
      },
      "setSponsorshipStatus(address,bool)": {
        "notice": "Called by the sponsor to set the sponsorship status of a requester, i.e., allow or disallow a requester to make requests that will be fulfilled by the sponsor wallet"
      },
      "sponsorToRequesterToSponsorshipStatus(address,address)": {
        "notice": "Called to get the sponsorship status for a sponsorrequester pair"
      },
      "sponsorToWithdrawalRequestCount(address)": {
        "notice": "Called to get the withdrawal request count of the sponsor"
      },
      "templates(bytes32)": {
        "notice": "Called to get a template"
      }
    },
    "version": 1
  },
  "storageLayout": {
    "storage": [
      {
        "astId": 4104,
        "contract": "contracts/rrp/AirnodeRrp.sol:AirnodeRrp",
        "label": "templates",
        "offset": 0,
        "slot": "0",
        "type": "t_mapping(t_bytes32,t_struct(Template)4097_storage)"
      },
      {
        "astId": 4257,
        "contract": "contracts/rrp/AirnodeRrp.sol:AirnodeRrp",
        "label": "sponsorToWithdrawalRequestCount",
        "offset": 0,
        "slot": "1",
        "type": "t_mapping(t_address,t_uint256)"
      },
      {
        "astId": 4262,
        "contract": "contracts/rrp/AirnodeRrp.sol:AirnodeRrp",
        "label": "withdrawalRequestIdToParameters",
        "offset": 0,
        "slot": "2",
        "type": "t_mapping(t_bytes32,t_bytes32)"
      },
      {
        "astId": 3476,
        "contract": "contracts/rrp/AirnodeRrp.sol:AirnodeRrp",
        "label": "sponsorToRequesterToSponsorshipStatus",
        "offset": 0,
        "slot": "3",
        "type": "t_mapping(t_address,t_mapping(t_address,t_bool))"
      },
      {
        "astId": 3482,
        "contract": "contracts/rrp/AirnodeRrp.sol:AirnodeRrp",
        "label": "requesterToRequestCountPlusOne",
        "offset": 0,
        "slot": "4",
        "type": "t_mapping(t_address,t_uint256)"
      },
      {
        "astId": 3487,
        "contract": "contracts/rrp/AirnodeRrp.sol:AirnodeRrp",
        "label": "requestIdToFulfillmentParameters",
        "offset": 0,
        "slot": "5",
        "type": "t_mapping(t_bytes32,t_bytes32)"
      }
    ],
    "types": {
      "t_address": {
        "encoding": "inplace",
        "label": "address",
        "numberOfBytes": "20"
      },
      "t_bool": {
        "encoding": "inplace",
        "label": "bool",
        "numberOfBytes": "1"
      },
      "t_bytes32": {
        "encoding": "inplace",
        "label": "bytes32",
        "numberOfBytes": "32"
      },
      "t_bytes_storage": {
        "encoding": "bytes",
        "label": "bytes",
        "numberOfBytes": "32"
      },
      "t_mapping(t_address,t_bool)": {
        "encoding": "mapping",
        "key": "t_address",
        "label": "mapping(address => bool)",
        "numberOfBytes": "32",
        "value": "t_bool"
      },
      "t_mapping(t_address,t_mapping(t_address,t_bool))": {
        "encoding": "mapping",
        "key": "t_address",
        "label": "mapping(address => mapping(address => bool))",
        "numberOfBytes": "32",
        "value": "t_mapping(t_address,t_bool)"
      },
      "t_mapping(t_address,t_uint256)": {
        "encoding": "mapping",
        "key": "t_address",
        "label": "mapping(address => uint256)",
        "numberOfBytes": "32",
        "value": "t_uint256"
      },
      "t_mapping(t_bytes32,t_bytes32)": {
        "encoding": "mapping",
        "key": "t_bytes32",
        "label": "mapping(bytes32 => bytes32)",
        "numberOfBytes": "32",
        "value": "t_bytes32"
      },
      "t_mapping(t_bytes32,t_struct(Template)4097_storage)": {
        "encoding": "mapping",
        "key": "t_bytes32",
        "label": "mapping(bytes32 => struct TemplateUtils.Template)",
        "numberOfBytes": "32",
        "value": "t_struct(Template)4097_storage"
      },
      "t_struct(Template)4097_storage": {
        "encoding": "inplace",
        "label": "struct TemplateUtils.Template",
        "members": [
          {
            "astId": 4092,
            "contract": "contracts/rrp/AirnodeRrp.sol:AirnodeRrp",
            "label": "airnode",
            "offset": 0,
            "slot": "0",
            "type": "t_address"
          },
          {
            "astId": 4094,
            "contract": "contracts/rrp/AirnodeRrp.sol:AirnodeRrp",
            "label": "endpointId",
            "offset": 0,
            "slot": "1",
            "type": "t_bytes32"
          },
          {
            "astId": 4096,
            "contract": "contracts/rrp/AirnodeRrp.sol:AirnodeRrp",
            "label": "parameters",
            "offset": 0,
            "slot": "2",
            "type": "t_bytes_storage"
          }
        ],
        "numberOfBytes": "96"
      },
      "t_uint256": {
        "encoding": "inplace",
        "label": "uint256",
        "numberOfBytes": "32"
      }
    }
  }
}